{
  "address": "0xaec9CE12Edd21BD042967008d24fD4ab12C745E5",
  "abi": [
    {
      "inputs": [
        {
          "internalType": "uint256",
          "name": "_paymasterStake",
          "type": "uint256"
        },
        {
          "internalType": "uint32",
          "name": "_unstakeDelaySec",
          "type": "uint32"
        }
      ],
      "stateMutability": "nonpayable",
      "type": "constructor"
    },
    {
      "inputs": [
        {
          "internalType": "uint256",
          "name": "opIndex",
          "type": "uint256"
        },
        {
          "internalType": "address",
          "name": "paymaster",
          "type": "address"
        },
        {
          "internalType": "string",
          "name": "reason",
          "type": "string"
        }
      ],
      "name": "FailedOp",
      "type": "error"
    },
    {
      "inputs": [
        {
          "internalType": "address",
          "name": "aggregator",
          "type": "address"
        }
      ],
      "name": "SignatureValidationFailed",
      "type": "error"
    },
    {
      "anonymous": false,
      "inputs": [
        {
          "indexed": true,
          "internalType": "address",
          "name": "account",
          "type": "address"
        },
        {
          "indexed": false,
          "internalType": "uint256",
          "name": "totalDeposit",
          "type": "uint256"
        }
      ],
      "name": "Deposited",
      "type": "event"
    },
    {
      "anonymous": false,
      "inputs": [
        {
          "indexed": true,
          "internalType": "address",
          "name": "account",
          "type": "address"
        },
        {
          "indexed": false,
          "internalType": "uint256",
          "name": "totalStaked",
          "type": "uint256"
        },
        {
          "indexed": false,
          "internalType": "uint256",
          "name": "withdrawTime",
          "type": "uint256"
        }
      ],
      "name": "StakeLocked",
      "type": "event"
    },
    {
      "anonymous": false,
      "inputs": [
        {
          "indexed": true,
          "internalType": "address",
          "name": "account",
          "type": "address"
        },
        {
          "indexed": false,
          "internalType": "uint256",
          "name": "withdrawTime",
          "type": "uint256"
        }
      ],
      "name": "StakeUnlocked",
      "type": "event"
    },
    {
      "anonymous": false,
      "inputs": [
        {
          "indexed": true,
          "internalType": "address",
          "name": "account",
          "type": "address"
        },
        {
          "indexed": false,
          "internalType": "address",
          "name": "withdrawAddress",
          "type": "address"
        },
        {
          "indexed": false,
          "internalType": "uint256",
          "name": "amount",
          "type": "uint256"
        }
      ],
      "name": "StakeWithdrawn",
      "type": "event"
    },
    {
      "anonymous": false,
      "inputs": [
        {
          "indexed": true,
          "internalType": "bytes32",
          "name": "requestId",
          "type": "bytes32"
        },
        {
          "indexed": true,
          "internalType": "address",
          "name": "sender",
          "type": "address"
        },
        {
          "indexed": true,
          "internalType": "address",
          "name": "paymaster",
          "type": "address"
        },
        {
          "indexed": false,
          "internalType": "uint256",
          "name": "nonce",
          "type": "uint256"
        },
        {
          "indexed": false,
          "internalType": "uint256",
          "name": "actualGasCost",
          "type": "uint256"
        },
        {
          "indexed": false,
          "internalType": "uint256",
          "name": "actualGasPrice",
          "type": "uint256"
        },
        {
          "indexed": false,
          "internalType": "bool",
          "name": "success",
          "type": "bool"
        }
      ],
      "name": "UserOperationEvent",
      "type": "event"
    },
    {
      "anonymous": false,
      "inputs": [
        {
          "indexed": true,
          "internalType": "bytes32",
          "name": "requestId",
          "type": "bytes32"
        },
        {
          "indexed": true,
          "internalType": "address",
          "name": "sender",
          "type": "address"
        },
        {
          "indexed": false,
          "internalType": "uint256",
          "name": "nonce",
          "type": "uint256"
        },
        {
          "indexed": false,
          "internalType": "bytes",
          "name": "revertReason",
          "type": "bytes"
        }
      ],
      "name": "UserOperationRevertReason",
      "type": "event"
    },
    {
      "anonymous": false,
      "inputs": [
        {
          "indexed": true,
          "internalType": "address",
          "name": "account",
          "type": "address"
        },
        {
          "indexed": false,
          "internalType": "address",
          "name": "withdrawAddress",
          "type": "address"
        },
        {
          "indexed": false,
          "internalType": "uint256",
          "name": "amount",
          "type": "uint256"
        }
      ],
      "name": "Withdrawn",
      "type": "event"
    },
    {
      "inputs": [
        {
          "internalType": "uint32",
          "name": "_unstakeDelaySec",
          "type": "uint32"
        }
      ],
      "name": "addStake",
      "outputs": [],
      "stateMutability": "payable",
      "type": "function"
    },
    {
      "inputs": [
        {
          "internalType": "address",
          "name": "account",
          "type": "address"
        }
      ],
      "name": "balanceOf",
      "outputs": [
        {
          "internalType": "uint256",
          "name": "",
          "type": "uint256"
        }
      ],
      "stateMutability": "view",
      "type": "function"
    },
    {
      "inputs": [
        {
          "internalType": "address",
          "name": "account",
          "type": "address"
        }
      ],
      "name": "depositTo",
      "outputs": [],
      "stateMutability": "payable",
      "type": "function"
    },
    {
      "inputs": [
        {
          "internalType": "address",
          "name": "",
          "type": "address"
        }
      ],
      "name": "deposits",
      "outputs": [
        {
          "internalType": "uint112",
          "name": "deposit",
          "type": "uint112"
        },
        {
          "internalType": "bool",
          "name": "staked",
          "type": "bool"
        },
        {
          "internalType": "uint112",
          "name": "stake",
          "type": "uint112"
        },
        {
          "internalType": "uint32",
          "name": "unstakeDelaySec",
          "type": "uint32"
        },
        {
          "internalType": "uint64",
          "name": "withdrawTime",
          "type": "uint64"
        }
      ],
      "stateMutability": "view",
      "type": "function"
    },
    {
      "inputs": [
        {
          "internalType": "address",
          "name": "account",
          "type": "address"
        }
      ],
      "name": "getDepositInfo",
      "outputs": [
        {
          "components": [
            {
              "internalType": "uint112",
              "name": "deposit",
              "type": "uint112"
            },
            {
              "internalType": "bool",
              "name": "staked",
              "type": "bool"
            },
            {
              "internalType": "uint112",
              "name": "stake",
              "type": "uint112"
            },
            {
              "internalType": "uint32",
              "name": "unstakeDelaySec",
              "type": "uint32"
            },
            {
              "internalType": "uint64",
              "name": "withdrawTime",
              "type": "uint64"
            }
          ],
          "internalType": "struct IStakeManager.DepositInfo",
          "name": "info",
          "type": "tuple"
        }
      ],
      "stateMutability": "view",
      "type": "function"
    },
    {
      "inputs": [
        {
          "components": [
            {
              "internalType": "address",
              "name": "sender",
              "type": "address"
            },
            {
              "internalType": "uint256",
              "name": "nonce",
              "type": "uint256"
            },
            {
              "internalType": "bytes",
              "name": "initCode",
              "type": "bytes"
            },
            {
              "internalType": "bytes",
              "name": "callData",
              "type": "bytes"
            },
            {
              "internalType": "uint256",
              "name": "callGasLimit",
              "type": "uint256"
            },
            {
              "internalType": "uint256",
              "name": "verificationGasLimit",
              "type": "uint256"
            },
            {
              "internalType": "uint256",
              "name": "preVerificationGas",
              "type": "uint256"
            },
            {
              "internalType": "uint256",
              "name": "maxFeePerGas",
              "type": "uint256"
            },
            {
              "internalType": "uint256",
              "name": "maxPriorityFeePerGas",
              "type": "uint256"
            },
            {
              "internalType": "bytes",
              "name": "paymasterAndData",
              "type": "bytes"
            },
            {
              "internalType": "bytes",
              "name": "signature",
              "type": "bytes"
            }
          ],
          "internalType": "struct UserOperation",
          "name": "userOp",
          "type": "tuple"
        }
      ],
      "name": "getRequestId",
      "outputs": [
        {
          "internalType": "bytes32",
          "name": "",
          "type": "bytes32"
        }
      ],
      "stateMutability": "view",
      "type": "function"
    },
    {
      "inputs": [
        {
          "internalType": "bytes",
          "name": "initCode",
          "type": "bytes"
        }
      ],
      "name": "getSenderAddress",
      "outputs": [
        {
          "internalType": "address",
          "name": "sender",
          "type": "address"
        }
      ],
      "stateMutability": "nonpayable",
      "type": "function"
    },
    {
      "inputs": [
        {
          "internalType": "address",
          "name": "sender",
          "type": "address"
        }
      ],
      "name": "getSenderStorage",
      "outputs": [
        {
          "internalType": "uint256[]",
          "name": "senderStorageCells",
          "type": "uint256[]"
        }
      ],
      "stateMutability": "view",
      "type": "function"
    },
    {
      "inputs": [
        {
          "components": [
            {
              "components": [
                {
                  "internalType": "address",
                  "name": "sender",
                  "type": "address"
                },
                {
                  "internalType": "uint256",
                  "name": "nonce",
                  "type": "uint256"
                },
                {
                  "internalType": "bytes",
                  "name": "initCode",
                  "type": "bytes"
                },
                {
                  "internalType": "bytes",
                  "name": "callData",
                  "type": "bytes"
                },
                {
                  "internalType": "uint256",
                  "name": "callGasLimit",
                  "type": "uint256"
                },
                {
                  "internalType": "uint256",
                  "name": "verificationGasLimit",
                  "type": "uint256"
                },
                {
                  "internalType": "uint256",
                  "name": "preVerificationGas",
                  "type": "uint256"
                },
                {
                  "internalType": "uint256",
                  "name": "maxFeePerGas",
                  "type": "uint256"
                },
                {
                  "internalType": "uint256",
                  "name": "maxPriorityFeePerGas",
                  "type": "uint256"
                },
                {
                  "internalType": "bytes",
                  "name": "paymasterAndData",
                  "type": "bytes"
                },
                {
                  "internalType": "bytes",
                  "name": "signature",
                  "type": "bytes"
                }
              ],
              "internalType": "struct UserOperation[]",
              "name": "userOps",
              "type": "tuple[]"
            },
            {
              "internalType": "contract IAggregator",
              "name": "aggregator",
              "type": "address"
            },
            {
              "internalType": "bytes",
              "name": "signature",
              "type": "bytes"
            }
          ],
          "internalType": "struct IEntryPoint.UserOpsPerAggregator[]",
          "name": "opsPerAggregator",
          "type": "tuple[]"
        },
        {
          "internalType": "address payable",
          "name": "beneficiary",
          "type": "address"
        }
      ],
      "name": "handleAggregatedOps",
      "outputs": [],
      "stateMutability": "nonpayable",
      "type": "function"
    },
    {
      "inputs": [
        {
          "components": [
            {
              "internalType": "address",
              "name": "sender",
              "type": "address"
            },
            {
              "internalType": "uint256",
              "name": "nonce",
              "type": "uint256"
            },
            {
              "internalType": "bytes",
              "name": "initCode",
              "type": "bytes"
            },
            {
              "internalType": "bytes",
              "name": "callData",
              "type": "bytes"
            },
            {
              "internalType": "uint256",
              "name": "callGasLimit",
              "type": "uint256"
            },
            {
              "internalType": "uint256",
              "name": "verificationGasLimit",
              "type": "uint256"
            },
            {
              "internalType": "uint256",
              "name": "preVerificationGas",
              "type": "uint256"
            },
            {
              "internalType": "uint256",
              "name": "maxFeePerGas",
              "type": "uint256"
            },
            {
              "internalType": "uint256",
              "name": "maxPriorityFeePerGas",
              "type": "uint256"
            },
            {
              "internalType": "bytes",
              "name": "paymasterAndData",
              "type": "bytes"
            },
            {
              "internalType": "bytes",
              "name": "signature",
              "type": "bytes"
            }
          ],
          "internalType": "struct UserOperation[]",
          "name": "ops",
          "type": "tuple[]"
        },
        {
          "internalType": "address payable",
          "name": "beneficiary",
          "type": "address"
        }
      ],
      "name": "handleOps",
      "outputs": [],
      "stateMutability": "nonpayable",
      "type": "function"
    },
    {
      "inputs": [
        {
          "internalType": "bytes",
          "name": "callData",
          "type": "bytes"
        },
        {
          "components": [
            {
              "components": [
                {
                  "internalType": "address",
                  "name": "sender",
                  "type": "address"
                },
                {
                  "internalType": "uint256",
                  "name": "nonce",
                  "type": "uint256"
                },
                {
                  "internalType": "uint256",
                  "name": "callGasLimit",
                  "type": "uint256"
                },
                {
                  "internalType": "uint256",
                  "name": "verificationGasLimit",
                  "type": "uint256"
                },
                {
                  "internalType": "uint256",
                  "name": "preVerificationGas",
                  "type": "uint256"
                },
                {
                  "internalType": "address",
                  "name": "paymaster",
                  "type": "address"
                },
                {
                  "internalType": "uint256",
                  "name": "maxFeePerGas",
                  "type": "uint256"
                },
                {
                  "internalType": "uint256",
                  "name": "maxPriorityFeePerGas",
                  "type": "uint256"
                }
              ],
              "internalType": "struct EntryPoint.MemoryUserOp",
              "name": "mUserOp",
              "type": "tuple"
            },
            {
              "internalType": "bytes32",
              "name": "requestId",
              "type": "bytes32"
            },
            {
              "internalType": "uint256",
              "name": "prefund",
              "type": "uint256"
            },
            {
              "internalType": "uint256",
              "name": "contextOffset",
              "type": "uint256"
            },
            {
              "internalType": "uint256",
              "name": "preOpGas",
              "type": "uint256"
            }
          ],
          "internalType": "struct EntryPoint.UserOpInfo",
          "name": "opInfo",
          "type": "tuple"
        },
        {
          "internalType": "bytes",
          "name": "context",
          "type": "bytes"
        }
      ],
      "name": "innerHandleOp",
      "outputs": [
        {
          "internalType": "uint256",
          "name": "actualGasCost",
          "type": "uint256"
        }
      ],
      "stateMutability": "nonpayable",
      "type": "function"
    },
    {
      "inputs": [],
      "name": "paymasterStake",
      "outputs": [
        {
          "internalType": "uint256",
          "name": "",
          "type": "uint256"
        }
      ],
      "stateMutability": "view",
      "type": "function"
    },
    {
      "inputs": [
        {
          "components": [
            {
              "internalType": "address",
              "name": "sender",
              "type": "address"
            },
            {
              "internalType": "uint256",
              "name": "nonce",
              "type": "uint256"
            },
            {
              "internalType": "bytes",
              "name": "initCode",
              "type": "bytes"
            },
            {
              "internalType": "bytes",
              "name": "callData",
              "type": "bytes"
            },
            {
              "internalType": "uint256",
              "name": "callGasLimit",
              "type": "uint256"
            },
            {
              "internalType": "uint256",
              "name": "verificationGasLimit",
              "type": "uint256"
            },
            {
              "internalType": "uint256",
              "name": "preVerificationGas",
              "type": "uint256"
            },
            {
              "internalType": "uint256",
              "name": "maxFeePerGas",
              "type": "uint256"
            },
            {
              "internalType": "uint256",
              "name": "maxPriorityFeePerGas",
              "type": "uint256"
            },
            {
              "internalType": "bytes",
              "name": "paymasterAndData",
              "type": "bytes"
            },
            {
              "internalType": "bytes",
              "name": "signature",
              "type": "bytes"
            }
          ],
          "internalType": "struct UserOperation",
          "name": "userOp",
          "type": "tuple"
        },
        {
          "internalType": "bool",
          "name": "offChainSigCheck",
          "type": "bool"
        }
      ],
      "name": "simulateValidation",
      "outputs": [
        {
          "internalType": "uint256",
          "name": "preOpGas",
          "type": "uint256"
        },
        {
          "internalType": "uint256",
          "name": "prefund",
          "type": "uint256"
        },
        {
          "internalType": "address",
          "name": "actualAggregator",
          "type": "address"
        },
        {
          "internalType": "bytes",
          "name": "sigForUserOp",
          "type": "bytes"
        },
        {
          "internalType": "bytes",
          "name": "sigForAggregation",
          "type": "bytes"
        },
        {
          "internalType": "bytes",
          "name": "offChainSigInfo",
          "type": "bytes"
        }
      ],
      "stateMutability": "nonpayable",
      "type": "function"
    },
    {
      "inputs": [],
      "name": "unlockStake",
      "outputs": [],
      "stateMutability": "nonpayable",
      "type": "function"
    },
    {
      "inputs": [],
      "name": "unstakeDelaySec",
      "outputs": [
        {
          "internalType": "uint32",
          "name": "",
          "type": "uint32"
        }
      ],
      "stateMutability": "view",
      "type": "function"
    },
    {
      "inputs": [
        {
          "internalType": "address payable",
          "name": "withdrawAddress",
          "type": "address"
        }
      ],
      "name": "withdrawStake",
      "outputs": [],
      "stateMutability": "nonpayable",
      "type": "function"
    },
    {
      "inputs": [
        {
          "internalType": "address payable",
          "name": "withdrawAddress",
          "type": "address"
        },
        {
          "internalType": "uint256",
          "name": "withdrawAmount",
          "type": "uint256"
        }
      ],
      "name": "withdrawTo",
      "outputs": [],
      "stateMutability": "nonpayable",
      "type": "function"
    },
    {
      "stateMutability": "payable",
      "type": "receive"
    }
  ],
  "transactionHash": "0xdceb09b1ebda1ce2025d923a5e5775aaa301d11bc3eff75e468f459a76a679ab",
  "args": [
    "10000000000000000",
    86400
  ],
  "numDeployments": 1,
  "solcInputHash": "297113c5f422c7edcdc103c102ccfb80",
  "bytecode": "0x60e0604052604051620000129062000129565b604051809103906000f0801580156200002f573d6000803e3d6000fd5b506001600160a01b031660c0523480156200004957600080fd5b50604051620043f6380380620043f68339810160408190526200006c9162000137565b63ffffffff8116608081905260a0839052620000cf5760405162461bcd60e51b815260206004820152601460248201527f696e76616c696420756e7374616b6544656c617900000000000000000000000060448201526064015b60405180910390fd5b60008211620001215760405162461bcd60e51b815260206004820152601660248201527f696e76616c6964207061796d61737465725374616b65000000000000000000006044820152606401620000c6565b505062000172565b61023380620041c383390190565b600080604083850312156200014b57600080fd5b82519150602083015163ffffffff811681146200016757600080fd5b809150509250929050565b60805160a05160c05161400c620001b7600039600081816113680152612ce401526000818161017f01526107ab015260008181610213015261066b015261400c6000f3fe6080604052600436106101125760003560e01c80635287ce12116100a5578063bb9fe6bf11610074578063ec8b5dbf11610059578063ec8b5dbf1461049d578063fc7e286d146104ca578063ffb01dd9146105a857600080fd5b8063bb9fe6bf14610468578063c23a5cea1461047d57600080fd5b80635287ce121461026a57806370a08231146103bd5780639b249f6914610410578063b760faf91461045557600080fd5b80631fad948c116100e15780631fad948c146101c1578063205c2878146101e1578063390b9978146102015780634b1d7cf51461024a57600080fd5b80630396cb601461012757806314e726341461013a57806317c6a9871461016d5780631d732756146101a157600080fd5b3661012257610120336105da565b005b600080fd5b610120610135366004612fd9565b610655565b34801561014657600080fd5b5061015a610155366004613018565b610a1f565b6040519081526020015b60405180910390f35b34801561017957600080fd5b5061015a7f000000000000000000000000000000000000000000000000000000000000000081565b3480156101ad57600080fd5b5061015a6101bc36600461318c565b610a61565b3480156101cd57600080fd5b506101206101dc366004613333565b610bca565b3480156101ed57600080fd5b506101206101fc36600461338a565b610cf2565b34801561020d57600080fd5b506102357f000000000000000000000000000000000000000000000000000000000000000081565b60405163ffffffff9091168152602001610164565b34801561025657600080fd5b50610120610265366004613333565b610f3c565b34801561027657600080fd5b5061035c6102853660046133b6565b6040805160a0810182526000808252602082018190529181018290526060810182905260808101919091525073ffffffffffffffffffffffffffffffffffffffff1660009081526020818152604091829020825160a08101845281546dffffffffffffffffffffffffffff80821683526e010000000000000000000000000000820460ff161515948301949094526f0100000000000000000000000000000090049092169282019290925260019091015463ffffffff81166060830152640100000000900467ffffffffffffffff16608082015290565b6040805182516dffffffffffffffffffffffffffff908116825260208085015115159083015283830151169181019190915260608083015163ffffffff169082015260809182015167ffffffffffffffff169181019190915260a001610164565b3480156103c957600080fd5b5061015a6103d83660046133b6565b73ffffffffffffffffffffffffffffffffffffffff166000908152602081905260409020546dffffffffffffffffffffffffffff1690565b34801561041c57600080fd5b5061043061042b3660046133d3565b61129b565b60405173ffffffffffffffffffffffffffffffffffffffff9091168152602001610164565b6101206104633660046133b6565b6105da565b34801561047457600080fd5b506101206113e9565b34801561048957600080fd5b506101206104983660046133b6565b611572565b3480156104a957600080fd5b506104bd6104b83660046133b6565b611876565b6040516101649190613415565b3480156104d657600080fd5b506105596104e53660046133b6565b600060208190529081526040902080546001909101546dffffffffffffffffffffffffffff808316926e010000000000000000000000000000810460ff16926f010000000000000000000000000000009091049091169063ffffffff811690640100000000900467ffffffffffffffff1685565b604080516dffffffffffffffffffffffffffff96871681529415156020860152929094169183019190915263ffffffff16606082015267ffffffffffffffff909116608082015260a001610164565b3480156105b457600080fd5b506105c86105c3366004613459565b6118e9565b60405161016496959493929190613526565b6105e48134611ab1565b73ffffffffffffffffffffffffffffffffffffffff811660008181526020818152604091829020805492516dffffffffffffffffffffffffffff909316835292917f2da466a7b24304f47e87fa2e1e5a81b9831ce54fec19055ce277ca2f39ba42c491015b60405180910390a25050565b33600090815260208190526040902063ffffffff7f0000000000000000000000000000000000000000000000000000000000000000811690831610156106fc576040517f08c379a000000000000000000000000000000000000000000000000000000000815260206004820152601560248201527f756e7374616b652064656c617920746f6f206c6f77000000000000000000000060448201526064015b60405180910390fd5b600181015463ffffffff9081169083161015610774576040517f08c379a000000000000000000000000000000000000000000000000000000000815260206004820152601c60248201527f63616e6e6f7420646563726561736520756e7374616b652074696d650000000060448201526064016106f3565b80546000906107a79034906f0100000000000000000000000000000090046dffffffffffffffffffffffffffff166135c3565b90507f0000000000000000000000000000000000000000000000000000000000000000811015610833576040517f08c379a000000000000000000000000000000000000000000000000000000000815260206004820152601360248201527f7374616b652076616c756520746f6f206c6f770000000000000000000000000060448201526064016106f3565b6dffffffffffffffffffffffffffff81106108aa576040517f08c379a000000000000000000000000000000000000000000000000000000000815260206004820152600e60248201527f7374616b65206f766572666c6f7700000000000000000000000000000000000060448201526064016106f3565b6040805160a08101825283546dffffffffffffffffffffffffffff90811682526001602080840182815286841685870190815263ffffffff808b16606088019081526000608089018181523380835296829052908a9020985189549551945189166f01000000000000000000000000000000027fffffff0000000000000000000000000000ffffffffffffffffffffffffffffff9515156e010000000000000000000000000000027fffffffffffffffffffffffffffffffffff0000000000000000000000000000009097169190991617949094179290921695909517865551949092018054925167ffffffffffffffff16640100000000027fffffffffffffffffffffffffffffffffffffffff000000000000000000000000909316949093169390931717905590517fa5ae833d0bb1dcd632d98a8b70973e8516812898e19bf27b70071ebc8dc52c0190610a12908490879091825263ffffffff16602082015260400190565b60405180910390a2505050565b6000610a2a82611bae565b6040805160208101929092523090820152466060820152608001604051602081830303815290604052805190602001209050919050565b6000805a9050333014610a7357600080fd5b845160008715610b6a57600080836000015173ffffffffffffffffffffffffffffffffffffffff1684604001518c8c604051610ab09291906135db565b60006040518083038160008787f1925050503d8060008114610aee576040519150601f19603f3d011682016040523d82523d6000602084013e610af3565b606091505b509150915081610b6757805115610b6257836000015173ffffffffffffffffffffffffffffffffffffffff1689602001517f1c4fada7374c0a9ee8841fc38afe82932dc0f8e69012e927f061a8bae611a201866020015184604051610b599291906135eb565b60405180910390a35b600192505b50505b600087608001515a8503019050610bbc6000838a8a8a8080601f016020809104026020016040519081016040528093929190818152602001838380828437600092019190915250889250611bc7915050565b9a9950505050505050505050565b8160008167ffffffffffffffff811115610be657610be6613096565b604051908082528060200260200182016040528015610c1f57816020015b610c0c612f35565b815260200190600190039081610c045790505b50905060005b82811015610c7f57610c7681878784818110610c4357610c43613604565b9050602002810190610c559190613633565b848481518110610c6757610c67613604565b60200260200101516000611fa0565b50600101610c25565b506000805b83811015610cdf57610cd381888884818110610ca257610ca2613604565b9050602002810190610cb49190613633565b858481518110610cc657610cc6613604565b60200260200101516121b9565b90910190600101610c84565b50610cea848261229f565b505050505050565b3360009081526020818152604091829020825160a08101845281546dffffffffffffffffffffffffffff8082168084526e010000000000000000000000000000830460ff161515958401959095526f0100000000000000000000000000000090910416938101939093526001015463ffffffff81166060840152640100000000900467ffffffffffffffff166080830152821115610dec576040517f08c379a000000000000000000000000000000000000000000000000000000000815260206004820152601960248201527f576974686472617720616d6f756e7420746f6f206c617267650000000000000060448201526064016106f3565b8051610e099083906dffffffffffffffffffffffffffff16613671565b6dffffffffffffffffffffffffffff1681526040805173ffffffffffffffffffffffffffffffffffffffff851681526020810184905233917fd1c19fbcd4551a5edfb66d43d2e337c04837afda3482b42bdf569a8fccdae5fb910160405180910390a260008373ffffffffffffffffffffffffffffffffffffffff168360405160006040518083038185875af1925050503d8060008114610ec6576040519150601f19603f3d011682016040523d82523d6000602084013e610ecb565b606091505b5050905080610f36576040517f08c379a000000000000000000000000000000000000000000000000000000000815260206004820152601260248201527f6661696c656420746f207769746864726177000000000000000000000000000060448201526064016106f3565b50505050565b816000805b82811015610f9657858582818110610f5b57610f5b613604565b9050602002810190610f6d9190613688565b610f7790806136bc565b610f829150836135c3565b915080610f8e81613724565b915050610f41565b5060008167ffffffffffffffff811115610fb257610fb2613096565b604051908082528060200260200182016040528015610feb57816020015b610fd8612f35565b815260200190600190039081610fd05790505b5090506000805b848110156111b2573688888381811061100d5761100d613604565b905060200281019061101f9190613688565b905036600061102e83806136bc565b9092509050600061104560408501602086016133b6565b90508160005b818110156110bc5761109b8886868481811061106957611069613604565b905060200281019061107b9190613633565b8b8b8151811061108d5761108d613604565b602002602001015186611fa0565b50876110a681613724565b98505080806110b490613724565b91505061104b565b5073ffffffffffffffffffffffffffffffffffffffff82161561119a5773ffffffffffffffffffffffffffffffffffffffff821663e3563a4f858561110460408a018a61375c565b6040518563ffffffff1660e01b81526004016111239493929190613972565b60006040518083038186803b15801561113b57600080fd5b505afa92505050801561114c575060015b61119a576040517f86a9f75000000000000000000000000000000000000000000000000000000000815273ffffffffffffffffffffffffffffffffffffffff831660048201526024016106f3565b505050505080806111aa90613724565b915050610ff2565b50600080915060005b8581101561128657368989838181106111d6576111d6613604565b90506020028101906111e89190613688565b90503660006111f783806136bc565b90925090508060005b8181101561126e576112428885858481811061121e5761121e613604565b90506020028101906112309190613633565b8b8b81518110610cc657610cc6613604565b61124c90886135c3565b96508761125881613724565b985050808061126690613724565b915050611200565b5050505050808061127e90613724565b9150506111bb565b50611291868261229f565b5050505050505050565b6000331561132b576040517f08c379a000000000000000000000000000000000000000000000000000000000815260206004820152602c60248201527f6d7573742062652063616c6c6564206f66662d636861696e207769746820667260448201527f6f6d3d7a65726f2d61646472000000000000000000000000000000000000000060648201526084016106f3565b6040517f570e1a3600000000000000000000000000000000000000000000000000000000815273ffffffffffffffffffffffffffffffffffffffff7f0000000000000000000000000000000000000000000000000000000000000000169063570e1a369061139f9086908690600401613a29565b6020604051808303816000875af11580156113be573d6000803e3d6000fd5b505050506040513d601f19601f820116820180604052508101906113e29190613a3d565b9392505050565b3360009081526020819052604081206001810154909163ffffffff909116900361143f576040517f08c379a00000000000000000000000000000000000000000000000000000000081526004016106f390613a5a565b80546e010000000000000000000000000000900460ff166114bc576040517f08c379a000000000000000000000000000000000000000000000000000000000815260206004820152601160248201527f616c726561647920756e7374616b696e6700000000000000000000000000000060448201526064016106f3565b60018101546000906114d49063ffffffff1642613a9d565b6001830180547fffffffffffffffffffffffffffffffffffffffff0000000000000000ffffffff1664010000000067ffffffffffffffff84169081029190911790915583547fffffffffffffffffffffffffffffffffff00ffffffffffffffffffffffffffff16845560405190815290915033907ffa9b3c14cc825c412c9ed81b3ba365a5b459439403f18829e572ed53a4180f0a90602001610649565b33600090815260208190526040902080546f0100000000000000000000000000000090046dffffffffffffffffffffffffffff168061160d576040517f08c379a000000000000000000000000000000000000000000000000000000000815260206004820152601460248201527f4e6f207374616b6520746f20776974686472617700000000000000000000000060448201526064016106f3565b6001820154640100000000900467ffffffffffffffff1661168a576040517f08c379a000000000000000000000000000000000000000000000000000000000815260206004820152601d60248201527f6d7573742063616c6c20756e6c6f636b5374616b65282920666972737400000060448201526064016106f3565b60018201544264010000000090910467ffffffffffffffff16111561170b576040517f08c379a000000000000000000000000000000000000000000000000000000000815260206004820152601b60248201527f5374616b65207769746864726177616c206973206e6f7420647565000000000060448201526064016106f3565b6001820180547fffffffffffffffffffffffffffffffffffffffff00000000000000000000000016905581547fffffff0000000000000000000000000000ffffffffffffffffffffffffffffff1682556040805173ffffffffffffffffffffffffffffffffffffffff851681526020810183905233917fb7c918e0e249f999e965cafeb6c664271b3f4317d296461500e71da39f0cbda3910160405180910390a260008373ffffffffffffffffffffffffffffffffffffffff168260405160006040518083038185875af1925050503d8060008114611806576040519150601f19603f3d011682016040523d82523d6000602084013e61180b565b606091505b5050905080610f36576040517f08c379a000000000000000000000000000000000000000000000000000000000815260206004820152601860248201527f6661696c656420746f207769746864726177207374616b65000000000000000060448201526064016106f3565b73ffffffffffffffffffffffffffffffffffffffff8116600090815260208190526040908190208151600180825281840190935260609282919081602001602082028036833701905050925081836000815181106118d6576118d6613604565b6020026020010181815250505050919050565b6000806000606080606060005a9050611900612f35565b61190e60008b836001611fa0565b9550806040015196508960c001355a6119279084613671565b61193191906135c3565b975061193c43600052565b73ffffffffffffffffffffffffffffffffffffffff861615611a17576040517f6076d43a00000000000000000000000000000000000000000000000000000000815273ffffffffffffffffffffffffffffffffffffffff871690636076d43a906119ac908d908d90600401613ac9565b600060405180830381865afa1580156119c9573d6000803e3d6000fd5b505050506040513d6000823e601f3d9081017fffffffffffffffffffffffffffffffffffffffffffffffffffffffffffffffe0168201604052611a0f9190810190613b73565b919650945092505b3315611aa5576040517f08c379a000000000000000000000000000000000000000000000000000000000815260206004820152602c60248201527f6d7573742062652063616c6c6564206f66662d636861696e207769746820667260448201527f6f6d3d7a65726f2d61646472000000000000000000000000000000000000000060648201526084016106f3565b50509295509295509295565b73ffffffffffffffffffffffffffffffffffffffff821660009081526020819052604081208054909190611af69084906dffffffffffffffffffffffffffff166135c3565b90506dffffffffffffffffffffffffffff811115611b70576040517f08c379a000000000000000000000000000000000000000000000000000000000815260206004820152601060248201527f6465706f736974206f766572666c6f770000000000000000000000000000000060448201526064016106f3565b81547fffffffffffffffffffffffffffffffffffff0000000000000000000000000000166dffffffffffffffffffffffffffff919091161790555050565b6000611bb98261238e565b805190602001209050919050565b6000805a855190915060009081611bdd826123cd565b60a083015190915073ffffffffffffffffffffffffffffffffffffffff8116611c095782519350611e36565b809350600088511115611e3657868202955060028a6002811115611c2f57611c2f613bfb565b14611cc75760608301516040517fa9a2340900000000000000000000000000000000000000000000000000000000815273ffffffffffffffffffffffffffffffffffffffff83169163a9a2340991611c8f908e908d908c90600401613c2a565b600060405180830381600088803b158015611ca957600080fd5b5087f1158015611cbd573d6000803e3d6000fd5b5050505050611e36565b60608301516040517fa9a2340900000000000000000000000000000000000000000000000000000000815273ffffffffffffffffffffffffffffffffffffffff83169163a9a2340991611d22908e908d908c90600401613c2a565b600060405180830381600088803b158015611d3c57600080fd5b5087f193505050508015611d4e575060015b611e3657611d5a613c8a565b806308c379a003611db05750611d6e613ca6565b80611d795750611db2565b8b82826040517efa072b0000000000000000000000000000000000000000000000000000000081526004016106f393929190613d4e565b505b6040517efa072b000000000000000000000000000000000000000000000000000000008152600481018c905273ffffffffffffffffffffffffffffffffffffffff8216602482015260606044820152600d60648201527f706f73744f702072657665727400000000000000000000000000000000000000608482015260a4016106f3565b5a85038701965081870295508589604001511015611ed2576040517efa072b000000000000000000000000000000000000000000000000000000008152600481018c905273ffffffffffffffffffffffffffffffffffffffff8216602482015260606044820152601b60648201527f70726566756e642062656c6f772061637475616c476173436f73740000000000608482015260a4016106f3565b6040890151869003611ee48582611ab1565b6000808c6002811115611ef957611ef9613bfb565b1490508460a0015173ffffffffffffffffffffffffffffffffffffffff16856000015173ffffffffffffffffffffffffffffffffffffffff168c602001517f33fd4d1f25a5461bea901784a6571de6debc16cd0831932c22c6969cd73ba99488602001518c8987604051611f889493929190938452602084019290925260408301521515606082015260800190565b60405180910390a45050505050505095945050505050565b6000805a8451909150611fb386826123fd565b611fbc86610a1f565b6020860152604081015160608201516080830151171760e087013517610100870135176effffffffffffffffffffffffffffff811115612058576040517f08c379a000000000000000000000000000000000000000000000000000000000815260206004820152601360248201527f6761732076616c756573206f766572666c6f770000000000000000000000000060448201526064016106f3565b6000806120648461251d565b90506120738a8a8a8a85612578565b9650915061208043600052565b60a084015160609073ffffffffffffffffffffffffffffffffffffffff16156120b7576120b08b8b8b8587612923565b90506120c8565b506040805160208101909152600081525b60005a87039050808b60a00135101561218b5760a08601516040517efa072b000000000000000000000000000000000000000000000000000000008152600481018e905273ffffffffffffffffffffffffffffffffffffffff909116602482015260606044820152602360648201527f55736564206d6f7265207468616e20766572696669636174696f6e4761734c6960848201527f6d6974000000000000000000000000000000000000000000000000000000000060a482015260c4016106f3565b60408a018390528160608b015260c08b01355a8803018a608001818152505050505050505050949350505050565b6000805a905060006121cc846060015190565b905030631d7327566121e1606088018861375c565b87856040518563ffffffff1660e01b81526004016122029493929190613d8c565b6020604051808303816000875af192505050801561225b575060408051601f3d9081017fffffffffffffffffffffffffffffffffffffffffffffffffffffffffffffffe016820190925261225891810190613e4d565b60015b61229357600084608001515a6122719085613671565b61227b91906135c3565b905061228b876002878585611bc7565b935050612296565b92505b50509392505050565b73ffffffffffffffffffffffffffffffffffffffff821661231c576040517f08c379a000000000000000000000000000000000000000000000000000000000815260206004820152601360248201527f696e76616c69642062656e65666963696172790000000000000000000000000060448201526064016106f3565b60008273ffffffffffffffffffffffffffffffffffffffff168260405160006040518083038185875af1925050503d8060008114612376576040519150601f19603f3d011682016040523d82523d6000602084013e61237b565b606091505b505090508061238957600080fd5b505050565b60603660006123a161014085018561375c565b915091508360208184030360405194506020810185016040528085528082602087013750505050919050565b60c081015160e0820151600091908082036123e9575092915050565b6123f582488301612bfb565b949350505050565b61240a60208301836133b6565b73ffffffffffffffffffffffffffffffffffffffff16815260208083013590820152608080830135604083015260a0830135606083015260c0808401359183019190915260e080840135918301919091526101008301359082015236600061247661012085018561375c565b909250905080156125105760148110156124ec576040517f08c379a000000000000000000000000000000000000000000000000000000000815260206004820152601860248201527f696e76616c6964207061796d6173746572416e6444617461000000000000000060448201526064016106f3565b6124fa601460008385613e66565b61250391613e90565b60601c60a0840152610f36565b600060a084015250505050565b60a0810151600090819073ffffffffffffffffffffffffffffffffffffffff1661254857600161254b565b60035b60ff1690506000836080015182856060015102856040015101019050612570846123cd565b029392505050565b60008060005a865190915061259a898261259560408c018c61375c565b612c11565b7fffffffffffffffffffffffffffffffffffffffffffffffffffffffffffffffff73ffffffffffffffffffffffffffffffffffffffff87160161267657806000015173ffffffffffffffffffffffffffffffffffffffff16633ad59dbc6040518163ffffffff1660e01b8152600401602060405180830381865afa925050508015612660575060408051601f3d9081017fffffffffffffffffffffffffffffffffffffffffffffffffffffffffffffffe016820190925261265d91810190613a3d565b60015b6126705760009250829550612676565b95508592505b805160a08201516000919073ffffffffffffffffffffffffffffffffffffffff81166126e85773ffffffffffffffffffffffffffffffffffffffff82166000908152602081905260409020546dffffffffffffffffffffffffffff168881116126e1578089036126e4565b60005b9350505b8173ffffffffffffffffffffffffffffffffffffffff16630825d1fc85606001518d8d602001518d886040518663ffffffff1660e01b81526004016127309493929190613ed8565b600060405180830381600088803b15801561274a57600080fd5b5087f19350505050801561275c575060015b61280a57612768613c8a565b806308c379a0036127bf575061277c613ca6565b8061278757506127c1565b8c6000826040517efa072b0000000000000000000000000000000000000000000000000000000081526004016106f393929190613d4e565b505b6040517efa072b000000000000000000000000000000000000000000000000000000008152600481018d90526000602482018190526060604483015260648201526084016106f3565b73ffffffffffffffffffffffffffffffffffffffff811661290f5773ffffffffffffffffffffffffffffffffffffffff8216600090815260208190526040902080546dffffffffffffffffffffffffffff16808a11156128d3576040517efa072b000000000000000000000000000000000000000000000000000000008152600481018f90526000602482015260606044820152601960648201527f77616c6c6574206469646e2774207061792070726566756e6400000000000000608482015260a4016106f3565b81547fffffffffffffffffffffffffffffffffffff000000000000000000000000000016908a90036dffffffffffffffffffffffffffff161790555b5a8503965050505050509550959350505050565b825160a081015173ffffffffffffffffffffffffffffffffffffffff8116600090815260208190526040902080546060939291906dffffffffffffffffffffffffffff8116906e010000000000000000000000000000900460ff16806129b8578a846040517efa072b0000000000000000000000000000000000000000000000000000000081526004016106f3929190613f1d565b87821015612a44576040517efa072b000000000000000000000000000000000000000000000000000000008152600481018c905273ffffffffffffffffffffffffffffffffffffffff8516602482015260606044820152601960648201527f7061796d6173746572206465706f73697420746f6f206c6f7700000000000000608482015260a4016106f3565b8782038360000160006101000a8154816dffffffffffffffffffffffffffff02191690836dffffffffffffffffffffffffffff16021790555060008786606001510390508473ffffffffffffffffffffffffffffffffffffffff1663f465c77e828d8d602001518d6040518563ffffffff1660e01b8152600401612aca93929190613f7c565b60006040518083038160008887f193505050508015612b2957506040513d6000823e601f3d9081017fffffffffffffffffffffffffffffffffffffffffffffffffffffffffffffffe0168201604052612b269190810190613fa1565b60015b612beb57612b35613c8a565b806308c379a003612b8b5750612b49613ca6565b80612b545750612b8d565b8c86826040517efa072b0000000000000000000000000000000000000000000000000000000081526004016106f393929190613d4e565b505b6040517efa072b000000000000000000000000000000000000000000000000000000008152600481018d905273ffffffffffffffffffffffffffffffffffffffff8616602482015260606044820152600060648201526084016106f3565b9c9b505050505050505050505050565b6000818310612c0a57816113e2565b5090919050565b8015610f3657825173ffffffffffffffffffffffffffffffffffffffff163b15612ca4576040517efa072b000000000000000000000000000000000000000000000000000000008152600481018590526000602482015260606044820152601a60648201527f73656e64657220616c726561647920636f6e7374727563746564000000000000608482015260a4016106f3565b6040517f570e1a3600000000000000000000000000000000000000000000000000000000815260009073ffffffffffffffffffffffffffffffffffffffff7f0000000000000000000000000000000000000000000000000000000000000000169063570e1a3690612d1b9086908690600401613a29565b6020604051808303816000875af1158015612d3a573d6000803e3d6000fd5b505050506040513d601f19601f82011682018060405250810190612d5e9190613a3d565b905073ffffffffffffffffffffffffffffffffffffffff8116612dea576040517efa072b000000000000000000000000000000000000000000000000000000008152600481018690526000602482015260606044820152600f60648201527f696e6974436f6465206661696c65640000000000000000000000000000000000608482015260a4016106f3565b835173ffffffffffffffffffffffffffffffffffffffff828116911614612ea0576040517efa072b000000000000000000000000000000000000000000000000000000008152600481018690526000602482015260606044820152602560648201527f73656e64657220646f65736e2774206d6174636820696e6974436f646520616460848201527f647265737300000000000000000000000000000000000000000000000000000060a482015260c4016106f3565b8073ffffffffffffffffffffffffffffffffffffffff163b600003612f2e576040517efa072b000000000000000000000000000000000000000000000000000000008152600481018690526000602482015260606044820152602060648201527f696e6974436f6465206661696c656420746f206372656174652073656e646572608482015260a4016106f3565b5050505050565b6040518060a00160405280612fb4604051806101000160405280600073ffffffffffffffffffffffffffffffffffffffff16815260200160008152602001600081526020016000815260200160008152602001600073ffffffffffffffffffffffffffffffffffffffff16815260200160008152602001600081525090565b8152602001600080191681526020016000815260200160008152602001600081525090565b600060208284031215612feb57600080fd5b813563ffffffff811681146113e257600080fd5b6000610160828403121561301257600080fd5b50919050565b60006020828403121561302a57600080fd5b813567ffffffffffffffff81111561304157600080fd5b6123f584828501612fff565b60008083601f84011261305f57600080fd5b50813567ffffffffffffffff81111561307757600080fd5b60208301915083602082850101111561308f57600080fd5b9250929050565b7f4e487b7100000000000000000000000000000000000000000000000000000000600052604160045260246000fd5b60a0810181811067ffffffffffffffff821117156130e5576130e5613096565b60405250565b610100810181811067ffffffffffffffff821117156130e5576130e5613096565b7fffffffffffffffffffffffffffffffffffffffffffffffffffffffffffffffe0601f830116810181811067ffffffffffffffff8211171561315057613150613096565b6040525050565b73ffffffffffffffffffffffffffffffffffffffff8116811461317957600080fd5b50565b803561318781613157565b919050565b60008060008060008587036101c08112156131a657600080fd5b863567ffffffffffffffff808211156131be57600080fd5b6131ca8a838b0161304d565b90985096507fffffffffffffffffffffffffffffffffffffffffffffffffffffffffffffffe0929092019161018091508183121561320757600080fd5b604051613213816130c5565b6101008085121561322357600080fd5b6040519450613231856130eb565b61323d60208c0161317c565b855260408b0135602086015260608b0135604086015260808b0135606086015260a08b0135608086015261327360c08c0161317c565b60a086015260e08b81013560c0870152908b0135908501529283526101208901356020840152610140890135604084015261016089013560608401528189013560808401529194506101a088013591808311156132cf57600080fd5b50506132dd8882890161304d565b969995985093965092949392505050565b60008083601f84011261330057600080fd5b50813567ffffffffffffffff81111561331857600080fd5b6020830191508360208260051b850101111561308f57600080fd5b60008060006040848603121561334857600080fd5b833567ffffffffffffffff81111561335f57600080fd5b61336b868287016132ee565b909450925050602084013561337f81613157565b809150509250925092565b6000806040838503121561339d57600080fd5b82356133a881613157565b946020939093013593505050565b6000602082840312156133c857600080fd5b81356113e281613157565b600080602083850312156133e657600080fd5b823567ffffffffffffffff8111156133fd57600080fd5b6134098582860161304d565b90969095509350505050565b6020808252825182820181905260009190848201906040850190845b8181101561344d57835183529284019291840191600101613431565b50909695505050505050565b6000806040838503121561346c57600080fd5b823567ffffffffffffffff81111561348357600080fd5b61348f85828601612fff565b925050602083013580151581146134a557600080fd5b809150509250929050565b60005b838110156134cb5781810151838201526020016134b3565b83811115610f365750506000910152565b600081518084526134f48160208601602086016134b0565b601f017fffffffffffffffffffffffffffffffffffffffffffffffffffffffffffffffe0169290920160200192915050565b86815285602082015273ffffffffffffffffffffffffffffffffffffffff8516604082015260c06060820152600061356160c08301866134dc565b828103608084015261357381866134dc565b905082810360a084015261358781856134dc565b9998505050505050505050565b7f4e487b7100000000000000000000000000000000000000000000000000000000600052601160045260246000fd5b600082198211156135d6576135d6613594565b500190565b8183823760009101908152919050565b8281526040602082015260006123f560408301846134dc565b7f4e487b7100000000000000000000000000000000000000000000000000000000600052603260045260246000fd5b600082357ffffffffffffffffffffffffffffffffffffffffffffffffffffffffffffffea183360301811261366757600080fd5b9190910192915050565b60008282101561368357613683613594565b500390565b600082357fffffffffffffffffffffffffffffffffffffffffffffffffffffffffffffffa183360301811261366757600080fd5b60008083357fffffffffffffffffffffffffffffffffffffffffffffffffffffffffffffffe18436030181126136f157600080fd5b83018035915067ffffffffffffffff82111561370c57600080fd5b6020019150600581901b360382131561308f57600080fd5b60007fffffffffffffffffffffffffffffffffffffffffffffffffffffffffffffffff820361375557613755613594565b5060010190565b60008083357fffffffffffffffffffffffffffffffffffffffffffffffffffffffffffffffe184360301811261379157600080fd5b83018035915067ffffffffffffffff8211156137ac57600080fd5b60200191503681900382131561308f57600080fd5b60008083357fffffffffffffffffffffffffffffffffffffffffffffffffffffffffffffffe18436030181126137f657600080fd5b830160208101925035905067ffffffffffffffff81111561381657600080fd5b80360382131561308f57600080fd5b8183528181602085013750600060208284010152600060207fffffffffffffffffffffffffffffffffffffffffffffffffffffffffffffffe0601f840116840101905092915050565b600061016061389a846138808561317c565b73ffffffffffffffffffffffffffffffffffffffff169052565b602083013560208501526138b160408401846137c1565b8260408701526138c48387018284613825565b925050506138d560608401846137c1565b85830360608701526138e8838284613825565b925050506080830135608085015260a083013560a085015260c083013560c085015260e083013560e085015261010080840135818601525061012061392f818501856137c1565b86840383880152613941848284613825565b9350505050610140613955818501856137c1565b86840383880152613967848284613825565b979650505050505050565b6040808252810184905260006060600586901b830181019083018783805b89811015613a12577fffffffffffffffffffffffffffffffffffffffffffffffffffffffffffffffa087860301845282357ffffffffffffffffffffffffffffffffffffffffffffffffffffffffffffffea18c36030181126139f0578283fd5b6139fc868d830161386e565b9550506020938401939290920191600101613990565b505050508281036020840152613967818587613825565b6020815260006123f5602083018486613825565b600060208284031215613a4f57600080fd5b81516113e281613157565b602081526000613a9760208301600a81527f6e6f74207374616b656400000000000000000000000000000000000000000000602082015260400190565b92915050565b600067ffffffffffffffff808316818516808303821115613ac057613ac0613594565b01949350505050565b604081526000613adc604083018561386e565b905082151560208301529392505050565b600082601f830112613afe57600080fd5b815167ffffffffffffffff811115613b1857613b18613096565b604051613b4d60207fffffffffffffffffffffffffffffffffffffffffffffffffffffffffffffffe0601f850116018261310c565b818152846020838601011115613b6257600080fd5b6123f58260208301602087016134b0565b600080600060608486031215613b8857600080fd5b835167ffffffffffffffff80821115613ba057600080fd5b613bac87838801613aed565b94506020860151915080821115613bc257600080fd5b613bce87838801613aed565b93506040860151915080821115613be457600080fd5b50613bf186828701613aed565b9150509250925092565b7f4e487b7100000000000000000000000000000000000000000000000000000000600052602160045260246000fd5b600060038510613c63577f4e487b7100000000000000000000000000000000000000000000000000000000600052602160045260246000fd5b84825260606020830152613c7a60608301856134dc565b9050826040830152949350505050565b600060033d1115613ca35760046000803e5060005160e01c5b90565b600060443d1015613cb45790565b6040517ffffffffffffffffffffffffffffffffffffffffffffffffffffffffffffffffc803d016004833e81513d67ffffffffffffffff8160248401118184111715613d0257505050505090565b8285019150815181811115613d1a5750505050505090565b843d8701016020828501011115613d345750505050505090565b613d436020828601018761310c565b509095945050505050565b83815273ffffffffffffffffffffffffffffffffffffffff83166020820152606060408201526000613d8360608301846134dc565b95945050505050565b60006101c0808352613da18184018789613825565b9050845173ffffffffffffffffffffffffffffffffffffffff808251166020860152602082015160408601526040820151606086015260608201516080860152608082015160a08601528060a08301511660c08601525060c081015160e085015260e08101516101008501525060208501516101208401526040850151610140840152606085015161016084015260808501516101808401528281036101a084015261396781856134dc565b600060208284031215613e5f57600080fd5b5051919050565b60008085851115613e7657600080fd5b83861115613e8357600080fd5b5050820193919092039150565b7fffffffffffffffffffffffffffffffffffffffff0000000000000000000000008135818116916014851015613ed05780818660140360031b1b83161692505b505092915050565b608081526000613eeb608083018761386e565b60208301959095525073ffffffffffffffffffffffffffffffffffffffff929092166040830152606090910152919050565b82815273ffffffffffffffffffffffffffffffffffffffff821660208201526060604082015260006123f560608301600a81527f6e6f74207374616b656400000000000000000000000000000000000000000000602082015260400190565b606081526000613f8f606083018661386e565b60208301949094525060400152919050565b600060208284031215613fb357600080fd5b815167ffffffffffffffff811115613fca57600080fd5b6123f584828501613aed56fea26469706673582212201a1cb256ffbb55044e55c071ebee2869beffeef09b803a78431c9bb37c118b8564736f6c634300080f0033608060405234801561001057600080fd5b50610213806100206000396000f3fe608060405234801561001057600080fd5b506004361061002b5760003560e01c8063570e1a3614610030575b600080fd5b61004361003e3660046100f9565b61006c565b60405173ffffffffffffffffffffffffffffffffffffffff909116815260200160405180910390f35b60008061007c601482858761016b565b61008591610195565b60601c90506000610099846014818861016b565b8080601f016020809104026020016040519081016040528093929190818152602001838380828437600092018290525084519495509360209350849250905082850182875af190506000519350806100f057600093505b50505092915050565b6000806020838503121561010c57600080fd5b823567ffffffffffffffff8082111561012457600080fd5b818501915085601f83011261013857600080fd5b81358181111561014757600080fd5b86602082850101111561015957600080fd5b60209290920196919550909350505050565b6000808585111561017b57600080fd5b8386111561018857600080fd5b5050820193919092039150565b7fffffffffffffffffffffffffffffffffffffffff00000000000000000000000081358181169160148510156101d55780818660140360031b1b83161692505b50509291505056fea2646970667358221220f8166de863c40067ec314f880e4866b2c5fe87dbc31f29534cc39de8b3bf36a364736f6c634300080f0033",
  "devdoc": {
    "errors": {
      "FailedOp(uint256,address,string)": [
        {
          "params": {
            "opIndex": "- index into the array of ops to the failed one (in simulateValidation, this is always zero)",
            "paymaster": "- if paymaster.validatePaymasterUserOp fails, this will be the paymaster's address. if validateUserOp failed,       this value will be zero (since it failed before accessing the paymaster)",
            "reason": "- revert reason   Should be caught in off-chain handleOps simulation and not happen on-chain.   Useful for mitigating DoS attempts against batchers or for troubleshooting of wallet/paymaster reverts."
          }
        }
      ]
    },
    "kind": "dev",
    "methods": {
      "addStake(uint32)": {
        "params": {
          "_unstakeDelaySec": "the new lock duration before the deposit can be withdrawn."
        }
      },
      "constructor": {
        "params": {
          "_paymasterStake": "- minimum required locked stake for a paymaster",
          "_unstakeDelaySec": "- minimum time (in seconds) a paymaster stake must be locked"
        }
      },
      "handleAggregatedOps(((address,uint256,bytes,bytes,uint256,uint256,uint256,uint256,uint256,bytes,bytes)[],address,bytes)[],address)": {
        "params": {
          "beneficiary": "the address to receive the fees",
          "opsPerAggregator": "the operations to execute, grouped by aggregator (or address(0) for no-aggregator wallets)"
        }
      },
      "handleOps((address,uint256,bytes,bytes,uint256,uint256,uint256,uint256,uint256,bytes,bytes)[],address)": {
        "params": {
          "beneficiary": "the address to receive the fees",
          "ops": "the operations to execute"
        }
      },
      "simulateValidation((address,uint256,bytes,bytes,uint256,uint256,uint256,uint256,uint256,bytes,bytes),bool)": {
        "details": "The node must also verify it doesn't use banned opcodes, and that it doesn't reference storage outside the wallet's data.      In order to split the running opcodes of the wallet (validateUserOp) from the paymaster's validatePaymasterUserOp,      it should look for the NUMBER opcode at depth=1 (which itself is a banned opcode)",
        "params": {
          "offChainSigCheck": "if the wallet has an aggregator, skip on-chain aggregation check. In thus case, the bundler must          perform the equivalent check using an off-chain library code",
          "userOp": "the user operation to validate."
        },
        "returns": {
          "actualAggregator": "the aggregator used by this userOp. if a non-zero aggregator is returned, the bundler must get its params using      aggregator.",
          "offChainSigInfo": "- if has actualAggregator, and offChainSigCheck is true, this value should be used by the off-chain signature code (e.g. it contains the sender's publickey)",
          "preOpGas": "total gas used by validation (including contract creation)",
          "prefund": "the amount the wallet had to prefund (zero in case a paymaster pays)",
          "sigForAggregation": " - only if has actualAggregator:  this value is returned from IAggregator.validateUserOpSignature, and should be passed to aggregator.aggregateSignatures",
          "sigForUserOp": "- only if has actualAggregator: this value is returned from IAggregator.validateUserOpSignature, and should be placed in the userOp.signature when creating a bundle."
        }
      },
      "withdrawStake(address)": {
        "params": {
          "withdrawAddress": "the address to send withdrawn value."
        }
      },
      "withdrawTo(address,uint256)": {
        "params": {
          "withdrawAddress": "the address to send withdrawn value.",
          "withdrawAmount": "the amount to withdraw."
        }
      }
    },
    "version": 1
  },
  "userdoc": {
    "errors": {
      "FailedOp(uint256,address,string)": [
        {
          "notice": "a custom revert error of handleOps, to identify the offending op.  NOTE: if simulateValidation passes successfully, there should be no reason for handleOps to fail on it."
        }
      ],
      "SignatureValidationFailed(address)": [
        {
          "notice": "error case when a signature aggregator fails to verify the aggregated signature it had created."
        }
      ]
    },
    "events": {
      "StakeLocked(address,uint256,uint256)": {
        "notice": "Emitted once a stake is scheduled for withdrawal"
      },
      "StakeUnlocked(address,uint256)": {
        "notice": "Emitted once a stake is scheduled for withdrawal"
      },
      "UserOperationRevertReason(bytes32,address,uint256,bytes)": {
        "notice": "An event emitted if the UserOperation \"callData\" reverted with non-zero length"
      }
    },
    "kind": "user",
    "methods": {
      "addStake(uint32)": {
        "notice": "add to the account's stake - amount and delay any pending unstake is first cancelled."
      },
      "balanceOf(address)": {
        "notice": "return the deposit (for gas payment) of the account"
      },
      "depositTo(address)": {
        "notice": "add to the deposit of the given account"
      },
      "deposits(address)": {
        "notice": "maps paymaster to their deposits and stakes"
      },
      "getRequestId((address,uint256,bytes,bytes,uint256,uint256,uint256,uint256,uint256,bytes,bytes))": {
        "notice": "generate a request Id - unique identifier for this request. the request ID is a hash over the content of the userOp (except the signature), the entrypoint and the chainid."
      },
      "getSenderAddress(bytes)": {
        "notice": "helper: make a \"view\" call to calculate the sender address. must be called from zero-address."
      },
      "getSenderStorage(address)": {
        "notice": "return the storage cells used internally by the EntryPoint for this sender address. During `simulateValidation`, allow these storage cells to be accessed  (that is, a wallet/paymaster are allowed to access their own deposit balance on the  EntryPoint's storage, but no other account)"
      },
      "handleAggregatedOps(((address,uint256,bytes,bytes,uint256,uint256,uint256,uint256,uint256,bytes,bytes)[],address,bytes)[],address)": {
        "notice": "Execute a batch of UserOperation with Aggregators"
      },
      "handleOps((address,uint256,bytes,bytes,uint256,uint256,uint256,uint256,uint256,bytes,bytes)[],address)": {
        "notice": "Execute a batch of UserOperation. no signature aggregator is used. if any wallet requires an aggregator (that is, it returned an \"actualAggregator\" when performing simulateValidation), then handleAggregatedOps() must be used instead."
      },
      "innerHandleOp(bytes,((address,uint256,uint256,uint256,uint256,address,uint256,uint256),bytes32,uint256,uint256,uint256),bytes)": {
        "notice": "inner function to handle a UserOperation. Must be declared \"external\" to open a call context, but it can only be called by handleOps."
      },
      "paymasterStake()": {
        "notice": "minimum value required to stake for a paymaster"
      },
      "simulateValidation((address,uint256,bytes,bytes,uint256,uint256,uint256,uint256,uint256,bytes,bytes),bool)": {
        "notice": "Simulate a call to wallet.validateUserOp and paymaster.validatePaymasterUserOp. Validation succeeds if the call doesn't revert."
      },
      "unlockStake()": {
        "notice": "attempt to unlock the stake. the value can be withdrawn (using withdrawStake) after the unstake delay."
      },
      "unstakeDelaySec()": {
        "notice": "minimum time (in seconds) required to lock a paymaster stake before it can be withdraw."
      },
      "withdrawStake(address)": {
        "notice": "withdraw from the (unlocked) stake. must first call unlockStake and wait for the unstakeDelay to pass"
      },
      "withdrawTo(address,uint256)": {
        "notice": "withdraw from the deposit."
      }
    },
    "version": 1
  },
  "storageLayout": {
    "storage": [
      {
        "astId": 9684,
        "contract": "contracts/core/EntryPoint.sol:EntryPoint",
        "label": "deposits",
        "offset": 0,
        "slot": "0",
        "type": "t_mapping(t_address,t_struct(DepositInfo)11114_storage)"
      }
    ],
    "types": {
      "t_address": {
        "encoding": "inplace",
        "label": "address",
        "numberOfBytes": "20"
      },
      "t_bool": {
        "encoding": "inplace",
        "label": "bool",
        "numberOfBytes": "1"
      },
      "t_mapping(t_address,t_struct(DepositInfo)11114_storage)": {
        "encoding": "mapping",
        "key": "t_address",
        "label": "mapping(address => struct IStakeManager.DepositInfo)",
        "numberOfBytes": "32",
        "value": "t_struct(DepositInfo)11114_storage"
      },
      "t_struct(DepositInfo)11114_storage": {
        "encoding": "inplace",
        "label": "struct IStakeManager.DepositInfo",
        "members": [
          {
            "astId": 11105,
            "contract": "contracts/core/EntryPoint.sol:EntryPoint",
            "label": "deposit",
            "offset": 0,
            "slot": "0",
            "type": "t_uint112"
          },
          {
            "astId": 11107,
            "contract": "contracts/core/EntryPoint.sol:EntryPoint",
            "label": "staked",
            "offset": 14,
            "slot": "0",
            "type": "t_bool"
          },
          {
            "astId": 11109,
            "contract": "contracts/core/EntryPoint.sol:EntryPoint",
            "label": "stake",
            "offset": 15,
            "slot": "0",
            "type": "t_uint112"
          },
          {
            "astId": 11111,
            "contract": "contracts/core/EntryPoint.sol:EntryPoint",
            "label": "unstakeDelaySec",
            "offset": 0,
            "slot": "1",
            "type": "t_uint32"
          },
          {
            "astId": 11113,
            "contract": "contracts/core/EntryPoint.sol:EntryPoint",
            "label": "withdrawTime",
            "offset": 4,
            "slot": "1",
            "type": "t_uint64"
          }
        ],
        "numberOfBytes": "64"
      },
      "t_uint112": {
        "encoding": "inplace",
        "label": "uint112",
        "numberOfBytes": "14"
      },
      "t_uint32": {
        "encoding": "inplace",
        "label": "uint32",
        "numberOfBytes": "4"
      },
      "t_uint64": {
        "encoding": "inplace",
        "label": "uint64",
        "numberOfBytes": "8"
      }
    }
  }
}