{
  "address": "0x9b1D7E14a4314a386dB0Fe6BbD8fDee7911a6d92",
  "abi": [
    {
      "inputs": [
        {
          "internalType": "bytes32",
          "name": "_prefix",
          "type": "bytes32"
        },
        {
          "internalType": "contract GnosisSafeProxyFactory",
          "name": "_proxyFactory",
          "type": "address"
        },
        {
          "internalType": "address",
          "name": "_safeSingleton",
          "type": "address"
        },
        {
          "internalType": "contract EIP4337Manager",
          "name": "_eip4337Manager",
          "type": "address"
        }
      ],
      "stateMutability": "nonpayable",
      "type": "constructor"
    },
    {
      "anonymous": false,
      "inputs": [
        {
          "indexed": true,
          "internalType": "address",
          "name": "account",
          "type": "address"
        },
        {
          "indexed": true,
          "internalType": "address",
          "name": "owner",
          "type": "address"
        },
        {
          "indexed": false,
          "internalType": "uint256",
          "name": "salt",
          "type": "uint256"
        }
      ],
      "name": "AccountCreated",
      "type": "event"
    },
    {
      "inputs": [
        {
          "internalType": "address",
          "name": "owner",
          "type": "address"
        },
        {
          "internalType": "uint256",
          "name": "salt",
          "type": "uint256"
        }
      ],
      "name": "createAccount",
      "outputs": [
        {
          "internalType": "address",
          "name": "addr",
          "type": "address"
        }
      ],
      "stateMutability": "nonpayable",
      "type": "function"
    },
    {
      "inputs": [],
      "name": "eip4337Manager",
      "outputs": [
        {
          "internalType": "contract EIP4337Manager",
          "name": "",
          "type": "address"
        }
      ],
      "stateMutability": "view",
      "type": "function"
    },
    {
      "inputs": [
        {
          "internalType": "address",
          "name": "owner",
          "type": "address"
        },
        {
          "internalType": "uint256",
          "name": "salt",
          "type": "uint256"
        }
      ],
      "name": "encodeSalt",
      "outputs": [
        {
          "internalType": "uint256",
          "name": "",
          "type": "uint256"
        }
      ],
      "stateMutability": "view",
      "type": "function"
    },
    {
      "inputs": [
        {
          "internalType": "address",
          "name": "owner",
          "type": "address"
        },
        {
          "internalType": "uint256",
          "name": "salt",
          "type": "uint256"
        }
      ],
      "name": "getAddress",
      "outputs": [
        {
          "internalType": "address",
          "name": "",
          "type": "address"
        }
      ],
      "stateMutability": "view",
      "type": "function"
    },
    {
      "inputs": [],
      "name": "prefix",
      "outputs": [
        {
          "internalType": "bytes32",
          "name": "",
          "type": "bytes32"
        }
      ],
      "stateMutability": "view",
      "type": "function"
    },
    {
      "inputs": [],
      "name": "proxyFactory",
      "outputs": [
        {
          "internalType": "contract GnosisSafeProxyFactory",
          "name": "",
          "type": "address"
        }
      ],
      "stateMutability": "view",
      "type": "function"
    },
    {
      "inputs": [],
      "name": "safeSingleton",
      "outputs": [
        {
          "internalType": "address",
          "name": "",
          "type": "address"
        }
      ],
      "stateMutability": "view",
      "type": "function"
    }
  ],
  "transactionHash": "0xf3ff8b3d74ed9a8e36755ed67d4683d0efb3f0046a4f8e30dc9934db25150d29",
  "args": [
    "0x5552b4ecd12fe26b2889603480ded037d0a32d9546454a5c52e0fde1a03a314c",
    "0xa6B71E26C5e0845f74c812102Ca7114b6a896AB2",
    "0x1e41e930174108BA10da4f6851B55e815237D004",
    "0x6685444c2a10c94D0f23da2B259680e022FF7d99"
  ],
  "numDeployments": 7,
  "solcInputHash": "3cc35cb228a11c3c6b2e8b1f9accfc8d",
  "bytecode": "0x61010060405234801561001157600080fd5b50604051610e00380380610e008339810160408190526100309161006a565b6080939093526001600160a01b0391821660a052811660c0521660e0526100bf565b6001600160a01b038116811461006757600080fd5b50565b6000806000806080858703121561008057600080fd5b84519350602085015161009281610052565b60408601519093506100a381610052565b60608601519092506100b481610052565b939692955090935050565b60805160a05160c05160e051610cca61013660003960008181608701528181610722015281816107c9015261087b01526000818161014601528181610280015261058601526000818161016d01528181610244015281816104d5015261062901526000818161010c01526101950152610cca6000f3fe608060405234801561001057600080fd5b506004361061007d5760003560e01c806375dadb321161005b57806375dadb32146101075780638cb84e181461012e578063ac7d146b14610141578063c10f1a751461016857600080fd5b80630e8ac4881461008257806316790ff3146100d35780635fbfb9cf146100f4575b600080fd5b6100a97f000000000000000000000000000000000000000000000000000000000000000081565b60405173ffffffffffffffffffffffffffffffffffffffff90911681526020015b60405180910390f35b6100e66100e1366004610953565b61018f565b6040519081526020016100ca565b6100a9610102366004610953565b61020e565b6100e67f000000000000000000000000000000000000000000000000000000000000000081565b6100a961013c366004610953565b610479565b6100a97f000000000000000000000000000000000000000000000000000000000000000081565b6100a97f000000000000000000000000000000000000000000000000000000000000000081565b604080517f0000000000000000000000000000000000000000000000000000000000000000602080830191909152606085901b7fffffffffffffffffffffffffffffffffffffffff0000000000000000000000001682840152605480830185905283518084039091018152607490920190925280519101205b92915050565b600061021a8383610479565b905073ffffffffffffffffffffffffffffffffffffffff81163b80156102405750610208565b60007f000000000000000000000000000000000000000000000000000000000000000073ffffffffffffffffffffffffffffffffffffffff16631688f0b97f00000000000000000000000000000000000000000000000000000000000000006102a9888861018f565b6040517fffffffff0000000000000000000000000000000000000000000000000000000060e085901b16815273ffffffffffffffffffffffffffffffffffffffff9092166004830152606060248301526000606483015260448201526084016020604051808303816000875af1158015610327573d6000803e3d6000fd5b505050506040513d601f19601f8201168201806040525081019061034b919061097f565b90508473ffffffffffffffffffffffffffffffffffffffff168173ffffffffffffffffffffffffffffffffffffffff167f33310a89c32d8cc00057ad6ef6274d2f8fe22389a992cf89983e09fc84f6cfff866040516103ac91815260200190565b60405180910390a36000808473ffffffffffffffffffffffffffffffffffffffff166103d7886106a4565b6040516103e491906109d3565b6000604051808303816000865af19150503d8060008114610421576040519150601f19603f3d011682016040523d82523d6000602084013e610426565b606091505b509150915081819061046e576040517f08c379a00000000000000000000000000000000000000000000000000000000081526004016104659190610a39565b60405180910390fd5b505050505092915050565b6000807fc5d2460186f7233c927e7db2dcc703c0e500b653ca82273b7bfad8045d85a4706104a7858561018f565b60408051602081019390935282015260600160405160208183030381529060405280519060200120905060007f000000000000000000000000000000000000000000000000000000000000000073ffffffffffffffffffffffffffffffffffffffff166353e5d9356040518163ffffffff1660e01b8152600401600060405180830381865afa15801561053e573d6000803e3d6000fd5b505050506040513d6000823e601f3d9081017fffffffffffffffffffffffffffffffffffffffffffffffffffffffffffffffe01682016040526105849190810190610a7b565b7f000000000000000000000000000000000000000000000000000000000000000073ffffffffffffffffffffffffffffffffffffffff166040516020016105cc929190610b46565b604080518083037fffffffffffffffffffffffffffffffffffffffffffffffffffffffffffffffe001815282825280516020918201207fff00000000000000000000000000000000000000000000000000000000000000828501527f000000000000000000000000000000000000000000000000000000000000000060601b7fffffffffffffffffffffffffffffffffffffffff000000000000000000000000166021850152603584019590955260558084019590955281518084039095018552607590920190528251920191909120949350505050565b604080516001808252818301909252606091600091906020808301908036833701905050905082816000815181106106de576106de610b68565b602002602001019073ffffffffffffffffffffffffffffffffffffffff16908173ffffffffffffffffffffffffffffffffffffffff168152505060006001905060007f000000000000000000000000000000000000000000000000000000000000000073ffffffffffffffffffffffffffffffffffffffff166370b8a01d6040518163ffffffff1660e01b8152600401602060405180830381865afa15801561078b573d6000803e3d6000fd5b505050506040513d601f19601f820116820180604052508101906107af919061097f565b60405173ffffffffffffffffffffffffffffffffffffffff7f0000000000000000000000000000000000000000000000000000000000000000166024820152909150600090604401604080517fffffffffffffffffffffffffffffffffffffffffffffffffffffffffffffffe08184030181529181526020820180517bffffffffffffffffffffffffffffffffffffffffffffffffffffffff167fd041593b00000000000000000000000000000000000000000000000000000000179052519091506108ae90859085907f0000000000000000000000000000000000000000000000000000000000000000908590879060009081908190602401610b97565b604080517fffffffffffffffffffffffffffffffffffffffffffffffffffffffffffffffe08184030181529190526020810180517bffffffffffffffffffffffffffffffffffffffffffffffffffffffff167fb63e800d000000000000000000000000000000000000000000000000000000001790529695505050505050565b73ffffffffffffffffffffffffffffffffffffffff8116811461095057600080fd5b50565b6000806040838503121561096657600080fd5b82356109718161092e565b946020939093013593505050565b60006020828403121561099157600080fd5b815161099c8161092e565b9392505050565b60005b838110156109be5781810151838201526020016109a6565b838111156109cd576000848401525b50505050565b600082516109e58184602087016109a3565b9190910192915050565b60008151808452610a078160208601602086016109a3565b601f017fffffffffffffffffffffffffffffffffffffffffffffffffffffffffffffffe0169290920160200192915050565b60208152600061099c60208301846109ef565b7f4e487b7100000000000000000000000000000000000000000000000000000000600052604160045260246000fd5b600060208284031215610a8d57600080fd5b815167ffffffffffffffff80821115610aa557600080fd5b818401915084601f830112610ab957600080fd5b815181811115610acb57610acb610a4c565b604051601f82017fffffffffffffffffffffffffffffffffffffffffffffffffffffffffffffffe0908116603f01168101908382118183101715610b1157610b11610a4c565b81604052828152876020848701011115610b2a57600080fd5b610b3b8360208301602088016109a3565b979650505050505050565b60008351610b588184602088016109a3565b9190910191825250602001919050565b7f4e487b7100000000000000000000000000000000000000000000000000000000600052603260045260246000fd5b6101008082528951908201819052600090610120830190602090818d01845b82811015610be857815173ffffffffffffffffffffffffffffffffffffffff1685529383019390830190600101610bb6565b50505083018a905273ffffffffffffffffffffffffffffffffffffffff891660408401528281036060840152610c1e81896109ef565b915050610c43608083018773ffffffffffffffffffffffffffffffffffffffff169052565b73ffffffffffffffffffffffffffffffffffffffff851660a08301528360c0830152610c8760e083018473ffffffffffffffffffffffffffffffffffffffff169052565b999850505050505050505056fea26469706673582212205be4371d3cbf3ecb483484c0c270872258198293d7683d5501ed04e586ee103964736f6c634300080f0033",
  "devdoc": {
    "kind": "dev",
    "methods": {},
    "version": 1
  },
  "userdoc": {
    "kind": "user",
    "methods": {
      "getAddress(address,uint256)": {
        "notice": "calculate the counterfactual address of this account as it would be returned by createAccount() (uses the same \"create2 signature\" used by GnosisSafeProxyFactory.createProxyWithNonce)"
      }
    },
    "notice": "A wrapper factory contract to deploy GnosisSafe as an Account-Abstraction wallet contract.",
    "version": 1
  },
  "storageLayout": {
    "storage": [],
    "types": null
  }
}