{
  "address": "0xA9947501D0D98Dc699409930fc15Db7e5b027f3e",
  "abi": [
    {
      "inputs": [
        {
          "internalType": "address",
          "name": "_erc721collection",
          "type": "address"
        },
        {
          "internalType": "address",
          "name": "_sender",
          "type": "address"
        },
        {
          "internalType": "uint256",
          "name": "_price",
          "type": "uint256"
        },
        {
          "internalType": "uint256",
          "name": "_period",
          "type": "uint256"
        }
      ],
      "stateMutability": "nonpayable",
      "type": "constructor"
    },
    {
      "inputs": [],
      "name": "erc721collection",
      "outputs": [
        {
          "internalType": "contract IERC721",
          "name": "",
          "type": "address"
        }
      ],
      "stateMutability": "view",
      "type": "function"
    },
    {
      "inputs": [],
      "name": "period",
      "outputs": [
        {
          "internalType": "uint256",
          "name": "",
          "type": "uint256"
        }
      ],
      "stateMutability": "view",
      "type": "function"
    },
    {
      "inputs": [],
      "name": "price",
      "outputs": [
        {
          "internalType": "uint256",
          "name": "",
          "type": "uint256"
        }
      ],
      "stateMutability": "view",
      "type": "function"
    },
    {
      "inputs": [],
      "name": "sender",
      "outputs": [
        {
          "internalType": "address",
          "name": "",
          "type": "address"
        }
      ],
      "stateMutability": "view",
      "type": "function"
    },
    {
      "inputs": [],
      "name": "transferETH",
      "outputs": [],
      "stateMutability": "payable",
      "type": "function"
    },
    {
      "inputs": [
        {
          "internalType": "address",
          "name": "_receiver",
          "type": "address"
        },
        {
          "internalType": "uint256",
          "name": "_tokenId",
          "type": "uint256"
        }
      ],
      "name": "triggerPayment",
      "outputs": [],
      "stateMutability": "nonpayable",
      "type": "function"
    }
  ],
  "transactionHash": "0x3dfdbcd3f56f7d5edcf06c571d223260517875cfd4124d022cf4c5d499663b87",
  "args": [
    "0x34bE7f35132E97915633BC1fc020364EA5134863",
    "0x4c10a098b428EE91e6ebBDDE89427E6D45B32A7D",
    "10000000000000000",
    60
  ],
  "numDeployments": 3,
  "solcInputHash": "bda0db8a3d98e9e4b8a381fffe0da2b5",
  "bytecode": "0x608060405234801561001057600080fd5b5060405161076538038061076583398101604081905261002f91610089565b600080546001600160a01b039586166001600160a01b03199182161790915560018054949095169316929092179092556002919091556003556100cc565b80516001600160a01b038116811461008457600080fd5b919050565b6000806000806080858703121561009f57600080fd5b6100a88561006d565b93506100b66020860161006d565b6040860151606090960151949790965092505050565b61068a806100db6000396000f3fe6080604052600436106100655760003560e01c8063a035b1fe11610043578063a035b1fe14610110578063e28d717b14610134578063ef78d4fd1461013c57600080fd5b806363a0ebc01461006a57806367e404ce146100c15780639de585c1146100ee575b600080fd5b34801561007657600080fd5b506000546100979073ffffffffffffffffffffffffffffffffffffffff1681565b60405173ffffffffffffffffffffffffffffffffffffffff90911681526020015b60405180910390f35b3480156100cd57600080fd5b506001546100979073ffffffffffffffffffffffffffffffffffffffff1681565b3480156100fa57600080fd5b5061010e6101093660046104c5565b610152565b005b34801561011c57600080fd5b5061012660025481565b6040519081526020016100b8565b61010e6103f8565b34801561014857600080fd5b5061012660035481565b6000546001546040517f23b872dd00000000000000000000000000000000000000000000000000000000815273ffffffffffffffffffffffffffffffffffffffff91821660048201528482166024820152604481018490529116906323b872dd90606401600060405180830381600087803b1580156101d057600080fd5b505af11580156101e4573d6000803e3d6000fd5b5050505073ffffffffffffffffffffffffffffffffffffffff821660009081526004602052604090205460035461021b908261050a565b421015610289576040517f08c379a000000000000000000000000000000000000000000000000000000000815260206004820152601e60248201527f5061796d656e7420706572696f6420686173206e6f7420656c6170736564000060448201526064015b60405180910390fd5b600254604080517fe28d717b0000000000000000000000000000000000000000000000000000000060208201528151600481830301815260248201928390527f468721a700000000000000000000000000000000000000000000000000000000909252859260009273ffffffffffffffffffffffffffffffffffffffff85169263468721a79261031f9230928790602801610584565b6020604051808303816000875af115801561033e573d6000803e3d6000fd5b505050506040513d601f19601f82011682018060405250810190610362919061062b565b9050806103cb576040517f08c379a000000000000000000000000000000000000000000000000000000000815260206004820152600e60248201527f5061796d656e74206661696c65640000000000000000000000000000000000006044820152606401610280565b5050505073ffffffffffffffffffffffffffffffffffffffff166000908152600460205260409020429055565b60015460405160009173ffffffffffffffffffffffffffffffffffffffff169034908381818185875af1925050503d8060008114610452576040519150601f19603f3d011682016040523d82523d6000602084013e610457565b606091505b50509050806104c2576040517f08c379a000000000000000000000000000000000000000000000000000000000815260206004820152601460248201527f4661696c656420746f2073656e642045746865720000000000000000000000006044820152606401610280565b50565b600080604083850312156104d857600080fd5b823573ffffffffffffffffffffffffffffffffffffffff811681146104fc57600080fd5b946020939093013593505050565b60008219821115610544577f4e487b7100000000000000000000000000000000000000000000000000000000600052601160045260246000fd5b500190565b60028110610580577f4e487b7100000000000000000000000000000000000000000000000000000000600052602160045260246000fd5b9052565b73ffffffffffffffffffffffffffffffffffffffff8516815260006020858184015260806040840152845180608085015260005b818110156105d45786810183015185820160a0015282016105b8565b818111156105e657600060a083870101525b50601f017fffffffffffffffffffffffffffffffffffffffffffffffffffffffffffffffe016830160a001915061062290506060830184610549565b95945050505050565b60006020828403121561063d57600080fd5b8151801515811461064d57600080fd5b939250505056fea2646970667358221220f180ff0905ab9415610fa777c8087005b221d747dc5c3595b452c9c225d2ec4f64736f6c634300080f0033",
  "devdoc": {
    "kind": "dev",
    "methods": {},
    "version": 1
  },
  "userdoc": {
    "kind": "user",
    "methods": {},
    "version": 1
  },
  "storageLayout": {
    "storage": [
      {
        "astId": 1300,
        "contract": "contracts/samples/module/ERC721SubscriptionModule.sol:ERC721SubscriptionModule",
        "label": "erc721collection",
        "offset": 0,
        "slot": "0",
        "type": "t_contract(IERC721)1265"
      },
      {
        "astId": 1302,
        "contract": "contracts/samples/module/ERC721SubscriptionModule.sol:ERC721SubscriptionModule",
        "label": "sender",
        "offset": 0,
        "slot": "1",
        "type": "t_address"
      },
      {
        "astId": 1304,
        "contract": "contracts/samples/module/ERC721SubscriptionModule.sol:ERC721SubscriptionModule",
        "label": "price",
        "offset": 0,
        "slot": "2",
        "type": "t_uint256"
      },
      {
        "astId": 1306,
        "contract": "contracts/samples/module/ERC721SubscriptionModule.sol:ERC721SubscriptionModule",
        "label": "period",
        "offset": 0,
        "slot": "3",
        "type": "t_uint256"
      },
      {
        "astId": 1310,
        "contract": "contracts/samples/module/ERC721SubscriptionModule.sol:ERC721SubscriptionModule",
        "label": "lastPayments",
        "offset": 0,
        "slot": "4",
        "type": "t_mapping(t_address,t_uint256)"
      }
    ],
    "types": {
      "t_address": {
        "encoding": "inplace",
        "label": "address",
        "numberOfBytes": "20"
      },
      "t_contract(IERC721)1265": {
        "encoding": "inplace",
        "label": "contract IERC721",
        "numberOfBytes": "20"
      },
      "t_mapping(t_address,t_uint256)": {
        "encoding": "mapping",
        "key": "t_address",
        "label": "mapping(address => uint256)",
        "numberOfBytes": "32",
        "value": "t_uint256"
      },
      "t_uint256": {
        "encoding": "inplace",
        "label": "uint256",
        "numberOfBytes": "32"
      }
    }
  }
}