{
  "address": "0xc2a079ABD89cd50cf8b2bd0DDe3A89A30fb939b7",
  "abi": [
    {
      "inputs": [
        {
          "internalType": "contract IEntryPoint",
          "name": "anEntryPoint",
          "type": "address"
        },
        {
          "internalType": "address",
          "name": "anOwner",
          "type": "address"
        }
      ],
      "stateMutability": "nonpayable",
      "type": "constructor"
    },
    {
      "anonymous": false,
      "inputs": [
        {
          "indexed": true,
          "internalType": "address",
          "name": "oldEntryPoint",
          "type": "address"
        },
        {
          "indexed": true,
          "internalType": "address",
          "name": "newEntryPoint",
          "type": "address"
        }
      ],
      "name": "EntryPointChanged",
      "type": "event"
    },
    {
      "inputs": [],
      "name": "addDeposit",
      "outputs": [],
      "stateMutability": "payable",
      "type": "function"
    },
    {
      "inputs": [],
      "name": "entryPoint",
      "outputs": [
        {
          "internalType": "contract IEntryPoint",
          "name": "",
          "type": "address"
        }
      ],
      "stateMutability": "view",
      "type": "function"
    },
    {
      "inputs": [
        {
          "internalType": "address",
          "name": "dest",
          "type": "address"
        },
        {
          "internalType": "uint256",
          "name": "value",
          "type": "uint256"
        },
        {
          "internalType": "bytes",
          "name": "func",
          "type": "bytes"
        }
      ],
      "name": "exec",
      "outputs": [],
      "stateMutability": "nonpayable",
      "type": "function"
    },
    {
      "inputs": [
        {
          "internalType": "address[]",
          "name": "dest",
          "type": "address[]"
        },
        {
          "internalType": "bytes[]",
          "name": "func",
          "type": "bytes[]"
        }
      ],
      "name": "execBatch",
      "outputs": [],
      "stateMutability": "nonpayable",
      "type": "function"
    },
    {
      "inputs": [
        {
          "internalType": "address",
          "name": "dest",
          "type": "address"
        },
        {
          "internalType": "uint256",
          "name": "value",
          "type": "uint256"
        },
        {
          "internalType": "bytes",
          "name": "func",
          "type": "bytes"
        }
      ],
      "name": "execFromEntryPoint",
      "outputs": [],
      "stateMutability": "nonpayable",
      "type": "function"
    },
    {
      "inputs": [],
      "name": "getDeposit",
      "outputs": [
        {
          "internalType": "uint256",
          "name": "",
          "type": "uint256"
        }
      ],
      "stateMutability": "view",
      "type": "function"
    },
    {
      "inputs": [],
      "name": "nonce",
      "outputs": [
        {
          "internalType": "uint256",
          "name": "",
          "type": "uint256"
        }
      ],
      "stateMutability": "view",
      "type": "function"
    },
    {
      "inputs": [],
      "name": "owner",
      "outputs": [
        {
          "internalType": "address",
          "name": "",
          "type": "address"
        }
      ],
      "stateMutability": "view",
      "type": "function"
    },
    {
      "inputs": [
        {
          "internalType": "address payable",
          "name": "dest",
          "type": "address"
        },
        {
          "internalType": "uint256",
          "name": "amount",
          "type": "uint256"
        }
      ],
      "name": "transfer",
      "outputs": [],
      "stateMutability": "nonpayable",
      "type": "function"
    },
    {
      "inputs": [
        {
          "internalType": "address",
          "name": "newEntryPoint",
          "type": "address"
        }
      ],
      "name": "updateEntryPoint",
      "outputs": [],
      "stateMutability": "nonpayable",
      "type": "function"
    },
    {
      "inputs": [
        {
          "components": [
            {
              "internalType": "address",
              "name": "sender",
              "type": "address"
            },
            {
              "internalType": "uint256",
              "name": "nonce",
              "type": "uint256"
            },
            {
              "internalType": "bytes",
              "name": "initCode",
              "type": "bytes"
            },
            {
              "internalType": "bytes",
              "name": "callData",
              "type": "bytes"
            },
            {
              "internalType": "uint256",
              "name": "callGasLimit",
              "type": "uint256"
            },
            {
              "internalType": "uint256",
              "name": "verificationGasLimit",
              "type": "uint256"
            },
            {
              "internalType": "uint256",
              "name": "preVerificationGas",
              "type": "uint256"
            },
            {
              "internalType": "uint256",
              "name": "maxFeePerGas",
              "type": "uint256"
            },
            {
              "internalType": "uint256",
              "name": "maxPriorityFeePerGas",
              "type": "uint256"
            },
            {
              "internalType": "bytes",
              "name": "paymasterAndData",
              "type": "bytes"
            },
            {
              "internalType": "bytes",
              "name": "signature",
              "type": "bytes"
            }
          ],
          "internalType": "struct UserOperation",
          "name": "userOp",
          "type": "tuple"
        },
        {
          "internalType": "bytes32",
          "name": "requestId",
          "type": "bytes32"
        },
        {
          "internalType": "address",
          "name": "aggregator",
          "type": "address"
        },
        {
          "internalType": "uint256",
          "name": "missingWalletFunds",
          "type": "uint256"
        }
      ],
      "name": "validateUserOp",
      "outputs": [],
      "stateMutability": "nonpayable",
      "type": "function"
    },
    {
      "inputs": [
        {
          "internalType": "address payable",
          "name": "withdrawAddress",
          "type": "address"
        },
        {
          "internalType": "uint256",
          "name": "amount",
          "type": "uint256"
        }
      ],
      "name": "withdrawDepositTo",
      "outputs": [],
      "stateMutability": "nonpayable",
      "type": "function"
    },
    {
      "stateMutability": "payable",
      "type": "receive"
    }
  ],
  "transactionHash": "0xa5c4edfebbf575410d270fd7f3f4b513a3ca4f45dd2ac1954bf9fce198ade29e",
  "args": [
    "0x1b98F08dB8F12392EAE339674e568fe29929bC47",
    "0xdA33acb9EB2f46ea96a13E815bB444E9046c5D55"
  ],
  "numDeployments": 1,
  "solcInputHash": "12a21f2ed52f25bc155cce0369ffbeac",
  "bytecode": "0x608060405234801561001057600080fd5b506040516113df3803806113df83398101604081905261002f9161008f565b600180546001600160a01b039384166001600160a01b031990911617905560008054919092166c01000000000000000000000000026001600160601b039091161790556100c9565b6001600160a01b038116811461008c57600080fd5b50565b600080604083850312156100a257600080fd5b82516100ad81610077565b60208401519092506100be81610077565b809150509250929050565b611307806100d86000396000f3fe6080604052600436106100cb5760003560e01c80638da5cb5b11610074578063b0d691fe1161004e578063b0d691fe14610235578063c399ec8814610260578063d0cb75fa1461027557600080fd5b80638da5cb5b14610181578063a9059cbb146101e8578063affed0e01461020857600080fd5b80634a58db19116100a55780634a58db19146101395780634d44560d1461014157806380c5c7d01461016157600080fd5b80630565bb67146100d75780630825d1fc146100f95780631b71bb6e1461011957600080fd5b366100d257005b600080fd5b3480156100e357600080fd5b506100f76100f2366004610f37565b610295565b005b34801561010557600080fd5b506100f7610114366004610fc0565b6102e4565b34801561012557600080fd5b506100f7610134366004611027565b61031f565b6100f7610333565b34801561014d57600080fd5b506100f761015c36600461104b565b6103be565b34801561016d57600080fd5b506100f761017c366004610f37565b61046d565b34801561018d57600080fd5b506000546101be906c01000000000000000000000000900473ffffffffffffffffffffffffffffffffffffffff1681565b60405173ffffffffffffffffffffffffffffffffffffffff90911681526020015b60405180910390f35b3480156101f457600080fd5b506100f761020336600461104b565b610475565b34801561021457600080fd5b506000546bffffffffffffffffffffffff165b6040519081526020016101df565b34801561024157600080fd5b5060015473ffffffffffffffffffffffffffffffffffffffff166101be565b34801561026c57600080fd5b506102276104c5565b34801561028157600080fd5b506100f76102903660046110bc565b61057b565b61029d61069f565b6102de848484848080601f01602080910402602001604051908101604052809392919081815260200183838082843760009201919091525061073c92505050565b50505050565b6102ec6107b9565b6102f784848461083a565b6103046040850185611128565b90506000036103165761031684610977565b6102de81610a3f565b610327610aaa565b61033081610ab2565b50565b600061035460015473ffffffffffffffffffffffffffffffffffffffff1690565b73ffffffffffffffffffffffffffffffffffffffff163460405160006040518083038185875af1925050503d80600081146103ab576040519150601f19603f3d011682016040523d82523d6000602084013e6103b0565b606091505b505090508061033057600080fd5b6103c661069f565b60015473ffffffffffffffffffffffffffffffffffffffff166040517f205c287800000000000000000000000000000000000000000000000000000000815273ffffffffffffffffffffffffffffffffffffffff848116600483015260248201849052919091169063205c287890604401600060405180830381600087803b15801561045157600080fd5b505af1158015610465573d6000803e3d6000fd5b505050505050565b61029d6107b9565b61047d61069f565b60405173ffffffffffffffffffffffffffffffffffffffff83169082156108fc029083906000818181858888f193505050501580156104c0573d6000803e3d6000fd5b505050565b60006104e660015473ffffffffffffffffffffffffffffffffffffffff1690565b6040517f70a0823100000000000000000000000000000000000000000000000000000000815230600482015273ffffffffffffffffffffffffffffffffffffffff91909116906370a0823190602401602060405180830381865afa158015610552573d6000803e3d6000fd5b505050506040513d601f19601f82011682018060405250810190610576919061118d565b905090565b61058361069f565b8281146105f1576040517f08c379a000000000000000000000000000000000000000000000000000000000815260206004820152601360248201527f77726f6e67206172726179206c656e677468730000000000000000000000000060448201526064015b60405180910390fd5b60005b8381101561069857610686858583818110610611576106116111a6565b90506020020160208101906106269190611027565b600085858581811061063a5761063a6111a6565b905060200281019061064c9190611128565b8080601f01602080910402602001604051908101604052809392919081815260200183838082843760009201919091525061073c92505050565b8061069081611204565b9150506105f4565b5050505050565b6000546c01000000000000000000000000900473ffffffffffffffffffffffffffffffffffffffff163314806106d457503330145b61073a576040517f08c379a000000000000000000000000000000000000000000000000000000000815260206004820152600a60248201527f6f6e6c79206f776e65720000000000000000000000000000000000000000000060448201526064016105e8565b565b6000808473ffffffffffffffffffffffffffffffffffffffff168484604051610765919061123c565b60006040518083038185875af1925050503d80600081146107a2576040519150601f19603f3d011682016040523d82523d6000602084013e6107a7565b606091505b50915091508161069857805160208201fd5b60015473ffffffffffffffffffffffffffffffffffffffff16331461073a576040517f08c379a000000000000000000000000000000000000000000000000000000000815260206004820152601b60248201527f77616c6c65743a206e6f742066726f6d20456e747279506f696e74000000000060448201526064016105e8565b6000610893836040517f19457468657265756d205369676e6564204d6573736167653a0a3332000000006020820152603c8101829052600090605c01604051602081830303815290604052805190602001209050919050565b90506108e36108a6610140860186611128565b8080601f0160208091040260200160405190810160405280939291908181526020018383808284376000920191909152508593925050610b409050565b6000546c01000000000000000000000000900473ffffffffffffffffffffffffffffffffffffffff9081169116146102de576040517f08c379a000000000000000000000000000000000000000000000000000000000815260206004820152601760248201527f77616c6c65743a2077726f6e67207369676e617475726500000000000000000060448201526064016105e8565b600080546020830135916bffffffffffffffffffffffff909116908061099c83611277565b91906101000a8154816bffffffffffffffffffffffff02191690836bffffffffffffffffffffffff1602179055506bffffffffffffffffffffffff1614610330576040517f08c379a000000000000000000000000000000000000000000000000000000000815260206004820152601560248201527f77616c6c65743a20696e76616c6964206e6f6e6365000000000000000000000060448201526064016105e8565b80156103305760405160009033907fffffffffffffffffffffffffffffffffffffffffffffffffffffffffffffffff90849084818181858888f193505050503d8060008114610698576040519150601f19603f3d011682016040523d82523d6000602084013e610698565b61073a61069f565b60015460405173ffffffffffffffffffffffffffffffffffffffff8084169216907f450909c1478d09248269d4ad4fa8cba61ca3f50faed58c7aedefa51c7f62b83a90600090a3600180547fffffffffffffffffffffffff00000000000000000000000000000000000000001673ffffffffffffffffffffffffffffffffffffffff92909216919091179055565b6000806000610b4f8585610b64565b91509150610b5c81610ba9565b509392505050565b6000808251604103610b9a5760208301516040840151606085015160001a610b8e87828585610dfd565b94509450505050610ba2565b506000905060025b9250929050565b6000816004811115610bbd57610bbd6112a2565b03610bc55750565b6001816004811115610bd957610bd96112a2565b03610c40576040517f08c379a000000000000000000000000000000000000000000000000000000000815260206004820152601860248201527f45434453413a20696e76616c6964207369676e6174757265000000000000000060448201526064016105e8565b6002816004811115610c5457610c546112a2565b03610cbb576040517f08c379a000000000000000000000000000000000000000000000000000000000815260206004820152601f60248201527f45434453413a20696e76616c6964207369676e6174757265206c656e6774680060448201526064016105e8565b6003816004811115610ccf57610ccf6112a2565b03610d5c576040517f08c379a000000000000000000000000000000000000000000000000000000000815260206004820152602260248201527f45434453413a20696e76616c6964207369676e6174757265202773272076616c60448201527f756500000000000000000000000000000000000000000000000000000000000060648201526084016105e8565b6004816004811115610d7057610d706112a2565b03610330576040517f08c379a000000000000000000000000000000000000000000000000000000000815260206004820152602260248201527f45434453413a20696e76616c6964207369676e6174757265202776272076616c60448201527f756500000000000000000000000000000000000000000000000000000000000060648201526084016105e8565b6000807f7fffffffffffffffffffffffffffffff5d576e7357a4501ddfe92f46681b20a0831115610e345750600090506003610f0c565b8460ff16601b14158015610e4c57508460ff16601c14155b15610e5d5750600090506004610f0c565b6040805160008082526020820180845289905260ff881692820192909252606081018690526080810185905260019060a0016020604051602081039080840390855afa158015610eb1573d6000803e3d6000fd5b50506040517fffffffffffffffffffffffffffffffffffffffffffffffffffffffffffffffe0015191505073ffffffffffffffffffffffffffffffffffffffff8116610f0557600060019250925050610f0c565b9150600090505b94509492505050565b73ffffffffffffffffffffffffffffffffffffffff8116811461033057600080fd5b60008060008060608587031215610f4d57600080fd5b8435610f5881610f15565b935060208501359250604085013567ffffffffffffffff80821115610f7c57600080fd5b818701915087601f830112610f9057600080fd5b813581811115610f9f57600080fd5b886020828501011115610fb157600080fd5b95989497505060200194505050565b60008060008060808587031215610fd657600080fd5b843567ffffffffffffffff811115610fed57600080fd5b8501610160818803121561100057600080fd5b935060208501359250604085013561101781610f15565b9396929550929360600135925050565b60006020828403121561103957600080fd5b813561104481610f15565b9392505050565b6000806040838503121561105e57600080fd5b823561106981610f15565b946020939093013593505050565b60008083601f84011261108957600080fd5b50813567ffffffffffffffff8111156110a157600080fd5b6020830191508360208260051b8501011115610ba257600080fd5b600080600080604085870312156110d257600080fd5b843567ffffffffffffffff808211156110ea57600080fd5b6110f688838901611077565b9096509450602087013591508082111561110f57600080fd5b5061111c87828801611077565b95989497509550505050565b60008083357fffffffffffffffffffffffffffffffffffffffffffffffffffffffffffffffe184360301811261115d57600080fd5b83018035915067ffffffffffffffff82111561117857600080fd5b602001915036819003821315610ba257600080fd5b60006020828403121561119f57600080fd5b5051919050565b7f4e487b7100000000000000000000000000000000000000000000000000000000600052603260045260246000fd5b7f4e487b7100000000000000000000000000000000000000000000000000000000600052601160045260246000fd5b60007fffffffffffffffffffffffffffffffffffffffffffffffffffffffffffffffff8203611235576112356111d5565b5060010190565b6000825160005b8181101561125d5760208186018101518583015201611243565b8181111561126c576000828501525b509190910192915050565b60006bffffffffffffffffffffffff808316818103611298576112986111d5565b6001019392505050565b7f4e487b7100000000000000000000000000000000000000000000000000000000600052602160045260246000fdfea2646970667358221220f60ebeab6f395f7f55d23c014a99497bede660719add8c7f40df5fe34a18a93464736f6c634300080f0033",
  "devdoc": {
    "kind": "dev",
    "methods": {
      "updateEntryPoint(address)": {
        "params": {
          "newEntryPoint": "the new entrypoint to trust."
        }
      },
      "withdrawDepositTo(address,uint256)": {
        "params": {
          "amount": "to withdraw",
          "withdrawAddress": "target to send to"
        }
      }
    },
    "version": 1
  },
  "userdoc": {
    "kind": "user",
    "methods": {
      "addDeposit()": {
        "notice": "deposit more funds for this wallet in the entryPoint"
      },
      "entryPoint()": {
        "notice": "return the entryPoint used by this wallet. subclass should return the current entryPoint used by this wallet."
      },
      "exec(address,uint256,bytes)": {
        "notice": "execute a transaction (called directly from owner, not by entryPoint)"
      },
      "execBatch(address[],bytes[])": {
        "notice": "execute a sequence of transaction"
      },
      "getDeposit()": {
        "notice": "check current wallet deposit in the entryPoint"
      },
      "nonce()": {
        "notice": "return the wallet nonce. subclass should return a nonce value that is used both by _validateAndUpdateNonce, and by the external provider (to read the current nonce)"
      },
      "transfer(address,uint256)": {
        "notice": "transfer eth value to a destination address"
      },
      "updateEntryPoint(address)": {
        "notice": "expose an api to modify the entryPoint. must be called by current \"admin\" of the wallet."
      },
      "validateUserOp((address,uint256,bytes,bytes,uint256,uint256,uint256,uint256,uint256,bytes,bytes),bytes32,address,uint256)": {
        "notice": "Validate user's signature and nonce. subclass doesn't override this method. instead, it should override the specific internal validation methods."
      },
      "withdrawDepositTo(address,uint256)": {
        "notice": "withdraw value from the wallet's deposit"
      }
    },
    "notice": "minimal wallet.  this is sample minimal wallet.  has execute, eth handling methods  has a single signer that can send requests through the entryPoint.",
    "version": 1
  },
  "storageLayout": {
    "storage": [
      {
        "astId": 11779,
        "contract": "contracts/samples/SimpleWallet.sol:SimpleWallet",
        "label": "_nonce",
        "offset": 0,
        "slot": "0",
        "type": "t_uint96"
      },
      {
        "astId": 11781,
        "contract": "contracts/samples/SimpleWallet.sol:SimpleWallet",
        "label": "owner",
        "offset": 12,
        "slot": "0",
        "type": "t_address"
      },
      {
        "astId": 11803,
        "contract": "contracts/samples/SimpleWallet.sol:SimpleWallet",
        "label": "_entryPoint",
        "offset": 0,
        "slot": "1",
        "type": "t_contract(IEntryPoint)11017"
      }
    ],
    "types": {
      "t_address": {
        "encoding": "inplace",
        "label": "address",
        "numberOfBytes": "20"
      },
      "t_contract(IEntryPoint)11017": {
        "encoding": "inplace",
        "label": "contract IEntryPoint",
        "numberOfBytes": "20"
      },
      "t_uint96": {
        "encoding": "inplace",
        "label": "uint96",
        "numberOfBytes": "12"
      }
    }
  }
}