{
  "address": "0x0F46c65C17AA6b4102046935F33301f0510B163A",
  "abi": [
    {
      "inputs": [
        {
          "internalType": "uint256",
          "name": "preOpGas",
          "type": "uint256"
        },
        {
          "internalType": "uint256",
          "name": "paid",
          "type": "uint256"
        },
        {
          "internalType": "uint64",
          "name": "validAfter",
          "type": "uint64"
        },
        {
          "internalType": "uint64",
          "name": "validBefore",
          "type": "uint64"
        }
      ],
      "name": "ExecutionResult",
      "type": "error"
    },
    {
      "inputs": [
        {
          "internalType": "uint256",
          "name": "opIndex",
          "type": "uint256"
        },
        {
          "internalType": "address",
          "name": "paymaster",
          "type": "address"
        },
        {
          "internalType": "string",
          "name": "reason",
          "type": "string"
        }
      ],
      "name": "FailedOp",
      "type": "error"
    },
    {
      "inputs": [
        {
          "internalType": "address",
          "name": "sender",
          "type": "address"
        }
      ],
      "name": "SenderAddressResult",
      "type": "error"
    },
    {
      "inputs": [
        {
          "internalType": "address",
          "name": "aggregator",
          "type": "address"
        }
      ],
      "name": "SignatureValidationFailed",
      "type": "error"
    },
    {
      "inputs": [
        {
          "components": [
            {
              "internalType": "uint256",
              "name": "preOpGas",
              "type": "uint256"
            },
            {
              "internalType": "uint256",
              "name": "prefund",
              "type": "uint256"
            },
            {
              "internalType": "bool",
              "name": "sigFailed",
              "type": "bool"
            },
            {
              "internalType": "uint64",
              "name": "validAfter",
              "type": "uint64"
            },
            {
              "internalType": "uint64",
              "name": "validUntil",
              "type": "uint64"
            },
            {
              "internalType": "bytes",
              "name": "paymasterContext",
              "type": "bytes"
            }
          ],
          "internalType": "struct IEntryPoint.ReturnInfo",
          "name": "returnInfo",
          "type": "tuple"
        },
        {
          "components": [
            {
              "internalType": "uint256",
              "name": "stake",
              "type": "uint256"
            },
            {
              "internalType": "uint256",
              "name": "unstakeDelaySec",
              "type": "uint256"
            }
          ],
          "internalType": "struct IStakeManager.StakeInfo",
          "name": "senderInfo",
          "type": "tuple"
        },
        {
          "components": [
            {
              "internalType": "uint256",
              "name": "stake",
              "type": "uint256"
            },
            {
              "internalType": "uint256",
              "name": "unstakeDelaySec",
              "type": "uint256"
            }
          ],
          "internalType": "struct IStakeManager.StakeInfo",
          "name": "factoryInfo",
          "type": "tuple"
        },
        {
          "components": [
            {
              "internalType": "uint256",
              "name": "stake",
              "type": "uint256"
            },
            {
              "internalType": "uint256",
              "name": "unstakeDelaySec",
              "type": "uint256"
            }
          ],
          "internalType": "struct IStakeManager.StakeInfo",
          "name": "paymasterInfo",
          "type": "tuple"
        }
      ],
      "name": "ValidationResult",
      "type": "error"
    },
    {
      "inputs": [
        {
          "components": [
            {
              "internalType": "uint256",
              "name": "preOpGas",
              "type": "uint256"
            },
            {
              "internalType": "uint256",
              "name": "prefund",
              "type": "uint256"
            },
            {
              "internalType": "bool",
              "name": "sigFailed",
              "type": "bool"
            },
            {
              "internalType": "uint64",
              "name": "validAfter",
              "type": "uint64"
            },
            {
              "internalType": "uint64",
              "name": "validUntil",
              "type": "uint64"
            },
            {
              "internalType": "bytes",
              "name": "paymasterContext",
              "type": "bytes"
            }
          ],
          "internalType": "struct IEntryPoint.ReturnInfo",
          "name": "returnInfo",
          "type": "tuple"
        },
        {
          "components": [
            {
              "internalType": "uint256",
              "name": "stake",
              "type": "uint256"
            },
            {
              "internalType": "uint256",
              "name": "unstakeDelaySec",
              "type": "uint256"
            }
          ],
          "internalType": "struct IStakeManager.StakeInfo",
          "name": "senderInfo",
          "type": "tuple"
        },
        {
          "components": [
            {
              "internalType": "uint256",
              "name": "stake",
              "type": "uint256"
            },
            {
              "internalType": "uint256",
              "name": "unstakeDelaySec",
              "type": "uint256"
            }
          ],
          "internalType": "struct IStakeManager.StakeInfo",
          "name": "factoryInfo",
          "type": "tuple"
        },
        {
          "components": [
            {
              "internalType": "uint256",
              "name": "stake",
              "type": "uint256"
            },
            {
              "internalType": "uint256",
              "name": "unstakeDelaySec",
              "type": "uint256"
            }
          ],
          "internalType": "struct IStakeManager.StakeInfo",
          "name": "paymasterInfo",
          "type": "tuple"
        },
        {
          "components": [
            {
              "internalType": "address",
              "name": "actualAggregator",
              "type": "address"
            },
            {
              "components": [
                {
                  "internalType": "uint256",
                  "name": "stake",
                  "type": "uint256"
                },
                {
                  "internalType": "uint256",
                  "name": "unstakeDelaySec",
                  "type": "uint256"
                }
              ],
              "internalType": "struct IStakeManager.StakeInfo",
              "name": "stakeInfo",
              "type": "tuple"
            }
          ],
          "internalType": "struct IEntryPoint.AggregatorStakeInfo",
          "name": "aggregatorInfo",
          "type": "tuple"
        }
      ],
      "name": "ValidationResultWithAggregation",
      "type": "error"
    },
    {
      "anonymous": false,
      "inputs": [
        {
          "indexed": true,
          "internalType": "bytes32",
          "name": "userOpHash",
          "type": "bytes32"
        },
        {
          "indexed": true,
          "internalType": "address",
          "name": "sender",
          "type": "address"
        },
        {
          "indexed": false,
          "internalType": "address",
          "name": "factory",
          "type": "address"
        },
        {
          "indexed": false,
          "internalType": "address",
          "name": "paymaster",
          "type": "address"
        }
      ],
      "name": "AccountDeployed",
      "type": "event"
    },
    {
      "anonymous": false,
      "inputs": [
        {
          "indexed": true,
          "internalType": "address",
          "name": "account",
          "type": "address"
        },
        {
          "indexed": false,
          "internalType": "uint256",
          "name": "totalDeposit",
          "type": "uint256"
        }
      ],
      "name": "Deposited",
      "type": "event"
    },
    {
      "anonymous": false,
      "inputs": [
        {
          "indexed": false,
          "internalType": "address",
          "name": "aggregator",
          "type": "address"
        }
      ],
      "name": "SignatureAggregatorChanged",
      "type": "event"
    },
    {
      "anonymous": false,
      "inputs": [
        {
          "indexed": true,
          "internalType": "address",
          "name": "account",
          "type": "address"
        },
        {
          "indexed": false,
          "internalType": "uint256",
          "name": "totalStaked",
          "type": "uint256"
        },
        {
          "indexed": false,
          "internalType": "uint256",
          "name": "withdrawTime",
          "type": "uint256"
        }
      ],
      "name": "StakeLocked",
      "type": "event"
    },
    {
      "anonymous": false,
      "inputs": [
        {
          "indexed": true,
          "internalType": "address",
          "name": "account",
          "type": "address"
        },
        {
          "indexed": false,
          "internalType": "uint256",
          "name": "withdrawTime",
          "type": "uint256"
        }
      ],
      "name": "StakeUnlocked",
      "type": "event"
    },
    {
      "anonymous": false,
      "inputs": [
        {
          "indexed": true,
          "internalType": "address",
          "name": "account",
          "type": "address"
        },
        {
          "indexed": false,
          "internalType": "address",
          "name": "withdrawAddress",
          "type": "address"
        },
        {
          "indexed": false,
          "internalType": "uint256",
          "name": "amount",
          "type": "uint256"
        }
      ],
      "name": "StakeWithdrawn",
      "type": "event"
    },
    {
      "anonymous": false,
      "inputs": [
        {
          "indexed": true,
          "internalType": "bytes32",
          "name": "userOpHash",
          "type": "bytes32"
        },
        {
          "indexed": true,
          "internalType": "address",
          "name": "sender",
          "type": "address"
        },
        {
          "indexed": true,
          "internalType": "address",
          "name": "paymaster",
          "type": "address"
        },
        {
          "indexed": false,
          "internalType": "uint256",
          "name": "nonce",
          "type": "uint256"
        },
        {
          "indexed": false,
          "internalType": "bool",
          "name": "success",
          "type": "bool"
        },
        {
          "indexed": false,
          "internalType": "uint256",
          "name": "actualGasCost",
          "type": "uint256"
        },
        {
          "indexed": false,
          "internalType": "uint256",
          "name": "actualGasUsed",
          "type": "uint256"
        }
      ],
      "name": "UserOperationEvent",
      "type": "event"
    },
    {
      "anonymous": false,
      "inputs": [
        {
          "indexed": true,
          "internalType": "bytes32",
          "name": "userOpHash",
          "type": "bytes32"
        },
        {
          "indexed": true,
          "internalType": "address",
          "name": "sender",
          "type": "address"
        },
        {
          "indexed": false,
          "internalType": "uint256",
          "name": "nonce",
          "type": "uint256"
        },
        {
          "indexed": false,
          "internalType": "bytes",
          "name": "revertReason",
          "type": "bytes"
        }
      ],
      "name": "UserOperationRevertReason",
      "type": "event"
    },
    {
      "anonymous": false,
      "inputs": [
        {
          "indexed": true,
          "internalType": "address",
          "name": "account",
          "type": "address"
        },
        {
          "indexed": false,
          "internalType": "address",
          "name": "withdrawAddress",
          "type": "address"
        },
        {
          "indexed": false,
          "internalType": "uint256",
          "name": "amount",
          "type": "uint256"
        }
      ],
      "name": "Withdrawn",
      "type": "event"
    },
    {
      "inputs": [],
      "name": "SIG_VALIDATION_FAILED",
      "outputs": [
        {
          "internalType": "uint256",
          "name": "",
          "type": "uint256"
        }
      ],
      "stateMutability": "view",
      "type": "function"
    },
    {
      "inputs": [
        {
          "internalType": "uint32",
          "name": "_unstakeDelaySec",
          "type": "uint32"
        }
      ],
      "name": "addStake",
      "outputs": [],
      "stateMutability": "payable",
      "type": "function"
    },
    {
      "inputs": [
        {
          "internalType": "address",
          "name": "account",
          "type": "address"
        }
      ],
      "name": "balanceOf",
      "outputs": [
        {
          "internalType": "uint256",
          "name": "",
          "type": "uint256"
        }
      ],
      "stateMutability": "view",
      "type": "function"
    },
    {
      "inputs": [
        {
          "internalType": "address",
          "name": "account",
          "type": "address"
        }
      ],
      "name": "depositTo",
      "outputs": [],
      "stateMutability": "payable",
      "type": "function"
    },
    {
      "inputs": [
        {
          "internalType": "address",
          "name": "",
          "type": "address"
        }
      ],
      "name": "deposits",
      "outputs": [
        {
          "internalType": "uint112",
          "name": "deposit",
          "type": "uint112"
        },
        {
          "internalType": "bool",
          "name": "staked",
          "type": "bool"
        },
        {
          "internalType": "uint112",
          "name": "stake",
          "type": "uint112"
        },
        {
          "internalType": "uint32",
          "name": "unstakeDelaySec",
          "type": "uint32"
        },
        {
          "internalType": "uint64",
          "name": "withdrawTime",
          "type": "uint64"
        }
      ],
      "stateMutability": "view",
      "type": "function"
    },
    {
      "inputs": [
        {
          "internalType": "address",
          "name": "account",
          "type": "address"
        }
      ],
      "name": "getDepositInfo",
      "outputs": [
        {
          "components": [
            {
              "internalType": "uint112",
              "name": "deposit",
              "type": "uint112"
            },
            {
              "internalType": "bool",
              "name": "staked",
              "type": "bool"
            },
            {
              "internalType": "uint112",
              "name": "stake",
              "type": "uint112"
            },
            {
              "internalType": "uint32",
              "name": "unstakeDelaySec",
              "type": "uint32"
            },
            {
              "internalType": "uint64",
              "name": "withdrawTime",
              "type": "uint64"
            }
          ],
          "internalType": "struct IStakeManager.DepositInfo",
          "name": "info",
          "type": "tuple"
        }
      ],
      "stateMutability": "view",
      "type": "function"
    },
    {
      "inputs": [
        {
          "internalType": "bytes",
          "name": "initCode",
          "type": "bytes"
        }
      ],
      "name": "getSenderAddress",
      "outputs": [],
      "stateMutability": "nonpayable",
      "type": "function"
    },
    {
      "inputs": [
        {
          "components": [
            {
              "internalType": "address",
              "name": "sender",
              "type": "address"
            },
            {
              "internalType": "uint256",
              "name": "nonce",
              "type": "uint256"
            },
            {
              "internalType": "bytes",
              "name": "initCode",
              "type": "bytes"
            },
            {
              "internalType": "bytes",
              "name": "callData",
              "type": "bytes"
            },
            {
              "internalType": "uint256",
              "name": "callGasLimit",
              "type": "uint256"
            },
            {
              "internalType": "uint256",
              "name": "verificationGasLimit",
              "type": "uint256"
            },
            {
              "internalType": "uint256",
              "name": "preVerificationGas",
              "type": "uint256"
            },
            {
              "internalType": "uint256",
              "name": "maxFeePerGas",
              "type": "uint256"
            },
            {
              "internalType": "uint256",
              "name": "maxPriorityFeePerGas",
              "type": "uint256"
            },
            {
              "internalType": "bytes",
              "name": "paymasterAndData",
              "type": "bytes"
            },
            {
              "internalType": "bytes",
              "name": "signature",
              "type": "bytes"
            }
          ],
          "internalType": "struct UserOperation",
          "name": "userOp",
          "type": "tuple"
        }
      ],
      "name": "getUserOpHash",
      "outputs": [
        {
          "internalType": "bytes32",
          "name": "",
          "type": "bytes32"
        }
      ],
      "stateMutability": "view",
      "type": "function"
    },
    {
      "inputs": [
        {
          "components": [
            {
              "components": [
                {
                  "internalType": "address",
                  "name": "sender",
                  "type": "address"
                },
                {
                  "internalType": "uint256",
                  "name": "nonce",
                  "type": "uint256"
                },
                {
                  "internalType": "bytes",
                  "name": "initCode",
                  "type": "bytes"
                },
                {
                  "internalType": "bytes",
                  "name": "callData",
                  "type": "bytes"
                },
                {
                  "internalType": "uint256",
                  "name": "callGasLimit",
                  "type": "uint256"
                },
                {
                  "internalType": "uint256",
                  "name": "verificationGasLimit",
                  "type": "uint256"
                },
                {
                  "internalType": "uint256",
                  "name": "preVerificationGas",
                  "type": "uint256"
                },
                {
                  "internalType": "uint256",
                  "name": "maxFeePerGas",
                  "type": "uint256"
                },
                {
                  "internalType": "uint256",
                  "name": "maxPriorityFeePerGas",
                  "type": "uint256"
                },
                {
                  "internalType": "bytes",
                  "name": "paymasterAndData",
                  "type": "bytes"
                },
                {
                  "internalType": "bytes",
                  "name": "signature",
                  "type": "bytes"
                }
              ],
              "internalType": "struct UserOperation[]",
              "name": "userOps",
              "type": "tuple[]"
            },
            {
              "internalType": "contract IAggregator",
              "name": "aggregator",
              "type": "address"
            },
            {
              "internalType": "bytes",
              "name": "signature",
              "type": "bytes"
            }
          ],
          "internalType": "struct IEntryPoint.UserOpsPerAggregator[]",
          "name": "opsPerAggregator",
          "type": "tuple[]"
        },
        {
          "internalType": "address payable",
          "name": "beneficiary",
          "type": "address"
        }
      ],
      "name": "handleAggregatedOps",
      "outputs": [],
      "stateMutability": "nonpayable",
      "type": "function"
    },
    {
      "inputs": [
        {
          "components": [
            {
              "internalType": "address",
              "name": "sender",
              "type": "address"
            },
            {
              "internalType": "uint256",
              "name": "nonce",
              "type": "uint256"
            },
            {
              "internalType": "bytes",
              "name": "initCode",
              "type": "bytes"
            },
            {
              "internalType": "bytes",
              "name": "callData",
              "type": "bytes"
            },
            {
              "internalType": "uint256",
              "name": "callGasLimit",
              "type": "uint256"
            },
            {
              "internalType": "uint256",
              "name": "verificationGasLimit",
              "type": "uint256"
            },
            {
              "internalType": "uint256",
              "name": "preVerificationGas",
              "type": "uint256"
            },
            {
              "internalType": "uint256",
              "name": "maxFeePerGas",
              "type": "uint256"
            },
            {
              "internalType": "uint256",
              "name": "maxPriorityFeePerGas",
              "type": "uint256"
            },
            {
              "internalType": "bytes",
              "name": "paymasterAndData",
              "type": "bytes"
            },
            {
              "internalType": "bytes",
              "name": "signature",
              "type": "bytes"
            }
          ],
          "internalType": "struct UserOperation[]",
          "name": "ops",
          "type": "tuple[]"
        },
        {
          "internalType": "address payable",
          "name": "beneficiary",
          "type": "address"
        }
      ],
      "name": "handleOps",
      "outputs": [],
      "stateMutability": "nonpayable",
      "type": "function"
    },
    {
      "inputs": [
        {
          "internalType": "bytes",
          "name": "callData",
          "type": "bytes"
        },
        {
          "components": [
            {
              "components": [
                {
                  "internalType": "address",
                  "name": "sender",
                  "type": "address"
                },
                {
                  "internalType": "uint256",
                  "name": "nonce",
                  "type": "uint256"
                },
                {
                  "internalType": "uint256",
                  "name": "callGasLimit",
                  "type": "uint256"
                },
                {
                  "internalType": "uint256",
                  "name": "verificationGasLimit",
                  "type": "uint256"
                },
                {
                  "internalType": "uint256",
                  "name": "preVerificationGas",
                  "type": "uint256"
                },
                {
                  "internalType": "address",
                  "name": "paymaster",
                  "type": "address"
                },
                {
                  "internalType": "uint256",
                  "name": "maxFeePerGas",
                  "type": "uint256"
                },
                {
                  "internalType": "uint256",
                  "name": "maxPriorityFeePerGas",
                  "type": "uint256"
                }
              ],
              "internalType": "struct EntryPoint.MemoryUserOp",
              "name": "mUserOp",
              "type": "tuple"
            },
            {
              "internalType": "bytes32",
              "name": "userOpHash",
              "type": "bytes32"
            },
            {
              "internalType": "uint256",
              "name": "prefund",
              "type": "uint256"
            },
            {
              "internalType": "uint256",
              "name": "contextOffset",
              "type": "uint256"
            },
            {
              "internalType": "uint256",
              "name": "preOpGas",
              "type": "uint256"
            }
          ],
          "internalType": "struct EntryPoint.UserOpInfo",
          "name": "opInfo",
          "type": "tuple"
        },
        {
          "internalType": "bytes",
          "name": "context",
          "type": "bytes"
        }
      ],
      "name": "innerHandleOp",
      "outputs": [
        {
          "internalType": "uint256",
          "name": "actualGasCost",
          "type": "uint256"
        }
      ],
      "stateMutability": "nonpayable",
      "type": "function"
    },
    {
      "inputs": [
        {
          "components": [
            {
              "internalType": "address",
              "name": "sender",
              "type": "address"
            },
            {
              "internalType": "uint256",
              "name": "nonce",
              "type": "uint256"
            },
            {
              "internalType": "bytes",
              "name": "initCode",
              "type": "bytes"
            },
            {
              "internalType": "bytes",
              "name": "callData",
              "type": "bytes"
            },
            {
              "internalType": "uint256",
              "name": "callGasLimit",
              "type": "uint256"
            },
            {
              "internalType": "uint256",
              "name": "verificationGasLimit",
              "type": "uint256"
            },
            {
              "internalType": "uint256",
              "name": "preVerificationGas",
              "type": "uint256"
            },
            {
              "internalType": "uint256",
              "name": "maxFeePerGas",
              "type": "uint256"
            },
            {
              "internalType": "uint256",
              "name": "maxPriorityFeePerGas",
              "type": "uint256"
            },
            {
              "internalType": "bytes",
              "name": "paymasterAndData",
              "type": "bytes"
            },
            {
              "internalType": "bytes",
              "name": "signature",
              "type": "bytes"
            }
          ],
          "internalType": "struct UserOperation",
          "name": "op",
          "type": "tuple"
        }
      ],
      "name": "simulateHandleOp",
      "outputs": [],
      "stateMutability": "nonpayable",
      "type": "function"
    },
    {
      "inputs": [
        {
          "components": [
            {
              "internalType": "address",
              "name": "sender",
              "type": "address"
            },
            {
              "internalType": "uint256",
              "name": "nonce",
              "type": "uint256"
            },
            {
              "internalType": "bytes",
              "name": "initCode",
              "type": "bytes"
            },
            {
              "internalType": "bytes",
              "name": "callData",
              "type": "bytes"
            },
            {
              "internalType": "uint256",
              "name": "callGasLimit",
              "type": "uint256"
            },
            {
              "internalType": "uint256",
              "name": "verificationGasLimit",
              "type": "uint256"
            },
            {
              "internalType": "uint256",
              "name": "preVerificationGas",
              "type": "uint256"
            },
            {
              "internalType": "uint256",
              "name": "maxFeePerGas",
              "type": "uint256"
            },
            {
              "internalType": "uint256",
              "name": "maxPriorityFeePerGas",
              "type": "uint256"
            },
            {
              "internalType": "bytes",
              "name": "paymasterAndData",
              "type": "bytes"
            },
            {
              "internalType": "bytes",
              "name": "signature",
              "type": "bytes"
            }
          ],
          "internalType": "struct UserOperation",
          "name": "userOp",
          "type": "tuple"
        }
      ],
      "name": "simulateValidation",
      "outputs": [],
      "stateMutability": "nonpayable",
      "type": "function"
    },
    {
      "inputs": [],
      "name": "unlockStake",
      "outputs": [],
      "stateMutability": "nonpayable",
      "type": "function"
    },
    {
      "inputs": [
        {
          "internalType": "address payable",
          "name": "withdrawAddress",
          "type": "address"
        }
      ],
      "name": "withdrawStake",
      "outputs": [],
      "stateMutability": "nonpayable",
      "type": "function"
    },
    {
      "inputs": [
        {
          "internalType": "address payable",
          "name": "withdrawAddress",
          "type": "address"
        },
        {
          "internalType": "uint256",
          "name": "withdrawAmount",
          "type": "uint256"
        }
      ],
      "name": "withdrawTo",
      "outputs": [],
      "stateMutability": "nonpayable",
      "type": "function"
    },
    {
      "stateMutability": "payable",
      "type": "receive"
    }
  ],
  "transactionHash": "0xa2a44f4aa444a29791fef62061e4f041c5eec5318d0c6b31eb3dfd1d58167d57",
  "args": [],
  "numDeployments": 1,
  "solcInputHash": "a3a92807ed7bf04cdafea2919355e031",
  "bytecode": "0x60a08060405234620000845761022c8181016001600160401b038111838210176200006e57829162005c75833903906000f080156200006257608052604051615beb90816200008a823960805181818161103401528181613ede01526141fb0152f35b6040513d6000823e3d90fd5b634e487b7160e01b600052604160045260246000fd5b600080fdfe60806040526004361015610023575b361561001957600080fd5b6100216154d9565b005b60003560e01c80630396cb60146101635780631d7327561461015a5780631fad948c14610151578063205c2878146101485780634b1d7cf51461013f5780635287ce121461013657806370a082311461012d5780638f41ec5a146101245780639b249f691461011b578063a619353114610112578063b760faf914610109578063bb9fe6bf14610100578063c2077116146100f7578063c23a5cea146100ee578063ee219423146100e55763fc7e286d0361000e576100e0611889565b61000e565b506100e06116a8565b506100e061150b565b506100e0611308565b506100e0611184565b506100e0611145565b506100e0611124565b506100e0610f8c565b506100e0610f51565b506100e0610ecc565b506100e0610d76565b506100e0610a4b565b506100e06108ac565b506100e061065b565b506100e0610498565b5060207ffffffffffffffffffffffffffffffffffffffffffffffffffffffffffffffffc3601126103085760043563ffffffff8116808203610308576103037fa5ae833d0bb1dcd632d98a8b70973e8516812898e19bf27b70071ebc8dc52c01916102216101f13373ffffffffffffffffffffffffffffffffffffffff166000526000602052604060002090565b916101fd81151561563f565b61021a610211600185015463ffffffff1690565b63ffffffff1690565b11156156a4565b54926102e56dffffffffffffffffffffffffffff946102a361024834888460781c16611e6f565b96610254881515615709565b61025f81891061576e565b6102838161026b610406565b941684906dffffffffffffffffffffffffffff169052565b6001602084015287166dffffffffffffffffffffffffffff166040830152565b63ffffffff83166060820152600060808201526102e03373ffffffffffffffffffffffffffffffffffffffff166000526000602052604060002090565b6157d3565b6040805194855263ffffffff90911660208501523393918291820190565b0390a2005b600080fd5b9181601f840112156103085782359167ffffffffffffffff8311610308576020838186019501011161030857565b507f4e487b7100000000000000000000000000000000000000000000000000000000600052604160045260246000fd5b60a0810190811067ffffffffffffffff82111761038757604052565b61038f61033b565b604052565b610100810190811067ffffffffffffffff82111761038757604052565b67ffffffffffffffff811161038757604052565b90601f7fffffffffffffffffffffffffffffffffffffffffffffffffffffffffffffffe0910116810190811067ffffffffffffffff82111761038757604052565b604051906104138261036b565b565b6040519060c0820182811067ffffffffffffffff82111761038757604052565b604051906040820182811067ffffffffffffffff82111761038757604052565b73ffffffffffffffffffffffffffffffffffffffff81160361030857565b6024359061041382610455565b60c4359061041382610455565b359061041382610455565b5034610308576101c07ffffffffffffffffffffffffffffffffffffffffffffffffffffffffffffffffc3601126103085767ffffffffffffffff600435818111610308576104ea90369060040161030d565b367fffffffffffffffffffffffffffffffffffffffffffffffffffffffffffffffdc019291610180841261030857610100604051946105288661036b565b126103085760405161053981610394565b610541610473565b815260443560208201526064356040820152608435606082015260a435608082015261056b610480565b60a082015260e43560c08201526101043560e082015284526101243560208501526101443560408501526101643560608501526101843560808501526101a435928311610308576105df936105c76105cf94369060040161030d565b939092612386565b6040519081529081906020820190565b0390f35b9060407ffffffffffffffffffffffffffffffffffffffffffffffffffffffffffffffffc8301126103085760043567ffffffffffffffff9283821161030857806023830112156103085781600401359384116103085760248460051b8301011161030857602401919060243561065881610455565b90565b50346103085761066a366105e3565b6106758293926119eb565b60005b8481106106c7575060009283915b858310610697576100218585611b71565b9091936001906106bd6106ab878987611aaa565b6106b58886611a88565b519088611e7c565b0194019190610686565b6106d381839593611a88565b516106df828785611aaa565b6000915a8151926106f08482612e76565b6106f9816124ef565b6020840152608091828501519460609586820151179561073f6effffffffffffffffffffffffffffff60409889850151176101008701359060e088013517171115612a9b565b61074882612f38565b6107548188878d61313d565b9991905061076143600052565b839460a0809101918d73ffffffffffffffffffffffffffffffffffffffff61079d855173ffffffffffffffffffffffffffffffffffffffff1690565b1661088f575b50505a870390880135106107e457509260c0926107db9997959289979560019d9c9a01528601525a9003910135019082015284612770565b01929092610678565b61088b6108068d925173ffffffffffffffffffffffffffffffffffffffff1690565b92519283927efa072b000000000000000000000000000000000000000000000000000000008452600484019060a09273ffffffffffffffffffffffffffffffffffffffff91835216602082015260606040820152601e60608201527f41413430206f76657220766572696669636174696f6e4761734c696d6974000060808201520190565b0390fd5b6108a2939d508591929750898c91614873565b9a9094388d6107a3565b50346103085760407ffffffffffffffffffffffffffffffffffffffffffffffffffffffffffffffffc360112610308576004356108e881610455565b6024359060009133835282602052604083206dffffffffffffffffffffffffffff815416928383116109ed57848373ffffffffffffffffffffffffffffffffffffffff829593610990849661095761094487986109ea9c611e5a565b6dffffffffffffffffffffffffffff1690565b6dffffffffffffffffffffffffffff167fffffffffffffffffffffffffffffffffffff0000000000000000000000000000825416179055565b6040805173ffffffffffffffffffffffffffffffffffffffff831681526020810185905233917fd1c19fbcd4551a5edfb66d43d2e337c04837afda3482b42bdf569a8fccdae5fb91a2165af16109e4611b41565b50615b50565b80f35b60646040517f08c379a000000000000000000000000000000000000000000000000000000000815260206004820152601960248201527f576974686472617720616d6f756e7420746f6f206c61726765000000000000006044820152fd5b503461030857610a5a366105e3565b6000805b838210610d4757610a6f91506119eb565b6000805b848110610bb957505060008093815b818110610aca5761002186867f575ff3acadd5ab348fe1855e217e0f3678f8d767d7494c9f9fefbee2e17cca4d60405180610ac281906000602083019252565b0390a1611b71565b610b54610ad882848a612022565b7f575ff3acadd5ab348fe1855e217e0f3678f8d767d7494c9f9fefbee2e17cca4d610b4b610b24610b0b602085016120c4565b73ffffffffffffffffffffffffffffffffffffffff1690565b60405173ffffffffffffffffffffffffffffffffffffffff90911681529081906020820190565b0390a180612070565b906000915b808310610b7157505050610b6c90611fe8565b610a82565b90919497610bac610ba6610bb292610ba08c8b610b9982610b938e8b8d611aaa565b92611a88565b5191611e7c565b90611e6f565b99611fe8565b95611fe8565b9190610b59565b610bc4818688612022565b610bce8180612070565b9091610bdc602082016120c4565b73ffffffffffffffffffffffffffffffffffffffff169260005b87848210610d0157505083610c18575b50505050610c1390611fe8565b610a73565b610c3160409a97949a9996939998959289810190611c62565b8b3b15610308578b918a5193849283927fe3563a4f00000000000000000000000000000000000000000000000000000000845260049e8f850193610c7494612203565b03815a93600094fa9081610ce8575b50610cd35786517f86a9f75000000000000000000000000000000000000000000000000000000000815273ffffffffffffffffffffffffffffffffffffffff8a16818a0190815281906020010390fd5b94975092955090935091610c13388080610c06565b80610cf5610cfb926103b1565b80610f46565b38610c83565b87610d37610d29610d2f8986610d1e610d42989e610d3c98611a88565b519384918c8b611aaa565b86612c87565b50918c612770565b611fe8565b96611fe8565b610bf6565b610d6a610d7091610d62610d5c85888a612022565b80612070565b919050611e6f565b91611fe8565b90610a5e565b50346103085760207ffffffffffffffffffffffffffffffffffffffffffffffffffffffffffffffffc360112610308576105df73ffffffffffffffffffffffffffffffffffffffff600435610dca81610455565b608060409283928351610ddc8161036b565b600093818580935282602082015282878201528260608201520152168152806020522090610e6f67ffffffffffffffff6001835194610e1a8661036b565b80546dffffffffffffffffffffffffffff8082168852607082901c60ff161515602089015260789190911c1685870152015463ffffffff8116606086015260201c16608084019067ffffffffffffffff169052565b5191829182919091608067ffffffffffffffff8160a08401956dffffffffffffffffffffffffffff808251168652602082015115156020870152604082015116604086015263ffffffff6060820151166060860152015116910152565b50346103085760207ffffffffffffffffffffffffffffffffffffffffffffffffffffffffffffffffc3601126103085773ffffffffffffffffffffffffffffffffffffffff600435610f1d81610455565b16600052600060205260206dffffffffffffffffffffffffffff60406000205416604051908152f35b600091031261030857565b50346103085760007ffffffffffffffffffffffffffffffffffffffffffffffffffffffffffffffffc36011261030857602060405160018152f35b50346103085760207ffffffffffffffffffffffffffffffffffffffffffffffffffffffffffffffffc3601126103085760043567ffffffffffffffff811161030857610fde602491369060040161030d565b906110146040519283927f570e1a360000000000000000000000000000000000000000000000000000000084526004840161275f565b0360208273ffffffffffffffffffffffffffffffffffffffff92816000857f0000000000000000000000000000000000000000000000000000000000000000165af19182156110c6575b600092611096575b50604051917f6ca7b806000000000000000000000000000000000000000000000000000000008352166004820152fd5b6110b891925060203d81116110bf575b6110b081836103c5565b81019061274a565b9038611066565b503d6110a6565b6110ce611e1d565b61105e565b7ffffffffffffffffffffffffffffffffffffffffffffffffffffffffffffffffc90602082820112610308576004359167ffffffffffffffff83116103085782610160920301126103085760040190565b503461030857602061113d611138366110d3565b6124ef565b604051908152f35b5060207ffffffffffffffffffffffffffffffffffffffffffffffffffffffffffffffffc3601126103085761002160043561117f81610455565b6155d3565b5034610308576000807ffffffffffffffffffffffffffffffffffffffffffffffffffffffffffffffffc360112611305573381528060205260408120600181019063ffffffff8254169081156112a75761124261120561126a936111f56111f0855460ff9060701c1690565b61593b565b67ffffffffffffffff42166159a0565b84547fffffffffffffffffffffffffffffffffffffffff0000000000000000ffffffff16602082901b6bffffffffffffffff000000001617909455565b7fffffffffffffffffffffffffffffffffff00ffffffffffffffffffffffffffff8154169055565b60405167ffffffffffffffff91909116815233907ffa9b3c14cc825c412c9ed81b3ba365a5b459439403f18829e572ed53a4180f0a90602090a280f35b60646040517f08c379a000000000000000000000000000000000000000000000000000000000815260206004820152600a60248201527f6e6f74207374616b6564000000000000000000000000000000000000000000006044820152fd5b80fd5b503461030857611317366110d3565b61131f611968565b61133361132c8284612b00565b5090612a3e565b90915060004381525a908460206113536060830151986060810190611c62565b9061138c8a60405195869485947f1d73275600000000000000000000000000000000000000000000000000000000865260048601611d67565b038185305af18291816114db575b506114cb5750806020817fdeaddead00000000000000000000000000000000000000000000000000000000933e5114611443576113f46084956113ed6113e36080945a90611e5a565b8488015190611e6f565b9086614b88565b935b015192604051937fcd8ac2460000000000000000000000000000000000000000000000000000000085526004850152602484015267ffffffffffffffff8092166044840152166064820152fd5b835160a001516040517efa072b0000000000000000000000000000000000000000000000000000000081526000600482015273ffffffffffffffffffffffffffffffffffffffff909116602482015260606044820152600f60648201527f41413935206f7574206f66206761730000000000000000000000000000000000608482015260a490fd5b90506084955060809150936113f6565b6114fd91925060203d8111611504575b6114f581836103c5565b810190611cb3565b903861139a565b503d6114eb565b50346103085760207ffffffffffffffffffffffffffffffffffffffffffffffffffffffffffffffffc3601126103085760043561154781610455565b6109ea73ffffffffffffffffffffffffffffffffffffffff6115893373ffffffffffffffffffffffffffffffffffffffff166000526000602052604060002090565b926116456115ac61094486546dffffffffffffffffffffffffffff9060781c1690565b946115b88615156159bc565b61161d600182016115f567ffffffffffffffff6115e1835467ffffffffffffffff9060201c1690565b166115ed811515615a21565b421015615a86565b80547fffffffffffffffffffffffffffffffffffffffff000000000000000000000000169055565b7fffffff0000000000000000000000000000ffffffffffffffffffffffffffffff8154169055565b6040805173ffffffffffffffffffffffffffffffffffffffff831681526020810186905233917fb7c918e0e249f999e965cafeb6c664271b3f4317d296461500e71da39f0cbda391a2600080809581948294165af16116a2611b41565b50615aeb565b5034610308576116b7366110d3565b6117ad6116c2611968565b6116cc8184612b00565b9091926117be61176c6117006116fb60a085510173ffffffffffffffffffffffffffffffffffffffff90511690565b615484565b9461176661173e61172a6116fb875173ffffffffffffffffffffffffffffffffffffffff90511690565b9a611733612581565b506040810190611c62565b90600060148310611881575061175a6116fb92611760926125b9565b906125c7565b60601c90565b96612a3e565b91979061179c608086015199606060408801519701519661178b610415565b9b8c5260208c0152151560408b0152565b67ffffffffffffffff166060890152565b67ffffffffffffffff166080870152565b60a085015273ffffffffffffffffffffffffffffffffffffffff8116611815575061088b916040519485947ff04297e9000000000000000000000000000000000000000000000000000000008652600486016126f0565b9061088b9261182383615484565b61184a61182e610435565b73ffffffffffffffffffffffffffffffffffffffff9095168552565b60208401526040519586957f356877a30000000000000000000000000000000000000000000000000000000087526004870161265e565b915050615484565b50346103085760207ffffffffffffffffffffffffffffffffffffffffffffffffffffffffffffffffc3601126103085773ffffffffffffffffffffffffffffffffffffffff6004356118da81610455565b16600052600060205260a0604060002067ffffffffffffffff60018254920154604051926dffffffffffffffffffffffffffff90818116855260ff8160701c161515602086015260781c16604084015263ffffffff8116606084015260201c166080820152f35b60209067ffffffffffffffff811161195b575b60051b0190565b61196361033b565b611954565b604051906119758261036b565b604051608083610100830167ffffffffffffffff8111848210176119de575b60405260009283815283602082015283604082015283606082015283838201528360a08201528360c08201528360e082015281528260208201528260408201528260608201520152565b6119e661033b565b611994565b906119f582611941565b611a0260405191826103c5565b8281527fffffffffffffffffffffffffffffffffffffffffffffffffffffffffffffffe0611a308294611941565b019060005b828110611a4157505050565b602090611a4c611968565b82828501015201611a35565b507f4e487b7100000000000000000000000000000000000000000000000000000000600052603260045260246000fd5b6020918151811015611a9d575b60051b010190565b611aa5611a58565b611a95565b9190811015611aeb575b60051b810135907ffffffffffffffffffffffffffffffffffffffffffffffffffffffffffffffea181360301821215610308570190565b611af3611a58565b611ab4565b7fffffffffffffffffffffffffffffffffffffffffffffffffffffffffffffffe0601f60209267ffffffffffffffff8111611b34575b01160190565b611b3c61033b565b611b2e565b3d15611b6c573d90611b5282611af8565b91611b6060405193846103c5565b82523d6000602084013e565b606090565b73ffffffffffffffffffffffffffffffffffffffff168015611c0457600080809381935af1611b9e611b41565b5015611ba657565b60646040517f08c379a000000000000000000000000000000000000000000000000000000000815260206004820152601f60248201527f41413931206661696c65642073656e6420746f2062656e6566696369617279006044820152fd5b60646040517f08c379a000000000000000000000000000000000000000000000000000000000815260206004820152601860248201527f4141393020696e76616c69642062656e656669636961727900000000000000006044820152fd5b9035907fffffffffffffffffffffffffffffffffffffffffffffffffffffffffffffffe181360301821215610308570180359067ffffffffffffffff82116103085760200191813603831361030857565b90816020910312610308575190565b601f82602094937fffffffffffffffffffffffffffffffffffffffffffffffffffffffffffffffe0938186528686013760008582860101520116010190565b60005b838110611d145750506000910152565b8181015183820152602001611d04565b907fffffffffffffffffffffffffffffffffffffffffffffffffffffffffffffffe0601f602093611d6081518092818752878088019101611d01565b0116010190565b90611d8160809161065896946101c0808652850191611cc2565b9360e0815173ffffffffffffffffffffffffffffffffffffffff80825116602087015260208201516040870152604082015160608701526060820151858701528482015160a087015260a08201511660c086015260c081015182860152015161010084015260208101516101208401526040810151610140840152606081015161016084015201516101808201526101a0818403910152611d24565b506040513d6000823e3d90fd5b507f4e487b7100000000000000000000000000000000000000000000000000000000600052601160045260246000fd5b91908203918211611e6757565b610413611e2a565b91908201809211611e6757565b909291925a846020611e976060830151946060810190611c62565b90611ed08660405195869485947f1d73275600000000000000000000000000000000000000000000000000000000865260048601611d67565b03816000305af160009181611fc8575b50611fc1575060206000803e7fdeaddead0000000000000000000000000000000000000000000000000000000060005114611f395793611f33611f2861065895965a90611e5a565b608083015190611e6f565b92614eb9565b845160a001516040517efa072b0000000000000000000000000000000000000000000000000000000081526004810185905273ffffffffffffffffffffffffffffffffffffffff909116602482015260606044820152600f60648201527f41413935206f7574206f66206761730000000000000000000000000000000000608482015260a490fd5b9450505050565b611fe191925060203d8111611504576114f581836103c5565b9038611ee0565b6001907fffffffffffffffffffffffffffffffffffffffffffffffffffffffffffffffff8114612016570190565b61201e611e2a565b0190565b9190811015612063575b60051b810135907fffffffffffffffffffffffffffffffffffffffffffffffffffffffffffffffa181360301821215610308570190565b61206b611a58565b61202c565b9035907fffffffffffffffffffffffffffffffffffffffffffffffffffffffffffffffe181360301821215610308570180359067ffffffffffffffff821161030857602001918160051b3603831361030857565b3561065881610455565b90357fffffffffffffffffffffffffffffffffffffffffffffffffffffffffffffffe18236030181121561030857016020813591019167ffffffffffffffff821161030857813603831361030857565b610658916121498161212f8461048d565b73ffffffffffffffffffffffffffffffffffffffff169052565b602082013560208201526121e461219561217a61216960408601866120ce565b610160806040880152860191611cc2565b61218760608601866120ce565b908583036060870152611cc2565b6080840135608084015260a084013560a084015260c084013560c084015260e084013560e084015261010080850135908401526101206121d7818601866120ce565b9185840390860152611cc2565b916121f561014091828101906120ce565b929091818503910152611cc2565b949391929083604087016040885252606086019360608160051b8801019482600090815b8483106122465750505050505084602061065895968503910152611cc2565b9091929394977fffffffffffffffffffffffffffffffffffffffffffffffffffffffffffffffa08b820301855288357ffffffffffffffffffffffffffffffffffffffffffffffffffffffffffffffea1843603018112156122c157600191846122af920161211e565b98602090810196950193019190612227565b8280fd5b156122cc57565b60646040517f08c379a000000000000000000000000000000000000000000000000000000000815260206004820152601760248201527f4141393220696e7465726e616c2063616c6c206f6e6c790000000000000000006044820152fd5b908092918237016000815290565b604090610658939281528160208201520190611d24565b92919261235b82611af8565b9161236960405193846103c5565b829481845281830111610308578281602093846000960137010152565b93929190915a6123973033146122c5565b82516040810151965a61138860608401518a0101116124c557610658976000968792816123e0575b5050505050906123da915a900360808401510194369161234f565b9161517a565b9083809392612403875173ffffffffffffffffffffffffffffffffffffffff1690565b906124136040518095819361232a565b0393f19061241f611b41565b911561242f575b808087926123bf565b6123da93929550815161244a575b5050600193909138612426565b7f1c4fada7374c0a9ee8841fc38afe82932dc0f8e69012e927f061a8bae611a20173ffffffffffffffffffffffffffffffffffffffff6020870151926124bb60206124a9835173ffffffffffffffffffffffffffffffffffffffff1690565b92015195604051938493169683612338565b0390a3388061243d565b7fdeaddead0000000000000000000000000000000000000000000000000000000060005260206000fd5b806124fe610140820182611c62565b50037fffffffffffffffffffffffffffffffffffffffffffffffffffffffffffffffe081016040519182016040528082526020820192833751902060405160208101918252306040820152466060820152606081526080810181811067ffffffffffffffff821117612574575b60405251902090565b61257c61033b565b61256b565b604051906040820182811067ffffffffffffffff8211176125ac575b60405260006020838281520152565b6125b461033b565b61259d565b906014116103085790601490565b7fffffffffffffffffffffffffffffffffffffffff00000000000000000000000090358181169392601481106125fc57505050565b60140360031b82901b16169150565b9060c060a061065893805184526020810151602085015260408101511515604085015267ffffffffffffffff80606083015116606086015260808201511660808501520151918160a08201520190611d24565b92946126bf610413956126ad61010095999861269b612687602097610140808c528b019061260b565b9b878a019060208091805184520151910152565b80516060890152602001516080880152565b805160a08701526020015160c0860152565b73ffffffffffffffffffffffffffffffffffffffff81511660e0850152015191019060208091805184520151910152565b6127396104139461272761271260a0959998969960e0865260e086019061260b565b98602085019060208091805184520151910152565b80516060840152602001516080830152565b019060208091805184520151910152565b90816020910312610308575161065881610455565b916020610658938181520191611cc2565b92909161277c906129a6565b9061293a576128ce5761278e906129a6565b906128475761279b575050565b5160a001516040517efa072b000000000000000000000000000000000000000000000000000000008152600481019290925273ffffffffffffffffffffffffffffffffffffffff16602482015260606044820152602160648201527f41413332207061796d61737465722065787069726564206f72206e6f7420647560848201527f650000000000000000000000000000000000000000000000000000000000000060a482015260c490fd5b505160a001516040517efa072b000000000000000000000000000000000000000000000000000000008152600481019290925273ffffffffffffffffffffffffffffffffffffffff16602482015260606044820152601460648201527f41413334207369676e6174757265206572726f72000000000000000000000000608482015260a490fd5b6040517efa072b000000000000000000000000000000000000000000000000000000008152600481018490526000602482015260606044820152601760648201527f414132322065787069726564206f72206e6f7420647565000000000000000000608482015260a490fd5b6040517efa072b000000000000000000000000000000000000000000000000000000008152600481018590526000602482015260606044820152601460648201527f41413234207369676e6174757265206572726f72000000000000000000000000608482015260a490fd5b80156129da576129b5906129e3565b92919267ffffffffffffffff80911642119182156129d257505090565b164210919050565b50600090600090565b9060ff82161515918060081c7fffffffffffffffffffffffffffffffffffffffffffffffffffffffffffffffff8101908113600116612a31575b67ffffffffffffffff9081169160481c1691565b612a39611e2a565b612a1d565b612a47906129e3565b91939082612a5582956129e3565b93918891989115612a93575b509667ffffffffffffffff9182808316911610612a8b575b50808316911611612a875750565b9150565b955038612a79565b905038612a61565b15612aa257565b60646040517f08c379a000000000000000000000000000000000000000000000000000000000815260206004820152601860248201527f41413934206761732076616c756573206f766572666c6f7700000000000000006044820152fd5b91906000915a91805194612b148682612e76565b612b1d816124ef565b6020830152612b5b6effffffffffffffffffffffffffffff60808801516060890151176040890151176101008401359060e085013517171115612a9b565b612b6486612f38565b93612b7085848461348c565b9891969096612b7e43600052565b60a0606093019073ffffffffffffffffffffffffffffffffffffffff612bb8835173ffffffffffffffffffffffffffffffffffffffff1690565b16612c6d575b505a840360a086013510612bea5750604085015260608401526080919060c0905a900391013501910152565b516040517efa072b0000000000000000000000000000000000000000000000000000000081526000600482015273ffffffffffffffffffffffffffffffffffffffff909116602482015260606044820152601e60648201527f41413430206f76657220766572696669636174696f6e4761734c696d69740000608482015260a490fd5b90925081612c7e9299508686614589565b97909138612bbe565b91939092936000935a8251612c9c8184612e76565b612ca5836124ef565b6020850152612ce36effffffffffffffffffffffffffffff60808301516060840151176040840151176101008601359060e087013517171115612a9b565b612cf9612cef82612f38565b809986868a613976565b9991979097612d0743600052565b60a0606094019073ffffffffffffffffffffffffffffffffffffffff612d41835173ffffffffffffffffffffffffffffffffffffffff1690565b16612df6575b505a850360a087013510612d74575050604085015260608401526080919060c0905a900391013501910152565b516040517efa072b000000000000000000000000000000000000000000000000000000008152600481019290925273ffffffffffffffffffffffffffffffffffffffff16602482015260606044820152601e60648201527f41413430206f76657220766572696669636174696f6e4761734c696d69740000608482015260a490fd5b909350819950828787612e0894614873565b98909238612d47565b15612e1857565b60646040517f08c379a000000000000000000000000000000000000000000000000000000000815260206004820152601d60248201527f4141393320696e76616c6964207061796d6173746572416e64446174610000006044820152fd5b612ee890612ea0612e86826120c4565b73ffffffffffffffffffffffffffffffffffffffff168452565b602081013560208401526080810135604084015260a0810135606084015260c0810135608084015260e081013560c084015261010081013560e0840152610120810190611c62565b908115612f2d57612f1261176061175a8460a094612f0d601461041399981015612e11565b6125b9565b73ffffffffffffffffffffffffffffffffffffffff16910152565b505060a06000910152565b60a081015173ffffffffffffffffffffffffffffffffffffffff1615612f7e57612f7a60035b60ff60408401519116606084015102016080830151019161545c565b0290565b612f7a6001612f5e565b612fa06060929594939560808352608083019061211e565b946020820152600060408201520152565b90606092959493612fdf73ffffffffffffffffffffffffffffffffffffffff9260808552608085019061211e565b9660208401521660408201520152565b60009060033d11612ffc57565b905060046000803e60005160e01c90565b600060443d10610658576040517ffffffffffffffffffffffffffffffffffffffffffffffffffffffffffffffffc91823d016004833e815167ffffffffffffffff918282113d60248401111761308957818401948551938411613091573d850101602084870101116130895750610658929101602001906103c5565b949350505050565b50949350505050565b9060606106589260008152600060208201528160408201520190611d24565b60609061065893928152600060208201528160408201520190611d24565b60609073ffffffffffffffffffffffffffffffffffffffff6106589493600083521660208201528160408201520190611d24565b73ffffffffffffffffffffffffffffffffffffffff610658949360609383521660208201528160408201520190611d24565b600093849384935a94613208602084519361316c855173ffffffffffffffffffffffffffffffffffffffff1690565b9561318561317d6040840184611c62565b90838c614170565b84918573ffffffffffffffffffffffffffffffffffffffff92836131c060a08b015173ffffffffffffffffffffffffffffffffffffffff1690565b16159889613424575b60600151908601516040517f0825d1fc000000000000000000000000000000000000000000000000000000008152978896879586939060048501612f88565b03938a1690f1829181613404575b506133fb5750600190613227612fef565b6308c379a0146133b0575b50613344575b613246575b5050505a900392565b6132709073ffffffffffffffffffffffffffffffffffffffff166000526000602052604060002090565b9161328c61094484546dffffffffffffffffffffffffffff1690565b908183116132d7575082547fffffffffffffffffffffffffffffffffffff0000000000000000000000000000169190036dffffffffffffffffffffffffffff1617905538808061323d565b6040517efa072b00000000000000000000000000000000000000000000000000000000815260048101919091526000602482015260606044820152601760648201527f41413231206469646e2774207061792070726566756e64000000000000000000608482015260a490fd5b6040517efa072b000000000000000000000000000000000000000000000000000000008152600481018590526000602482015260606044820152601660648201527f4141323320726576657274656420286f72204f4f472900000000000000000000608482015260a490fd5b6133b861300d565b90816133c45750613232565b86905061088b6040519283927efa072b000000000000000000000000000000000000000000000000000000008452600484016130b9565b96506132389050565b61341d91925060203d8111611504576114f581836103c5565b9038613216565b945061346a6109446134568c73ffffffffffffffffffffffffffffffffffffffff166000526000602052604060002090565b546dffffffffffffffffffffffffffff1690565b8b8111156134815750856060835b969150506131c9565b606087918d03613478565b9190916000915a918451906134b5825173ffffffffffffffffffffffffffffffffffffffff1690565b916134cd6134c66040840184611c62565b9089613e56565b6134d643600052565b823b1561390a5760a08101805173ffffffffffffffffffffffffffffffffffffffff168015159081613900575b506138945773ffffffffffffffffffffffffffffffffffffffff8416926040517f3ad59dbc000000000000000000000000000000000000000000000000000000008152602081600481885afa60009181613873575b5061386b57506000986000915b73ffffffffffffffffffffffffffffffffffffffff61359a6000955173ffffffffffffffffffffffffffffffffffffffff1690565b1615958661380f575b600090602060608197980151940151926135ec604051988997889687947f0825d1fc00000000000000000000000000000000000000000000000000000000865260048601612fb1565b0393f1600091816137ee575b506137e757506001613608612fef565b6308c379a01461379f575b613733575b613625575b50505a900392565b61364f9073ffffffffffffffffffffffffffffffffffffffff166000526000602052604060002090565b61366a61094482546dffffffffffffffffffffffffffff1690565b8083116136c7576136c0926dffffffffffffffffffffffffffff9103166dffffffffffffffffffffffffffff167fffffffffffffffffffffffffffffffffffff0000000000000000000000000000825416179055565b388061361d565b6040517efa072b000000000000000000000000000000000000000000000000000000008152600060048201819052602482015260606044820152601760648201527f41413231206469646e2774207061792070726566756e64000000000000000000608482015260a490fd5b6040517efa072b000000000000000000000000000000000000000000000000000000008152600060048201819052602482015260606044820152601660648201527f4141323320726576657274656420286f72204f4f472900000000000000000000608482015260a490fd5b6137a761300d565b806137b25750613613565b61088b906040519182917efa072b0000000000000000000000000000000000000000000000000000000083526004830161309a565b9450613618565b61380891925060203d602011611504576114f581836103c5565b90386135f8565b602094506000906138466109446134568b73ffffffffffffffffffffffffffffffffffffffff166000526000602052604060002090565b8a811183146138605750856060835b9750505090506135a3565b606087918c03613855565b988991613565565b61388d91925060203d6020116110bf576110b081836103c5565b9038613558565b6040517efa072b000000000000000000000000000000000000000000000000000000008152600060048201819052602482015260606044820152601b60648201527f41413330207061796d6173746572206e6f74206465706c6f7965640000000000608482015260a490fd5b90503b1538613503565b6040517efa072b000000000000000000000000000000000000000000000000000000008152600060048201819052602482015260606044820152601960648201527f41413230206163636f756e74206e6f74206465706c6f79656400000000000000608482015260a490fd5b9091929360009460009384955a9581516139a4815173ffffffffffffffffffffffffffffffffffffffff1690565b936040956139bf6139b788840184611c62565b90878c614170565b73ffffffffffffffffffffffffffffffffffffffff600181831614613cc6575b84928582613a0460a088015173ffffffffffffffffffffffffffffffffffffffff1690565b16159788613c6e575b60206060819798015191015192613a528c51988997889687947f0825d1fc00000000000000000000000000000000000000000000000000000000865260048601612fb1565b03938a1690f1829181613c4e575b50613c455750600190613a71612fef565b6308c379a014613bfb575b50613b90575b613a91575b505050505a900392565b613abb9073ffffffffffffffffffffffffffffffffffffffff166000526000602052604060002090565b92613ad761094485546dffffffffffffffffffffffffffff1690565b91828411613b2457505082547fffffffffffffffffffffffffffffffffffff0000000000000000000000000000169190036dffffffffffffffffffffffffffff1617905538808080613a87565b517efa072b00000000000000000000000000000000000000000000000000000000815260048101919091526000602482015260606044820152601760648201527f41413231206469646e2774207061792070726566756e64000000000000000000608482015260a49150fd5b82517efa072b000000000000000000000000000000000000000000000000000000008152600481018690526000602482015260606044820152601660648201527f4141323320726576657274656420286f72204f4f472900000000000000000000608482015260a490fd5b613c0361300d565b9081613c0f5750613a7c565b61088b86899250519283927efa072b000000000000000000000000000000000000000000000000000000008452600484016130b9565b9750613a829050565b613c6791925060203d8111611504576114f581836103c5565b9038613a60565b60209550613ca26109446134568c73ffffffffffffffffffffffffffffffffffffffff166000526000602052604060002090565b8c80821115613cbb575050856060835b97505050613a0d565b879160609103613cb2565b9b5050613cd243600052565b843b15613deb5760a082015173ffffffffffffffffffffffffffffffffffffffff168b811615159081613de1575b50613d7657600460208c8851928380927f3ad59dbc0000000000000000000000000000000000000000000000000000000082528a165afa849181613d56575b50613d4e5750829a83906139df565b9a8b906139df565b613d6f91925060203d81116110bf576110b081836103c5565b9038613d3f565b85517efa072b000000000000000000000000000000000000000000000000000000008152600060048201819052602482015260606044820152601b60648201527f41413330207061796d6173746572206e6f74206465706c6f7965640000000000608482015260a490fd5b90503b1538613d00565b85517efa072b000000000000000000000000000000000000000000000000000000008152600060048201819052602482015260606044820152601960648201527f41413230206163636f756e74206e6f74206465706c6f79656400000000000000608482015260a490fd5b909180613e6257505050565b81515173ffffffffffffffffffffffffffffffffffffffff1692833b61410457606083510151604051907f570e1a3600000000000000000000000000000000000000000000000000000000825260208280613ec187876004840161275f565b0381600073ffffffffffffffffffffffffffffffffffffffff95867f00000000000000000000000000000000000000000000000000000000000000001690f19182156140f7575b6000926140d7575b5080821695861561406b5716809503613fff573b15613f935761176061175a7fd51a9c61267aa6196961883ecf5ff2da6619c37dac0fa92122513fb32c032d2d93613f5a936125b9565b602083810151935160a001516040805173ffffffffffffffffffffffffffffffffffffffff9485168152939091169183019190915290a3565b6040517efa072b000000000000000000000000000000000000000000000000000000008152600060048201819052602482015260606044820152602060648201527f4141313520696e6974436f6465206d757374206372656174652073656e646572608482015260a490fd5b6040517efa072b000000000000000000000000000000000000000000000000000000008152600060048201819052602482015260606044820152602060648201527f4141313420696e6974436f6465206d7573742072657475726e2073656e646572608482015260a490fd5b6040517efa072b000000000000000000000000000000000000000000000000000000008152600060048201819052602482015260606044820152601b60648201527f4141313320696e6974436f6465206661696c6564206f72204f4f470000000000608482015260a490fd5b6140f091925060203d81116110bf576110b081836103c5565b9038613f10565b6140ff611e1d565b613f08565b6040517efa072b000000000000000000000000000000000000000000000000000000008152600060048201819052602482015260606044820152601f60648201527f414131302073656e64657220616c726561647920636f6e737472756374656400608482015260a490fd5b9290918161417f575b50505050565b82515173ffffffffffffffffffffffffffffffffffffffff1693843b61442a57606084510151604051907f570e1a36000000000000000000000000000000000000000000000000000000008252602082806141de88886004840161275f565b0381600073ffffffffffffffffffffffffffffffffffffffff95867f00000000000000000000000000000000000000000000000000000000000000001690f191821561441d575b6000926143fd575b508082169687156143915716809603614325573b156142b8575061176061175a7fd51a9c61267aa6196961883ecf5ff2da6619c37dac0fa92122513fb32c032d2d93614278936125b9565b602083810151935160a001516040805173ffffffffffffffffffffffffffffffffffffffff9485168152939091169183019190915290a338808080614179565b6040517efa072b00000000000000000000000000000000000000000000000000000000815260048101919091526000602482015260606044820152602060648201527f4141313520696e6974436f6465206d757374206372656174652073656e646572608482015260a490fd5b6040517efa072b000000000000000000000000000000000000000000000000000000008152600481018390526000602482015260606044820152602060648201527f4141313420696e6974436f6465206d7573742072657475726e2073656e646572608482015260a490fd5b6040517efa072b000000000000000000000000000000000000000000000000000000008152600481018590526000602482015260606044820152601b60648201527f4141313320696e6974436f6465206661696c6564206f72204f4f470000000000608482015260a490fd5b61441691925060203d81116110bf576110b081836103c5565b903861422d565b614425611e1d565b614225565b6040517efa072b00000000000000000000000000000000000000000000000000000000815260048101919091526000602482015260606044820152601f60648201527f414131302073656e64657220616c726561647920636f6e737472756374656400608482015260a490fd5b1561449e57565b60646040517f08c379a000000000000000000000000000000000000000000000000000000000815260206004820152601f60248201527f4141343120746f6f206c6974746c6520766572696669636174696f6e476173006044820152fd5b919060408382031261030857825167ffffffffffffffff81116103085783019080601f830112156103085781519161453383611af8565b9161454160405193846103c5565b838352602084830101116103085760209261456191848085019101611d01565b92015190565b61457f6040929594939560608352606083019061211e565b9460208201520152565b93919360609460009460009284516145c760a08a830151926145ac868511614497565b015173ffffffffffffffffffffffffffffffffffffffff1690565b956145f28773ffffffffffffffffffffffffffffffffffffffff166000526000602052604060002090565b61460d61094482546dffffffffffffffffffffffffffff1690565b8681106147f2579260208795936146718a9896946dffffffffffffffffffffffffffff6146aa9b8b9703166dffffffffffffffffffffffffffff167fffffffffffffffffffffffffffffffffffff0000000000000000000000000000825416179055565b015192604051978896879586937ff465c77e00000000000000000000000000000000000000000000000000000000855260048501614567565b039373ffffffffffffffffffffffffffffffffffffffff8a169103f19081839184936147cc575b506147c45750506001906146e3612fef565b6308c379a014614779575b506146f65750565b6040517efa072b0000000000000000000000000000000000000000000000000000000081526000600482015273ffffffffffffffffffffffffffffffffffffffff91909116602482015260606044820152601660648201527f4141333320726576657274656420286f72204f4f472900000000000000000000608482015260a490fd5b61478161300d565b908161478d57506146ee565b83905061088b6040519283927efa072b000000000000000000000000000000000000000000000000000000008452600484016130d7565b955093505050565b9092506147eb91503d8085833e6147e381836103c5565b8101906144fc565b91386146d1565b6040517efa072b0000000000000000000000000000000000000000000000000000000081526000600482015273ffffffffffffffffffffffffffffffffffffffff8a16602482015260606044820152601e60648201527f41413331207061796d6173746572206465706f73697420746f6f206c6f770000608482015260a490fd5b90949294606095600095600092855161489760a08b830151926145ac868511614497565b966148c28873ffffffffffffffffffffffffffffffffffffffff166000526000602052604060002090565b6148dd61094482546dffffffffffffffffffffffffffff1690565b868110614a84579260208795936146718a9896946dffffffffffffffffffffffffffff6149419b8b9703166dffffffffffffffffffffffffffff167fffffffffffffffffffffffffffffffffffff0000000000000000000000000000825416179055565b039373ffffffffffffffffffffffffffffffffffffffff8b169103f1908183918493614a66575b50614a5d57505060019061497a612fef565b6308c379a014614a12575b5061498e575050565b6040517efa072b000000000000000000000000000000000000000000000000000000008152600481019190915273ffffffffffffffffffffffffffffffffffffffff91909116602482015260606044820152601660648201527f4141333320726576657274656420286f72204f4f472900000000000000000000608482015260a490fd5b614a1a61300d565b9081614a265750614985565b61088b9250506040519384937efa072b0000000000000000000000000000000000000000000000000000000085526004850161310b565b96509450505050565b909250614a7d91503d8085833e6147e381836103c5565b9138614968565b6040517efa072b000000000000000000000000000000000000000000000000000000008152600481018a905273ffffffffffffffffffffffffffffffffffffffff8b16602482015260606044820152601e60648201527f41413331207061796d6173746572206465706f73697420746f6f206c6f770000608482015260a490fd5b60031115614b0f57565b7f4e487b7100000000000000000000000000000000000000000000000000000000600052602160045260246000fd5b929190614b5c60409160028652606060208701526060860190611d24565b930152565b939291906003811015614b0f57604091614b5c918652606060208701526060860190611d24565b909291925a916000918151614b9c8161545c565b9260a0820195614bc0875173ffffffffffffffffffffffffffffffffffffffff1690565b9873ffffffffffffffffffffffffffffffffffffffff94858b1680614d40575050835173ffffffffffffffffffffffffffffffffffffffff16915b5a9003019485029860408301908a825110614cbd57507f49628fd1471006c1482da88028e9ce4dbb080b815c9b0344d39e5a8e6ec1419f949392614c48614cb8938c6020945103906154e2565b015194896020614c8a614c6f865173ffffffffffffffffffffffffffffffffffffffff1690565b9a5173ffffffffffffffffffffffffffffffffffffffff1690565b9401519785604051968796169a16988590949392606092608083019683521515602083015260408201520152565b0390a4565b6040517efa072b0000000000000000000000000000000000000000000000000000000081526000600482015273ffffffffffffffffffffffffffffffffffffffff91909116602482015260606044820152601f60648201527f4135312070726566756e642062656c6f772061637475616c476173436f737400608482015260a490fd5b8b93918051614d51575b5050614bfb565b606087015160009a509091803b15614eb557918a918a83614da4956040518097819682957fa9a234090000000000000000000000000000000000000000000000000000000084528c029060048401614b3e565b0393f19081614ea2575b50614e9d576001614dbd612fef565b6308c379a014614e55575b614dd4575b3880614d4a565b6040517efa072b0000000000000000000000000000000000000000000000000000000081526000600482015273ffffffffffffffffffffffffffffffffffffffff8c16602482015260606044820152601160648201527f41353020706f73744f7020726576657274000000000000000000000000000000608482015260a490fd5b614e5d61300d565b80614e685750614dc8565b8c61088b6040519283927efa072b000000000000000000000000000000000000000000000000000000008452600484016130d7565b614dcd565b80610cf5614eaf926103b1565b38614dae565b8a80fd5b919392935a90600092805190614ece8261545c565b9360a0830196614ef2885173ffffffffffffffffffffffffffffffffffffffff1690565b9973ffffffffffffffffffffffffffffffffffffffff95868c1680614fff575050845173ffffffffffffffffffffffffffffffffffffffff16925b5a9003019586029960408401918b835110614f7b5750507f49628fd1471006c1482da88028e9ce4dbb080b815c9b0344d39e5a8e6ec1419f949392614c48614cb8938c6020945103906154e2565b6040517efa072b000000000000000000000000000000000000000000000000000000008152600481019190915273ffffffffffffffffffffffffffffffffffffffff91909116602482015260606044820152601f60648201527f4135312070726566756e642062656c6f772061637475616c476173436f737400608482015260a490fd5b8c94918051615010575b5050614f2d565b606088015160009b509091803b1561517657918b918b83615063956040518097819682957fa9a234090000000000000000000000000000000000000000000000000000000084528c029060048401614b3e565b0393f19081615163575b5061515e57600161507c612fef565b6308c379a014615114575b615093575b3880615009565b6040517efa072b0000000000000000000000000000000000000000000000000000000081526004810184905273ffffffffffffffffffffffffffffffffffffffff8d16602482015260606044820152601160648201527f41353020706f73744f7020726576657274000000000000000000000000000000608482015260a490fd5b61511c61300d565b806151275750615087565b8461088b8f926040519384937efa072b0000000000000000000000000000000000000000000000000000000085526004850161310b565b61508c565b80610cf5615170926103b1565b3861506d565b8b80fd5b909392935a92815161518b8161545c565b9260a08201956151af875173ffffffffffffffffffffffffffffffffffffffff1690565b9873ffffffffffffffffffffffffffffffffffffffff94858b169081615294575050835173ffffffffffffffffffffffffffffffffffffffff16915b5a9003019485029860408301908a825110614cbd57507f49628fd1471006c1482da88028e9ce4dbb080b815c9b0344d39e5a8e6ec1419f949392615238614cb8938c6020945103906154e2565b61524188614b05565b015194896020615268614c6f865173ffffffffffffffffffffffffffffffffffffffff1690565b940151604080519182529815602082015297880152606087015290821695909116939081906080820190565b8b939181516152a5575b50506151eb565b8884026152b18b614b05565b60028b1461533c576060880151823b156103085761530493600080948e604051978896879586937fa9a2340900000000000000000000000000000000000000000000000000000000855260048501614b61565b0393f1801561532f575b61531c575b505b388061529e565b80610cf5615329926103b1565b38615313565b615337611e1d565b61530e565b6060880151823b156103085761538793600080948e604051978896879586937fa9a2340900000000000000000000000000000000000000000000000000000000855260048501614b61565b0393f19081615449575b506154445760016153a0612fef565b6308c379a014615431575b15615315576040517efa072b0000000000000000000000000000000000000000000000000000000081526000600482015273ffffffffffffffffffffffffffffffffffffffff8c16602482015260606044820152601160648201527f41353020706f73744f7020726576657274000000000000000000000000000000608482015260a490fd5b61543961300d565b80614e6857506153ab565b615315565b80610cf5615456926103b1565b38615391565b60e060c08201519101518082146154805748018082101561547b575090565b905090565b5090565b9073ffffffffffffffffffffffffffffffffffffffff6154a2612581565b9216600052600060205263ffffffff600160406000206dffffffffffffffffffffffffffff815460781c1685520154166020830152565b610413336155d3565b73ffffffffffffffffffffffffffffffffffffffff16600052600060205260406000206dffffffffffffffffffffffffffff808254169283018093116155c6575b8083116155685761041392166dffffffffffffffffffffffffffff167fffffffffffffffffffffffffffffffffffff0000000000000000000000000000825416179055565b60646040517f08c379a000000000000000000000000000000000000000000000000000000000815260206004820152601060248201527f6465706f736974206f766572666c6f77000000000000000000000000000000006044820152fd5b6155ce611e2a565b615523565b73ffffffffffffffffffffffffffffffffffffffff906155f334826154e2565b168060005260006020527f2da466a7b24304f47e87fa2e1e5a81b9831ce54fec19055ce277ca2f39ba42c460206dffffffffffffffffffffffffffff60406000205416604051908152a2565b1561564657565b60646040517f08c379a000000000000000000000000000000000000000000000000000000000815260206004820152601a60248201527f6d757374207370656369667920756e7374616b652064656c61790000000000006044820152fd5b156156ab57565b60646040517f08c379a000000000000000000000000000000000000000000000000000000000815260206004820152601c60248201527f63616e6e6f7420646563726561736520756e7374616b652074696d65000000006044820152fd5b1561571057565b60646040517f08c379a000000000000000000000000000000000000000000000000000000000815260206004820152601260248201527f6e6f207374616b652073706563696669656400000000000000000000000000006044820152fd5b1561577557565b60646040517f08c379a000000000000000000000000000000000000000000000000000000000815260206004820152600e60248201527f7374616b65206f766572666c6f770000000000000000000000000000000000006044820152fd5b9067ffffffffffffffff60806001610413946158356dffffffffffffffffffffffffffff86511682906dffffffffffffffffffffffffffff167fffffffffffffffffffffffffffffffffffff0000000000000000000000000000825416179055565b602085015115156eff000000000000000000000000000082549160701b16807fffffffffffffffffffffffffffffffffff00ffffffffffffffffffffffffffff83161783557fffffff000000000000000000000000000000ffffffffffffffffffffffffffff7cffffffffffffffffffffffffffff000000000000000000000000000000604089015160781b16921617178155019263ffffffff6060820151167fffffffffffffffffffffffffffffffffffffffffffffffffffffffff000000008554161784550151167fffffffffffffffffffffffffffffffffffffffff0000000000000000ffffffff6bffffffffffffffff0000000083549260201b169116179055565b1561594257565b60646040517f08c379a000000000000000000000000000000000000000000000000000000000815260206004820152601160248201527f616c726561647920756e7374616b696e670000000000000000000000000000006044820152fd5b91909167ffffffffffffffff80809416911601918211611e6757565b156159c357565b60646040517f08c379a000000000000000000000000000000000000000000000000000000000815260206004820152601460248201527f4e6f207374616b6520746f2077697468647261770000000000000000000000006044820152fd5b15615a2857565b60646040517f08c379a000000000000000000000000000000000000000000000000000000000815260206004820152601d60248201527f6d7573742063616c6c20756e6c6f636b5374616b6528292066697273740000006044820152fd5b15615a8d57565b60646040517f08c379a000000000000000000000000000000000000000000000000000000000815260206004820152601b60248201527f5374616b65207769746864726177616c206973206e6f742064756500000000006044820152fd5b15615af257565b60646040517f08c379a000000000000000000000000000000000000000000000000000000000815260206004820152601860248201527f6661696c656420746f207769746864726177207374616b6500000000000000006044820152fd5b15615b5757565b60646040517f08c379a000000000000000000000000000000000000000000000000000000000815260206004820152601260248201527f6661696c656420746f20776974686472617700000000000000000000000000006044820152fdfea264697066735822122040c27a8cdb7eb42cea5cb9690919fbff6a74c601ca980c029a0341fad080e80264736f6c634300081100336080806040523461001657610210908161001c8239f35b600080fdfe6080604052600436101561001257600080fd5b6000803560e01c63570e1a361461002857600080fd5b346100c95760207ffffffffffffffffffffffffffffffffffffffffffffffffffffffffffffffffc3601126100c95760043567ffffffffffffffff918282116100c957366023830112156100c95781600401359283116100c95736602484840101116100c9576100c561009e84602485016100fc565b60405173ffffffffffffffffffffffffffffffffffffffff90911681529081906020820190565b0390f35b80fd5b507f4e487b7100000000000000000000000000000000000000000000000000000000600052604160045260246000fd5b90806014116101bb5767ffffffffffffffff917fffffffffffffffffffffffffffffffffffffffffffffffffffffffffffffffec82018381116101cd575b604051937fffffffffffffffffffffffffffffffffffffffffffffffffffffffffffffffe0603f81600b8701160116850190858210908211176101c0575b604052808452602084019036848401116101bb576020946000600c819682946014880187378301015251923560601c5af19060005191156101b557565b60009150565b600080fd5b6101c86100cc565b610178565b6101d56100cc565b61013a56fea26469706673582212202f6aa68977bad9c275e51acad9826417c06681f8af8a6c6afc77efd76d949f2964736f6c63430008110033"
}