{
  "address": "0xCDF4ddafF49fd06f19c31988cE0d1669993B35c0",
  "abi": [
    {
      "inputs": [
        {
          "internalType": "address",
          "name": "anEntryPoint",
          "type": "address"
        }
      ],
      "stateMutability": "nonpayable",
      "type": "constructor"
    },
    {
      "anonymous": false,
      "inputs": [
        {
          "indexed": false,
          "internalType": "address",
          "name": "owner",
          "type": "address"
        }
      ],
      "name": "AddedOwner",
      "type": "event"
    },
    {
      "anonymous": false,
      "inputs": [
        {
          "indexed": true,
          "internalType": "bytes32",
          "name": "approvedHash",
          "type": "bytes32"
        },
        {
          "indexed": true,
          "internalType": "address",
          "name": "owner",
          "type": "address"
        }
      ],
      "name": "ApproveHash",
      "type": "event"
    },
    {
      "anonymous": false,
      "inputs": [
        {
          "indexed": false,
          "internalType": "address",
          "name": "handler",
          "type": "address"
        }
      ],
      "name": "ChangedFallbackHandler",
      "type": "event"
    },
    {
      "anonymous": false,
      "inputs": [
        {
          "indexed": false,
          "internalType": "address",
          "name": "guard",
          "type": "address"
        }
      ],
      "name": "ChangedGuard",
      "type": "event"
    },
    {
      "anonymous": false,
      "inputs": [
        {
          "indexed": false,
          "internalType": "uint256",
          "name": "threshold",
          "type": "uint256"
        }
      ],
      "name": "ChangedThreshold",
      "type": "event"
    },
    {
      "anonymous": false,
      "inputs": [
        {
          "indexed": false,
          "internalType": "address",
          "name": "module",
          "type": "address"
        }
      ],
      "name": "DisabledModule",
      "type": "event"
    },
    {
      "anonymous": false,
      "inputs": [
        {
          "indexed": false,
          "internalType": "address",
          "name": "module",
          "type": "address"
        }
      ],
      "name": "EnabledModule",
      "type": "event"
    },
    {
      "anonymous": false,
      "inputs": [
        {
          "indexed": false,
          "internalType": "bytes32",
          "name": "txHash",
          "type": "bytes32"
        },
        {
          "indexed": false,
          "internalType": "uint256",
          "name": "payment",
          "type": "uint256"
        }
      ],
      "name": "ExecutionFailure",
      "type": "event"
    },
    {
      "anonymous": false,
      "inputs": [
        {
          "indexed": true,
          "internalType": "address",
          "name": "module",
          "type": "address"
        }
      ],
      "name": "ExecutionFromModuleFailure",
      "type": "event"
    },
    {
      "anonymous": false,
      "inputs": [
        {
          "indexed": true,
          "internalType": "address",
          "name": "module",
          "type": "address"
        }
      ],
      "name": "ExecutionFromModuleSuccess",
      "type": "event"
    },
    {
      "anonymous": false,
      "inputs": [
        {
          "indexed": false,
          "internalType": "bytes32",
          "name": "txHash",
          "type": "bytes32"
        },
        {
          "indexed": false,
          "internalType": "uint256",
          "name": "payment",
          "type": "uint256"
        }
      ],
      "name": "ExecutionSuccess",
      "type": "event"
    },
    {
      "anonymous": false,
      "inputs": [
        {
          "indexed": false,
          "internalType": "address",
          "name": "owner",
          "type": "address"
        }
      ],
      "name": "RemovedOwner",
      "type": "event"
    },
    {
      "anonymous": false,
      "inputs": [
        {
          "indexed": true,
          "internalType": "address",
          "name": "sender",
          "type": "address"
        },
        {
          "indexed": false,
          "internalType": "uint256",
          "name": "value",
          "type": "uint256"
        }
      ],
      "name": "SafeReceived",
      "type": "event"
    },
    {
      "anonymous": false,
      "inputs": [
        {
          "indexed": true,
          "internalType": "address",
          "name": "initiator",
          "type": "address"
        },
        {
          "indexed": false,
          "internalType": "address[]",
          "name": "owners",
          "type": "address[]"
        },
        {
          "indexed": false,
          "internalType": "uint256",
          "name": "threshold",
          "type": "uint256"
        },
        {
          "indexed": false,
          "internalType": "address",
          "name": "initializer",
          "type": "address"
        },
        {
          "indexed": false,
          "internalType": "address",
          "name": "fallbackHandler",
          "type": "address"
        }
      ],
      "name": "SafeSetup",
      "type": "event"
    },
    {
      "anonymous": false,
      "inputs": [
        {
          "indexed": true,
          "internalType": "bytes32",
          "name": "msgHash",
          "type": "bytes32"
        }
      ],
      "name": "SignMsg",
      "type": "event"
    },
    {
      "stateMutability": "nonpayable",
      "type": "fallback"
    },
    {
      "inputs": [],
      "name": "VERSION",
      "outputs": [
        {
          "internalType": "string",
          "name": "",
          "type": "string"
        }
      ],
      "stateMutability": "view",
      "type": "function"
    },
    {
      "inputs": [
        {
          "internalType": "address",
          "name": "owner",
          "type": "address"
        },
        {
          "internalType": "uint256",
          "name": "_threshold",
          "type": "uint256"
        }
      ],
      "name": "addOwnerWithThreshold",
      "outputs": [],
      "stateMutability": "nonpayable",
      "type": "function"
    },
    {
      "inputs": [
        {
          "internalType": "bytes32",
          "name": "hashToApprove",
          "type": "bytes32"
        }
      ],
      "name": "approveHash",
      "outputs": [],
      "stateMutability": "nonpayable",
      "type": "function"
    },
    {
      "inputs": [
        {
          "internalType": "address",
          "name": "",
          "type": "address"
        },
        {
          "internalType": "bytes32",
          "name": "",
          "type": "bytes32"
        }
      ],
      "name": "approvedHashes",
      "outputs": [
        {
          "internalType": "uint256",
          "name": "",
          "type": "uint256"
        }
      ],
      "stateMutability": "view",
      "type": "function"
    },
    {
      "inputs": [
        {
          "internalType": "uint256",
          "name": "_threshold",
          "type": "uint256"
        }
      ],
      "name": "changeThreshold",
      "outputs": [],
      "stateMutability": "nonpayable",
      "type": "function"
    },
    {
      "inputs": [
        {
          "internalType": "bytes32",
          "name": "dataHash",
          "type": "bytes32"
        },
        {
          "internalType": "bytes",
          "name": "data",
          "type": "bytes"
        },
        {
          "internalType": "bytes",
          "name": "signatures",
          "type": "bytes"
        },
        {
          "internalType": "uint256",
          "name": "requiredSignatures",
          "type": "uint256"
        }
      ],
      "name": "checkNSignatures",
      "outputs": [],
      "stateMutability": "view",
      "type": "function"
    },
    {
      "inputs": [
        {
          "internalType": "bytes32",
          "name": "dataHash",
          "type": "bytes32"
        },
        {
          "internalType": "bytes",
          "name": "data",
          "type": "bytes"
        },
        {
          "internalType": "bytes",
          "name": "signatures",
          "type": "bytes"
        }
      ],
      "name": "checkSignatures",
      "outputs": [],
      "stateMutability": "view",
      "type": "function"
    },
    {
      "inputs": [
        {
          "internalType": "address",
          "name": "prevModule",
          "type": "address"
        },
        {
          "internalType": "address",
          "name": "module",
          "type": "address"
        }
      ],
      "name": "disableModule",
      "outputs": [],
      "stateMutability": "nonpayable",
      "type": "function"
    },
    {
      "inputs": [],
      "name": "domainSeparator",
      "outputs": [
        {
          "internalType": "bytes32",
          "name": "",
          "type": "bytes32"
        }
      ],
      "stateMutability": "view",
      "type": "function"
    },
    {
      "inputs": [],
      "name": "eip4337Fallback",
      "outputs": [
        {
          "internalType": "address",
          "name": "",
          "type": "address"
        }
      ],
      "stateMutability": "view",
      "type": "function"
    },
    {
      "inputs": [
        {
          "internalType": "address",
          "name": "module",
          "type": "address"
        }
      ],
      "name": "enableModule",
      "outputs": [],
      "stateMutability": "nonpayable",
      "type": "function"
    },
    {
      "inputs": [
        {
          "internalType": "address",
          "name": "to",
          "type": "address"
        },
        {
          "internalType": "uint256",
          "name": "value",
          "type": "uint256"
        },
        {
          "internalType": "bytes",
          "name": "data",
          "type": "bytes"
        },
        {
          "internalType": "enum Enum.Operation",
          "name": "operation",
          "type": "uint8"
        },
        {
          "internalType": "uint256",
          "name": "safeTxGas",
          "type": "uint256"
        },
        {
          "internalType": "uint256",
          "name": "baseGas",
          "type": "uint256"
        },
        {
          "internalType": "uint256",
          "name": "gasPrice",
          "type": "uint256"
        },
        {
          "internalType": "address",
          "name": "gasToken",
          "type": "address"
        },
        {
          "internalType": "address",
          "name": "refundReceiver",
          "type": "address"
        },
        {
          "internalType": "uint256",
          "name": "_nonce",
          "type": "uint256"
        }
      ],
      "name": "encodeTransactionData",
      "outputs": [
        {
          "internalType": "bytes",
          "name": "",
          "type": "bytes"
        }
      ],
      "stateMutability": "view",
      "type": "function"
    },
    {
      "inputs": [],
      "name": "entryPoint",
      "outputs": [
        {
          "internalType": "address",
          "name": "",
          "type": "address"
        }
      ],
      "stateMutability": "view",
      "type": "function"
    },
    {
      "inputs": [
        {
          "internalType": "address",
          "name": "to",
          "type": "address"
        },
        {
          "internalType": "uint256",
          "name": "value",
          "type": "uint256"
        },
        {
          "internalType": "bytes",
          "name": "data",
          "type": "bytes"
        },
        {
          "internalType": "enum Enum.Operation",
          "name": "operation",
          "type": "uint8"
        },
        {
          "internalType": "uint256",
          "name": "safeTxGas",
          "type": "uint256"
        },
        {
          "internalType": "uint256",
          "name": "baseGas",
          "type": "uint256"
        },
        {
          "internalType": "uint256",
          "name": "gasPrice",
          "type": "uint256"
        },
        {
          "internalType": "address",
          "name": "gasToken",
          "type": "address"
        },
        {
          "internalType": "address payable",
          "name": "refundReceiver",
          "type": "address"
        },
        {
          "internalType": "bytes",
          "name": "signatures",
          "type": "bytes"
        }
      ],
      "name": "execTransaction",
      "outputs": [
        {
          "internalType": "bool",
          "name": "success",
          "type": "bool"
        }
      ],
      "stateMutability": "payable",
      "type": "function"
    },
    {
      "inputs": [
        {
          "internalType": "address",
          "name": "to",
          "type": "address"
        },
        {
          "internalType": "uint256",
          "name": "value",
          "type": "uint256"
        },
        {
          "internalType": "bytes",
          "name": "data",
          "type": "bytes"
        },
        {
          "internalType": "enum Enum.Operation",
          "name": "operation",
          "type": "uint8"
        }
      ],
      "name": "execTransactionFromModule",
      "outputs": [
        {
          "internalType": "bool",
          "name": "success",
          "type": "bool"
        }
      ],
      "stateMutability": "nonpayable",
      "type": "function"
    },
    {
      "inputs": [
        {
          "internalType": "address",
          "name": "to",
          "type": "address"
        },
        {
          "internalType": "uint256",
          "name": "value",
          "type": "uint256"
        },
        {
          "internalType": "bytes",
          "name": "data",
          "type": "bytes"
        },
        {
          "internalType": "enum Enum.Operation",
          "name": "operation",
          "type": "uint8"
        }
      ],
      "name": "execTransactionFromModuleReturnData",
      "outputs": [
        {
          "internalType": "bool",
          "name": "success",
          "type": "bool"
        },
        {
          "internalType": "bytes",
          "name": "returnData",
          "type": "bytes"
        }
      ],
      "stateMutability": "nonpayable",
      "type": "function"
    },
    {
      "inputs": [
        {
          "internalType": "address",
          "name": "to",
          "type": "address"
        },
        {
          "internalType": "uint256",
          "name": "value",
          "type": "uint256"
        },
        {
          "internalType": "bytes",
          "name": "data",
          "type": "bytes"
        },
        {
          "internalType": "enum Enum.Operation",
          "name": "operation",
          "type": "uint8"
        }
      ],
      "name": "executeAndRevert",
      "outputs": [],
      "stateMutability": "nonpayable",
      "type": "function"
    },
    {
      "inputs": [],
      "name": "getChainId",
      "outputs": [
        {
          "internalType": "uint256",
          "name": "",
          "type": "uint256"
        }
      ],
      "stateMutability": "view",
      "type": "function"
    },
    {
      "inputs": [
        {
          "internalType": "contract GnosisSafe",
          "name": "safe",
          "type": "address"
        }
      ],
      "name": "getCurrentEIP4337Manager",
      "outputs": [
        {
          "internalType": "address",
          "name": "prev",
          "type": "address"
        },
        {
          "internalType": "address",
          "name": "manager",
          "type": "address"
        }
      ],
      "stateMutability": "view",
      "type": "function"
    },
    {
      "inputs": [
        {
          "internalType": "address",
          "name": "start",
          "type": "address"
        },
        {
          "internalType": "uint256",
          "name": "pageSize",
          "type": "uint256"
        }
      ],
      "name": "getModulesPaginated",
      "outputs": [
        {
          "internalType": "address[]",
          "name": "array",
          "type": "address[]"
        },
        {
          "internalType": "address",
          "name": "next",
          "type": "address"
        }
      ],
      "stateMutability": "view",
      "type": "function"
    },
    {
      "inputs": [],
      "name": "getOwners",
      "outputs": [
        {
          "internalType": "address[]",
          "name": "",
          "type": "address[]"
        }
      ],
      "stateMutability": "view",
      "type": "function"
    },
    {
      "inputs": [
        {
          "internalType": "uint256",
          "name": "offset",
          "type": "uint256"
        },
        {
          "internalType": "uint256",
          "name": "length",
          "type": "uint256"
        }
      ],
      "name": "getStorageAt",
      "outputs": [
        {
          "internalType": "bytes",
          "name": "",
          "type": "bytes"
        }
      ],
      "stateMutability": "view",
      "type": "function"
    },
    {
      "inputs": [],
      "name": "getThreshold",
      "outputs": [
        {
          "internalType": "uint256",
          "name": "",
          "type": "uint256"
        }
      ],
      "stateMutability": "view",
      "type": "function"
    },
    {
      "inputs": [
        {
          "internalType": "address",
          "name": "to",
          "type": "address"
        },
        {
          "internalType": "uint256",
          "name": "value",
          "type": "uint256"
        },
        {
          "internalType": "bytes",
          "name": "data",
          "type": "bytes"
        },
        {
          "internalType": "enum Enum.Operation",
          "name": "operation",
          "type": "uint8"
        },
        {
          "internalType": "uint256",
          "name": "safeTxGas",
          "type": "uint256"
        },
        {
          "internalType": "uint256",
          "name": "baseGas",
          "type": "uint256"
        },
        {
          "internalType": "uint256",
          "name": "gasPrice",
          "type": "uint256"
        },
        {
          "internalType": "address",
          "name": "gasToken",
          "type": "address"
        },
        {
          "internalType": "address",
          "name": "refundReceiver",
          "type": "address"
        },
        {
          "internalType": "uint256",
          "name": "_nonce",
          "type": "uint256"
        }
      ],
      "name": "getTransactionHash",
      "outputs": [
        {
          "internalType": "bytes32",
          "name": "",
          "type": "bytes32"
        }
      ],
      "stateMutability": "view",
      "type": "function"
    },
    {
      "inputs": [
        {
          "internalType": "address",
          "name": "module",
          "type": "address"
        }
      ],
      "name": "isModuleEnabled",
      "outputs": [
        {
          "internalType": "bool",
          "name": "",
          "type": "bool"
        }
      ],
      "stateMutability": "view",
      "type": "function"
    },
    {
      "inputs": [
        {
          "internalType": "address",
          "name": "owner",
          "type": "address"
        }
      ],
      "name": "isOwner",
      "outputs": [
        {
          "internalType": "bool",
          "name": "",
          "type": "bool"
        }
      ],
      "stateMutability": "view",
      "type": "function"
    },
    {
      "inputs": [],
      "name": "nonce",
      "outputs": [
        {
          "internalType": "uint256",
          "name": "",
          "type": "uint256"
        }
      ],
      "stateMutability": "view",
      "type": "function"
    },
    {
      "inputs": [
        {
          "internalType": "address",
          "name": "prevOwner",
          "type": "address"
        },
        {
          "internalType": "address",
          "name": "owner",
          "type": "address"
        },
        {
          "internalType": "uint256",
          "name": "_threshold",
          "type": "uint256"
        }
      ],
      "name": "removeOwner",
      "outputs": [],
      "stateMutability": "nonpayable",
      "type": "function"
    },
    {
      "inputs": [
        {
          "internalType": "address",
          "name": "prevModule",
          "type": "address"
        },
        {
          "internalType": "contract EIP4337Manager",
          "name": "oldManager",
          "type": "address"
        },
        {
          "internalType": "contract EIP4337Manager",
          "name": "newManager",
          "type": "address"
        }
      ],
      "name": "replaceEIP4337Manager",
      "outputs": [],
      "stateMutability": "nonpayable",
      "type": "function"
    },
    {
      "inputs": [
        {
          "internalType": "address",
          "name": "to",
          "type": "address"
        },
        {
          "internalType": "uint256",
          "name": "value",
          "type": "uint256"
        },
        {
          "internalType": "bytes",
          "name": "data",
          "type": "bytes"
        },
        {
          "internalType": "enum Enum.Operation",
          "name": "operation",
          "type": "uint8"
        }
      ],
      "name": "requiredTxGas",
      "outputs": [
        {
          "internalType": "uint256",
          "name": "",
          "type": "uint256"
        }
      ],
      "stateMutability": "nonpayable",
      "type": "function"
    },
    {
      "inputs": [
        {
          "internalType": "address",
          "name": "handler",
          "type": "address"
        }
      ],
      "name": "setFallbackHandler",
      "outputs": [],
      "stateMutability": "nonpayable",
      "type": "function"
    },
    {
      "inputs": [
        {
          "internalType": "address",
          "name": "guard",
          "type": "address"
        }
      ],
      "name": "setGuard",
      "outputs": [],
      "stateMutability": "nonpayable",
      "type": "function"
    },
    {
      "inputs": [
        {
          "internalType": "address[]",
          "name": "_owners",
          "type": "address[]"
        },
        {
          "internalType": "uint256",
          "name": "_threshold",
          "type": "uint256"
        },
        {
          "internalType": "address",
          "name": "to",
          "type": "address"
        },
        {
          "internalType": "bytes",
          "name": "data",
          "type": "bytes"
        },
        {
          "internalType": "address",
          "name": "fallbackHandler",
          "type": "address"
        },
        {
          "internalType": "address",
          "name": "paymentToken",
          "type": "address"
        },
        {
          "internalType": "uint256",
          "name": "payment",
          "type": "uint256"
        },
        {
          "internalType": "address payable",
          "name": "paymentReceiver",
          "type": "address"
        }
      ],
      "name": "setup",
      "outputs": [],
      "stateMutability": "nonpayable",
      "type": "function"
    },
    {
      "inputs": [
        {
          "internalType": "contract EIP4337Manager",
          "name": "manager",
          "type": "address"
        }
      ],
      "name": "setup4337Modules",
      "outputs": [],
      "stateMutability": "nonpayable",
      "type": "function"
    },
    {
      "inputs": [
        {
          "internalType": "bytes32",
          "name": "",
          "type": "bytes32"
        }
      ],
      "name": "signedMessages",
      "outputs": [
        {
          "internalType": "uint256",
          "name": "",
          "type": "uint256"
        }
      ],
      "stateMutability": "view",
      "type": "function"
    },
    {
      "inputs": [
        {
          "internalType": "address",
          "name": "targetContract",
          "type": "address"
        },
        {
          "internalType": "bytes",
          "name": "calldataPayload",
          "type": "bytes"
        }
      ],
      "name": "simulateAndRevert",
      "outputs": [],
      "stateMutability": "nonpayable",
      "type": "function"
    },
    {
      "inputs": [
        {
          "internalType": "address",
          "name": "prevOwner",
          "type": "address"
        },
        {
          "internalType": "address",
          "name": "oldOwner",
          "type": "address"
        },
        {
          "internalType": "address",
          "name": "newOwner",
          "type": "address"
        }
      ],
      "name": "swapOwner",
      "outputs": [],
      "stateMutability": "nonpayable",
      "type": "function"
    },
    {
      "inputs": [
        {
          "internalType": "contract GnosisSafe",
          "name": "safe",
          "type": "address"
        },
        {
          "internalType": "contract EIP4337Manager",
          "name": "manager",
          "type": "address"
        }
      ],
      "name": "validateEip4337",
      "outputs": [],
      "stateMutability": "nonpayable",
      "type": "function"
    },
    {
      "inputs": [
        {
          "components": [
            {
              "internalType": "address",
              "name": "sender",
              "type": "address"
            },
            {
              "internalType": "uint256",
              "name": "nonce",
              "type": "uint256"
            },
            {
              "internalType": "bytes",
              "name": "initCode",
              "type": "bytes"
            },
            {
              "internalType": "bytes",
              "name": "callData",
              "type": "bytes"
            },
            {
              "internalType": "uint256",
              "name": "callGasLimit",
              "type": "uint256"
            },
            {
              "internalType": "uint256",
              "name": "verificationGasLimit",
              "type": "uint256"
            },
            {
              "internalType": "uint256",
              "name": "preVerificationGas",
              "type": "uint256"
            },
            {
              "internalType": "uint256",
              "name": "maxFeePerGas",
              "type": "uint256"
            },
            {
              "internalType": "uint256",
              "name": "maxPriorityFeePerGas",
              "type": "uint256"
            },
            {
              "internalType": "bytes",
              "name": "paymasterAndData",
              "type": "bytes"
            },
            {
              "internalType": "bytes",
              "name": "signature",
              "type": "bytes"
            }
          ],
          "internalType": "struct UserOperation",
          "name": "userOp",
          "type": "tuple"
        },
        {
          "internalType": "bytes32",
          "name": "userOpHash",
          "type": "bytes32"
        },
        {
          "internalType": "address",
          "name": "",
          "type": "address"
        },
        {
          "internalType": "uint256",
          "name": "missingAccountFunds",
          "type": "uint256"
        }
      ],
      "name": "validateUserOp",
      "outputs": [
        {
          "internalType": "uint256",
          "name": "sigTimeRange",
          "type": "uint256"
        }
      ],
      "stateMutability": "nonpayable",
      "type": "function"
    },
    {
      "stateMutability": "payable",
      "type": "receive"
    }
  ],
  "transactionHash": "0x04c747fdc96f6e0106c02a2bbfd21493f0fba3ab39820a15dfc39e16de64c865",
  "args": [
    "0x0F46c65C17AA6b4102046935F33301f0510B163A"
  ],
  "numDeployments": 1,
  "solcInputHash": "415d41b45c467461fc504140a8a9ab17",
  "bytecode": "0x60c06040523480156200001157600080fd5b5060405162006c0c38038062006c0c8339810160408190526200003491620000a5565b60016004556001600160a01b03811660a0526040513090620000569062000097565b6001600160a01b039091168152602001604051809103906000f08015801562000083573d6000803e3d6000fd5b506001600160a01b031660805250620000d7565b610c648062005fa883390190565b600060208284031215620000b857600080fd5b81516001600160a01b0381168114620000d057600080fd5b9392505050565b60805160a051615e9d6200010b600039600081816106a101528181610b9401526126b6015260006105980152615e9d6000f3fe6080604052600436106102a45760003560e01c8063a0e67e2b1161016e578063e009cfde116100cb578063efae6e061161007f578063f698da2511610064578063f698da2514610886578063f8dc5dd9146108ed578063ffa1ad741461090d576102e0565b8063efae6e0614610846578063f08a032314610866576102e0565b8063e318b52b116100b0578063e318b52b146107f1578063e75235b814610811578063e86637db14610826576102e0565b8063e009cfde146107b1578063e19a9dd9146107d1576102e0565b8063c4ca3a9c11610122578063d041593b11610107578063d041593b14610751578063d4d9bdcd14610771578063d8d11f7814610791576102e0565b8063c4ca3a9c14610703578063cc2f845214610723576102e0565b8063b0d691fe11610153578063b0d691fe1461068f578063b4faba09146106c3578063b63e800d146106e3576102e0565b8063a0e67e2b14610657578063affed0e014610679576102e0565b80635229073f1161021c5780636a761202116101d05780637d832974116101b55780637d832974146105df578063934f3a1114610617578063940d3c6014610637576102e0565b80636a7612021461057357806370b8a01d14610586576102e0565b80635ae6bd37116102015780635ae6bd3714610506578063610b592514610533578063694e80c314610553576102e0565b80635229073f146104ab5780635624b25b146104d9576102e0565b80632d9ad53d116102735780633408e470116102585780633408e4701461045857806345b1e0ca1461046b578063468721a71461048b576102e0565b80632d9ad53d146104085780632f54bf6e14610438576102e0565b8063039b1728146103465780630825d1fc146103985780630d582f13146103c657806312fb68e0146103e8576102e0565b366102e05760405134815233907f3d0ce9bfc3ed7d6862dbb28b2dea94561fe714a1b4d019aa8af39730d1ad7c3d9060200160405180910390a2005b3480156102ec57600080fd5b507f6c9a6c4a39284e37ed1cf53d337577d14212a4870fb976a4366c693b939918d580548061031757005b36600080373360601b365260008060143601600080855af190503d6000803e80610340573d6000fd5b503d6000f35b34801561035257600080fd5b50610366610361366004614c61565b610956565b6040805173ffffffffffffffffffffffffffffffffffffffff9384168152929091166020830152015b60405180910390f35b3480156103a457600080fd5b506103b86103b3366004614c8e565b610b54565b60405190815260200161038f565b3480156103d257600080fd5b506103e66103e1366004614cf5565b610f12565b005b3480156103f457600080fd5b506103e6610403366004614e3b565b611163565b34801561041457600080fd5b50610428610423366004614c61565b6117b8565b604051901515815260200161038f565b34801561044457600080fd5b50610428610453366004614c61565b61180d565b34801561046457600080fd5b50466103b8565b34801561047757600080fd5b506103e6610486366004614eb0565b61185f565b34801561049757600080fd5b506104286104a6366004614ef8565b611d2a565b3480156104b757600080fd5b506104cb6104c6366004614ef8565b611e3f565b60405161038f929190614fd8565b3480156104e557600080fd5b506104f96104f4366004614ff3565b611e75565b60405161038f9190615015565b34801561051257600080fd5b506103b8610521366004615028565b60076020526000908152604090205481565b34801561053f57600080fd5b506103e661054e366004614c61565b611efb565b34801561055f57600080fd5b506103e661056e366004615028565b6120ed565b610428610581366004615083565b612201565b34801561059257600080fd5b506105ba7f000000000000000000000000000000000000000000000000000000000000000081565b60405173ffffffffffffffffffffffffffffffffffffffff909116815260200161038f565b3480156105eb57600080fd5b506103b86105fa366004614cf5565b600860209081526000928352604080842090915290825290205481565b34801561062357600080fd5b506103e661063236600461515c565b6125fb565b34801561064357600080fd5b506103e6610652366004614ef8565b612677565b34801561066357600080fd5b5061066c6127bb565b60405161038f919061521a565b34801561068557600080fd5b506103b860055481565b34801561069b57600080fd5b506105ba7f000000000000000000000000000000000000000000000000000000000000000081565b3480156106cf57600080fd5b506103e66106de36600461522d565b6128d3565b3480156106ef57600080fd5b506103e66106fe36600461527d565b6128f6565b34801561070f57600080fd5b506103b861071e366004615372565b612a31565b34801561072f57600080fd5b5061074361073e366004614cf5565b612b03565b60405161038f9291906153e3565b34801561075d57600080fd5b506103e661076c366004614c61565b612c31565b34801561077d57600080fd5b506103e661078c366004615028565b612e44565b34801561079d57600080fd5b506103b86107ac36600461541b565b612f18565b3480156107bd57600080fd5b506103e66107cc366004614eb0565b612f45565b3480156107dd57600080fd5b506103e66107ec366004614c61565b613124565b3480156107fd57600080fd5b506103e661080c3660046154dc565b613196565b34801561081d57600080fd5b506004546103b8565b34801561083257600080fd5b506104f961084136600461541b565b613522565b34801561085257600080fd5b506103e66108613660046154dc565b6136bb565b34801561087257600080fd5b506103e6610881366004614c61565b613c73565b34801561089257600080fd5b506103b860007f47e79534a245952e8b16893a336b85a3d9ea9fa8c573f3d803afb92a794692184660408051602081019390935282015230606082015260800160405160208183030381529060405280519060200120905090565b3480156108f957600080fd5b506103e6610908366004615527565b613ce9565b34801561091957600080fd5b506104f96040518060400160405280600581526020017f312e332e3000000000000000000000000000000000000000000000000000000081525081565b6040517fcc2f84520000000000000000000000000000000000000000000000000000000081526001600482018190526064602483015290600090819073ffffffffffffffffffffffffffffffffffffffff85169063cc2f845290604401600060405180830381865afa1580156109d0573d6000803e3d6000fd5b505050506040513d6000823e601f3d9081017fffffffffffffffffffffffffffffffffffffffffffffffffffffffffffffffe0168201604052610a169190810190615573565b50905060005b8151811015610b47576000828281518110610a3957610a39615637565b602090810291909101810151604080516004815260248101825292830180517bffffffffffffffffffffffffffffffffffffffffffffffffffffffff167f2bcadc240000000000000000000000000000000000000000000000000000000017905251909250600091829173ffffffffffffffffffffffffffffffffffffffff851691610ac491615666565b600060405180830381855afa9150503d8060008114610aff576040519150601f19603f3d011682016040523d82523d6000602084013e610b04565b606091505b50915091508115610b2f5780806020019051810190610b239190615682565b95505050505050915091565b50909450819050610b3f816156ce565b915050610a1c565b5060009485945092505050565b6000808036610b64601482615706565b610b6f92829061571d565b610b7891615747565b60601c905073ffffffffffffffffffffffffffffffffffffffff7f0000000000000000000000000000000000000000000000000000000000000000168114610c21576040517f08c379a000000000000000000000000000000000000000000000000000000000815260206004820152601c60248201527f6163636f756e743a206e6f742066726f6d20656e747279706f696e740000000060448201526064015b60405180910390fd5b306000610c7b876040517f19457468657265756d205369676e6564204d6573736167653a0a3332000000006020820152603c8101829052600090605c01604051602081830303815290604052805190602001209050919050565b90506000610ccd610c906101408b018b61578f565b8080601f0160208091040260200160405190810160405280939291908181526020018383808284376000920191909152508693925050613f7b9050565b9050600454600114610d3b576040517f08c379a000000000000000000000000000000000000000000000000000000000815260206004820152601960248201527f6163636f756e743a206f6e6c79207468726573686f6c642031000000000000006044820152606401610c18565b6040517f2f54bf6e00000000000000000000000000000000000000000000000000000000815273ffffffffffffffffffffffffffffffffffffffff8281166004830152841690632f54bf6e90602401602060405180830381865afa158015610da7573d6000803e3d6000fd5b505050506040513d601f19601f82011682018060405250810190610dcb91906157f4565b610e01576040517f08c379a0000000000000000000000000000000000000000000000000000000008152600401610c1890615816565b610e0e60408a018a61578f565b9050600003610e97576005805460208b0135916000610e2c836156ce565b9190505514610e97576040517f08c379a000000000000000000000000000000000000000000000000000000000815260206004820152601660248201527f6163636f756e743a20696e76616c6964206e6f6e6365000000000000000000006044820152606401610c18565b8515610f015760008473ffffffffffffffffffffffffffffffffffffffff168760405160006040518083038185875af1925050503d8060008114610ef7576040519150601f19603f3d011682016040523d82523d6000602084013e610efc565b606091505b505050505b60009450505050505b949350505050565b610f1a613f97565b73ffffffffffffffffffffffffffffffffffffffff821615801590610f56575073ffffffffffffffffffffffffffffffffffffffff8216600114155b8015610f78575073ffffffffffffffffffffffffffffffffffffffff82163014155b610fde576040517f08c379a000000000000000000000000000000000000000000000000000000000815260206004820152600560248201527f47533230330000000000000000000000000000000000000000000000000000006044820152606401610c18565b73ffffffffffffffffffffffffffffffffffffffff828116600090815260026020526040902054161561106d576040517f08c379a000000000000000000000000000000000000000000000000000000000815260206004820152600560248201527f47533230340000000000000000000000000000000000000000000000000000006044820152606401610c18565b60026020527fe90b7bceb6e7df5418fb78d8ee546e97c83a08bbccc01a0644d599ccd2a7c2e0805473ffffffffffffffffffffffffffffffffffffffff8481166000818152604081208054939094167fffffffffffffffffffffffff0000000000000000000000000000000000000000938416179093556001835283549091161790915560038054916110ff836156ce565b909155505060405173ffffffffffffffffffffffffffffffffffffffff831681527f9465fa0c962cc76958e6373a993326400c1c94f8be2fe3a952adfa7f60b2ea269060200160405180910390a1806004541461115f5761115f816120ed565b5050565b61116e816041614002565b825110156111d8576040517f08c379a000000000000000000000000000000000000000000000000000000000815260206004820152600560248201527f47533032300000000000000000000000000000000000000000000000000000006044820152606401610c18565b6000808060008060005b868110156117ac576041818102890160208101516040820151919092015160ff169550909350915060008490036114b9579193508391611223876041614002565b82101561128c576040517f08c379a000000000000000000000000000000000000000000000000000000000815260206004820152600560248201527f47533032310000000000000000000000000000000000000000000000000000006044820152606401610c18565b875161129983602061403e565b1115611301576040517f08c379a000000000000000000000000000000000000000000000000000000000815260206004820152600560248201527f47533032320000000000000000000000000000000000000000000000000000006044820152606401610c18565b60208289018101518951909161132490839061131e90879061403e565b9061403e565b111561138c576040517f08c379a000000000000000000000000000000000000000000000000000000000815260206004820152600560248201527f47533032330000000000000000000000000000000000000000000000000000006044820152606401610c18565b6040517f20c13b0b000000000000000000000000000000000000000000000000000000008082528a85016020019173ffffffffffffffffffffffffffffffffffffffff8916906320c13b0b906113e8908f908690600401615853565b602060405180830381865afa158015611405573d6000803e3d6000fd5b505050506040513d601f19601f820116820180604052508101906114299190615878565b7fffffffff0000000000000000000000000000000000000000000000000000000016146114b2576040517f08c379a000000000000000000000000000000000000000000000000000000000815260206004820152600560248201527f47533032340000000000000000000000000000000000000000000000000000006044820152606401610c18565b50506116ac565b8360ff166001036115875791935083913373ffffffffffffffffffffffffffffffffffffffff8416148061151c575073ffffffffffffffffffffffffffffffffffffffff851660009081526008602090815260408083208d845290915290205415155b611582576040517f08c379a000000000000000000000000000000000000000000000000000000000815260206004820152600560248201527f47533032350000000000000000000000000000000000000000000000000000006044820152606401610c18565b6116ac565b601e8460ff16111561164c576040517f19457468657265756d205369676e6564204d6573736167653a0a3332000000006020820152603c81018b9052600190605c01604051602081830303815290604052805190602001206004866115ec91906158ba565b6040805160008152602081018083529390935260ff90911690820152606081018590526080810184905260a0016020604051602081039080840390855afa15801561163b573d6000803e3d6000fd5b5050506020604051035194506116ac565b6040805160008152602081018083528c905260ff861691810191909152606081018490526080810183905260019060a0016020604051602081039080840390855afa15801561169f573d6000803e3d6000fd5b5050506020604051035194505b8573ffffffffffffffffffffffffffffffffffffffff168573ffffffffffffffffffffffffffffffffffffffff1611801561170d575073ffffffffffffffffffffffffffffffffffffffff8581166000908152600260205260409020541615155b8015611730575073ffffffffffffffffffffffffffffffffffffffff8516600114155b611796576040517f08c379a000000000000000000000000000000000000000000000000000000000815260206004820152600560248201527f47533032360000000000000000000000000000000000000000000000000000006044820152606401610c18565b84955080806117a4906156ce565b9150506111e2565b50505050505050505050565b6000600173ffffffffffffffffffffffffffffffffffffffff831614801590611807575073ffffffffffffffffffffffffffffffffffffffff8281166000908152600160205260409020541615155b92915050565b600073ffffffffffffffffffffffffffffffffffffffff821660011480159061180757505073ffffffffffffffffffffffffffffffffffffffff90811660009081526002602052604090205416151590565b60408051604180825260808201909252600091602082018180368337019050509050601b60f81b8160408151811061189957611899615637565b60200101907effffffffffffffffffffffffffffffffffffffffffffffffffffffffffffff1916908160001a905350600160f81b816002815181106118e0576118e0615637565b60200101907effffffffffffffffffffffffffffffffffffffffffffffffffffffffffffff1916908160001a905350600160f81b8160238151811061192757611927615637565b60200101907effffffffffffffffffffffffffffffffffffffffffffffffffffffffffffff1916908160001a905350604080516101608101825273ffffffffffffffffffffffffffffffffffffffff8516815260006020808301829052835180820185528281528385015283518082018552828152606084015260808301829052620f424060a084015260c0830182905260e083018290526101008301829052835190810184528181526101208301526101408201849052825160018082528185019094529192909190816020015b611a69604051806101600160405280600073ffffffffffffffffffffffffffffffffffffffff168152602001600081526020016060815260200160608152602001600081526020016000815260200160008152602001600081526020016000815260200160608152602001606081525090565b8152602001906001900390816119f65790505090508181600081518110611a9257611a92615637565b602002602001018190525060008473ffffffffffffffffffffffffffffffffffffffff1663b0d691fe6040518163ffffffff1660e01b8152600401602060405180830381865afa158015611aea573d6000803e3d6000fd5b505050506040513d601f19601f82011682018060405250810190611b0e9190615682565b6040517f1fad948c00000000000000000000000000000000000000000000000000000000815290915073ffffffffffffffffffffffffffffffffffffffff821690631fad948c90611b6590859033906004016158dd565b600060405180830381600087803b158015611b7f57600080fd5b505af1925050508015611b90575060015b611c9b573d808015611bbe576040519150601f19603f3d011682016040523d82523d6000602084013e611bc3565b606091505b50600080604051602401611bd8929190615a3f565b604080517fffffffffffffffffffffffffffffffffffffffffffffffffffffffffffffffe0818403018152919052602080820180517bffffffffffffffffffffffffffffffffffffffffffffffffffffffff167efa072b00000000000000000000000000000000000000000000000000000000178152915190912082519183019190912014611c9557806040517f08c379a0000000000000000000000000000000000000000000000000000000008152600401610c189190615015565b50611d22565b6040517f08c379a0000000000000000000000000000000000000000000000000000000008152602060048201526024808201527f76616c6964617465456970343333373a2068616e646c654f7073206d7573742060448201527f6661696c000000000000000000000000000000000000000000000000000000006064820152608401610c18565b505050505050565b600033600114801590611d6157503360009081526001602052604090205473ffffffffffffffffffffffffffffffffffffffff1615155b611dc7576040517f08c379a000000000000000000000000000000000000000000000000000000000815260206004820152600560248201527f47533130340000000000000000000000000000000000000000000000000000006044820152606401610c18565b611dd4858585855a61405a565b90508015611e0c5760405133907f6895c13664aa4f67288b25d7a21d7aaa34916e355fb9b6fae0a139a9085becb890600090a2610f0a565b60405133907facd2c8702804128fdb0db2bb49f6d127dd0181c13fd45dbfe16de0930e2bd37590600090a2949350505050565b60006060611e4f86868686611d2a565b915060405160203d0181016040523d81523d6000602083013e8091505094509492505050565b60606000611e84836020615aa1565b67ffffffffffffffff811115611e9c57611e9c614d21565b6040519080825280601f01601f191660200182016040528015611ec6576020820181803683370190505b50905060005b83811015611ef3578481015460208083028401015280611eeb816156ce565b915050611ecc565b509392505050565b611f03613f97565b73ffffffffffffffffffffffffffffffffffffffff811615801590611f3f575073ffffffffffffffffffffffffffffffffffffffff8116600114155b611fa5576040517f08c379a000000000000000000000000000000000000000000000000000000000815260206004820152600560248201527f47533130310000000000000000000000000000000000000000000000000000006044820152606401610c18565b73ffffffffffffffffffffffffffffffffffffffff8181166000908152600160205260409020541615612034576040517f08c379a000000000000000000000000000000000000000000000000000000000815260206004820152600560248201527f47533130320000000000000000000000000000000000000000000000000000006044820152606401610c18565b600160208181527fcc69885fda6bcc1a4ace058b4a62bf5e179ea78fd58a1ccd71c22cc9b688792f805473ffffffffffffffffffffffffffffffffffffffff858116600081815260408082208054949095167fffffffffffffffffffffffff000000000000000000000000000000000000000094851617909455959095528254168417909155519182527fecdf3a3effea5783a3c4c2140e677577666428d44ed9d474a0b3a4c9943f844091015b60405180910390a150565b6120f5613f97565b600354811115612161576040517f08c379a000000000000000000000000000000000000000000000000000000000815260206004820152600560248201527f47533230310000000000000000000000000000000000000000000000000000006044820152606401610c18565b60018110156121cc576040517f08c379a000000000000000000000000000000000000000000000000000000000815260206004820152600560248201527f47533230320000000000000000000000000000000000000000000000000000006044820152606401610c18565b60048190556040518181527f610f7ff2b304ae8903c3de74c60c6ab1f7d6226b3f52c5161905bb5ad4039c93906020016120e2565b600080600061221b8e8e8e8e8e8e8e8e8e8e600554613522565b60058054919250600061222d836156ce565b90915550508051602082012091506122468282866125fb565b5060006122717f4a204f620c8c5ccdca3fd54d003badd85ba500436a431f0cbda4f558c93c34c85490565b905073ffffffffffffffffffffffffffffffffffffffff811615612311578073ffffffffffffffffffffffffffffffffffffffff166375f0bb528f8f8f8f8f8f8f8f8f8f8f336040518d63ffffffff1660e01b81526004016122de9c9b9a99989796959493929190615b48565b600060405180830381600087803b1580156122f857600080fd5b505af115801561230c573d6000803e3d6000fd5b505050505b61233d6123208a6109c4615c5e565b603f61232d8c6040615aa1565b6123379190615c76565b906140a1565b612349906101f4615c5e565b5a10156123b2576040517f08c379a000000000000000000000000000000000000000000000000000000000815260206004820152600560248201527f47533031300000000000000000000000000000000000000000000000000000006044820152606401610c18565b60005a90506124238f8f8f8f8080601f016020809104026020016040519081016040528093929190818152602001838380828437600081840152601f19601f820116905080830192505050505050508e8c600014612410578e61405a565b6109c45a61241e9190615706565b61405a565b93506124305a82906140b8565b9050838061243d57508915155b8061244757508715155b6124ad576040517f08c379a000000000000000000000000000000000000000000000000000000000815260206004820152600560248201527f47533031330000000000000000000000000000000000000000000000000000006044820152606401610c18565b600088156124c5576124c2828b8b8b8b6140d3565b90505b84156125095760408051858152602081018390527f442e715f626346e8c54381002da614f62bee8d27386535b2521ec8540898556e910160405180910390a1612543565b60408051858152602081018390527f23428b18acfb3ea64b08dc0c1d296ea9c09702c09083ca5272e64d115b687d23910160405180910390a15b505073ffffffffffffffffffffffffffffffffffffffff8116156125ea576040517f9327136800000000000000000000000000000000000000000000000000000000815260048101839052831515602482015273ffffffffffffffffffffffffffffffffffffffff821690639327136890604401600060405180830381600087803b1580156125d157600080fd5b505af11580156125e5573d6000803e3d6000fd5b505050505b50509b9a5050505050505050505050565b60045480612665576040517f08c379a000000000000000000000000000000000000000000000000000000000815260206004820152600560248201527f47533030310000000000000000000000000000000000000000000000000000006044820152606401610c18565b61267184848484611163565b50505050565b60008036612686601482615706565b61269192829061571d565b61269a91615747565b60601c905073ffffffffffffffffffffffffffffffffffffffff7f000000000000000000000000000000000000000000000000000000000000000016811461273e576040517f08c379a000000000000000000000000000000000000000000000000000000000815260206004820152601c60248201527f6163636f756e743a206e6f742066726f6d20656e747279706f696e74000000006044820152606401610c18565b60008061274d87878787611e3f565b91509150816127b25760448151101561276557600080fd5b6004810190508080602001905181019061277f9190615cb1565b6040517f08c379a0000000000000000000000000000000000000000000000000000000008152600401610c189190615015565b50505050505050565b6060600060035467ffffffffffffffff8111156127da576127da614d21565b604051908082528060200260200182016040528015612803578160200160208202803683370190505b506001600090815260026020527fe90b7bceb6e7df5418fb78d8ee546e97c83a08bbccc01a0644d599ccd2a7c2e0549192509073ffffffffffffffffffffffffffffffffffffffff165b73ffffffffffffffffffffffffffffffffffffffff81166001146128cb578083838151811061287e5761287e615637565b73ffffffffffffffffffffffffffffffffffffffff9283166020918202929092018101919091529181166000908152600290925260409091205416816128c3816156ce565b92505061284d565b509092915050565b600080825160208401855af480600052503d6020523d600060403e60403d016000fd5b6129348a8a808060200260200160405190810160405280939291908181526020018383602002808284376000920191909152508c9250614264915050565b73ffffffffffffffffffffffffffffffffffffffff84161561297857612978847f6c9a6c4a39284e37ed1cf53d337577d14212a4870fb976a4366c693b939918d555565b6129b88787878080601f01602080910402602001604051908101604052809392919081815260200183838082843760009201919091525061463192505050565b81156129cf576129cd826000600186856140d3565b505b3373ffffffffffffffffffffffffffffffffffffffff167f141df868a6331af528e38c83b7aa03edc19be66e37ae67f9285bf4f8e3c6a1a88b8b8b8b89604051612a1d959493929190615d1f565b60405180910390a250505050505050505050565b6000805a9050612a7a878787878080601f01602080910402602001604051908101604052809392919081815260200183838082843760009201919091525089925050505a61405a565b612a8357600080fd5b60005a612a909083615706565b905080604051602001612aa591815260200190565b604080517fffffffffffffffffffffffffffffffffffffffffffffffffffffffffffffffe0818403018152908290527f08c379a0000000000000000000000000000000000000000000000000000000008252610c1891600401615015565b606060008267ffffffffffffffff811115612b2057612b20614d21565b604051908082528060200260200182016040528015612b49578160200160208202803683370190505b5073ffffffffffffffffffffffffffffffffffffffff80861660009081526001602052604081205492945091165b73ffffffffffffffffffffffffffffffffffffffff811615801590612bb3575073ffffffffffffffffffffffffffffffffffffffff8116600114155b8015612bbe57508482105b15612c235780848381518110612bd657612bd6615637565b73ffffffffffffffffffffffffffffffffffffffff928316602091820292909201810191909152918116600090815260019092526040909120541681612c1b816156ce565b925050612b77565b908352919491935090915050565b60003090508073ffffffffffffffffffffffffffffffffffffffff1663610b59258373ffffffffffffffffffffffffffffffffffffffff1663b0d691fe6040518163ffffffff1660e01b8152600401602060405180830381865afa158015612c9d573d6000803e3d6000fd5b505050506040513d601f19601f82011682018060405250810190612cc19190615682565b6040517fffffffff0000000000000000000000000000000000000000000000000000000060e084901b16815273ffffffffffffffffffffffffffffffffffffffff9091166004820152602401600060405180830381600087803b158015612d2757600080fd5b505af1158015612d3b573d6000803e3d6000fd5b505050508073ffffffffffffffffffffffffffffffffffffffff1663610b59258373ffffffffffffffffffffffffffffffffffffffff166370b8a01d6040518163ffffffff1660e01b8152600401602060405180830381865afa158015612da6573d6000803e3d6000fd5b505050506040513d601f19601f82011682018060405250810190612dca9190615682565b6040517fffffffff0000000000000000000000000000000000000000000000000000000060e084901b16815273ffffffffffffffffffffffffffffffffffffffff9091166004820152602401600060405180830381600087803b158015612e3057600080fd5b505af1158015611d22573d6000803e3d6000fd5b3360009081526002602052604090205473ffffffffffffffffffffffffffffffffffffffff16612ed0576040517f08c379a000000000000000000000000000000000000000000000000000000000815260206004820152600560248201527f47533033300000000000000000000000000000000000000000000000000000006044820152606401610c18565b336000818152600860209081526040808320858452909152808220600190555183917ff2a0eb156472d1440255b0d7c1e19cc07115d1051fe605b0dce69acfec884d9c91a350565b6000612f2d8c8c8c8c8c8c8c8c8c8c8c613522565b8051906020012090509b9a5050505050505050505050565b612f4d613f97565b73ffffffffffffffffffffffffffffffffffffffff811615801590612f89575073ffffffffffffffffffffffffffffffffffffffff8116600114155b612fef576040517f08c379a000000000000000000000000000000000000000000000000000000000815260206004820152600560248201527f47533130310000000000000000000000000000000000000000000000000000006044820152606401610c18565b73ffffffffffffffffffffffffffffffffffffffff828116600090815260016020526040902054811690821614613082576040517f08c379a000000000000000000000000000000000000000000000000000000000815260206004820152600560248201527f47533130330000000000000000000000000000000000000000000000000000006044820152606401610c18565b73ffffffffffffffffffffffffffffffffffffffff8181166000818152600160209081526040808320805488871685528285208054919097167fffffffffffffffffffffffff00000000000000000000000000000000000000009182161790965592849052825490941690915591519081527faab4fa2b463f581b2b32cb3b7e3b704b9ce37cc209b5fb4d77e593ace405427691015b60405180910390a15050565b61312c613f97565b7f4a204f620c8c5ccdca3fd54d003badd85ba500436a431f0cbda4f558c93c34c881815560405173ffffffffffffffffffffffffffffffffffffffff831681527f1151116914515bc0891ff9047a6cb32cf902546f83066499bcf8ba33d2353fa290602001613118565b61319e613f97565b73ffffffffffffffffffffffffffffffffffffffff8116158015906131da575073ffffffffffffffffffffffffffffffffffffffff8116600114155b80156131fc575073ffffffffffffffffffffffffffffffffffffffff81163014155b613262576040517f08c379a000000000000000000000000000000000000000000000000000000000815260206004820152600560248201527f47533230330000000000000000000000000000000000000000000000000000006044820152606401610c18565b73ffffffffffffffffffffffffffffffffffffffff81811660009081526002602052604090205416156132f1576040517f08c379a000000000000000000000000000000000000000000000000000000000815260206004820152600560248201527f47533230340000000000000000000000000000000000000000000000000000006044820152606401610c18565b73ffffffffffffffffffffffffffffffffffffffff82161580159061332d575073ffffffffffffffffffffffffffffffffffffffff8216600114155b613393576040517f08c379a000000000000000000000000000000000000000000000000000000000815260206004820152600560248201527f47533230330000000000000000000000000000000000000000000000000000006044820152606401610c18565b73ffffffffffffffffffffffffffffffffffffffff838116600090815260026020526040902054811690831614613426576040517f08c379a000000000000000000000000000000000000000000000000000000000815260206004820152600560248201527f47533230350000000000000000000000000000000000000000000000000000006044820152606401610c18565b73ffffffffffffffffffffffffffffffffffffffff8281166000818152600260209081526040808320805487871680865283862080549289167fffffffffffffffffffffffff0000000000000000000000000000000000000000938416179055968a1685528285208054821690971790965592849052825490941690915591519081527ff8d49fc529812e9a7c5c50e69c20f0dccc0db8fa95c98bc58cc9a4f1c1299eaf910160405180910390a160405173ffffffffffffffffffffffffffffffffffffffff821681527f9465fa0c962cc76958e6373a993326400c1c94f8be2fe3a952adfa7f60b2ea269060200160405180910390a1505050565b606060007fbb8310d486368db6bd6f849402fdd73ad53d316b5a4b2644ad6efe0f941286d860001b8d8d8d8d60405161355c929190615da5565b604051908190038120613582949392918e908e908e908e908e908e908e90602001615db5565b604080517fffffffffffffffffffffffffffffffffffffffffffffffffffffffffffffffe0818403018152919052805160209091012090507f19000000000000000000000000000000000000000000000000000000000000007f010000000000000000000000000000000000000000000000000000000000000061365660007f47e79534a245952e8b16893a336b85a3d9ea9fa8c573f3d803afb92a794692184660408051602081019390935282015230606082015260800160405160208183030381529060405280519060200120905090565b6040517fff0000000000000000000000000000000000000000000000000000000000000093841660208201529290911660218301526022820152604281018290526062016040516020818303038152906040529150509b9a5050505050505050505050565b600030905060008373ffffffffffffffffffffffffffffffffffffffff166370b8a01d6040518163ffffffff1660e01b8152600401602060405180830381865afa15801561370d573d6000803e3d6000fd5b505050506040513d601f19601f820116820180604052508101906137319190615682565b6040517f2d9ad53d00000000000000000000000000000000000000000000000000000000815273ffffffffffffffffffffffffffffffffffffffff808316600483015291925090831690632d9ad53d90602401602060405180830381865afa1580156137a1573d6000803e3d6000fd5b505050506040513d601f19601f820116820180604052508101906137c591906157f4565b613851576040517f08c379a000000000000000000000000000000000000000000000000000000000815260206004820152602f60248201527f7265706c616365454950343333374d616e616765723a206f6c644d616e61676560448201527f72206973206e6f742061637469766500000000000000000000000000000000006064820152608401610c18565b8173ffffffffffffffffffffffffffffffffffffffff1663e009cfde828673ffffffffffffffffffffffffffffffffffffffff1663b0d691fe6040518163ffffffff1660e01b8152600401602060405180830381865afa1580156138b9573d6000803e3d6000fd5b505050506040513d601f19601f820116820180604052508101906138dd9190615682565b6040517fffffffff0000000000000000000000000000000000000000000000000000000060e085901b16815273ffffffffffffffffffffffffffffffffffffffff928316600482015291166024820152604401600060405180830381600087803b15801561394a57600080fd5b505af115801561395e573d6000803e3d6000fd5b50506040517fe009cfde00000000000000000000000000000000000000000000000000000000815273ffffffffffffffffffffffffffffffffffffffff888116600483015284811660248301528516925063e009cfde9150604401600060405180830381600087803b1580156139d357600080fd5b505af11580156139e7573d6000803e3d6000fd5b5050505060008373ffffffffffffffffffffffffffffffffffffffff166370b8a01d6040518163ffffffff1660e01b8152600401602060405180830381865afa158015613a38573d6000803e3d6000fd5b505050506040513d601f19601f82011682018060405250810190613a5c9190615682565b90508273ffffffffffffffffffffffffffffffffffffffff1663610b59258573ffffffffffffffffffffffffffffffffffffffff1663b0d691fe6040518163ffffffff1660e01b8152600401602060405180830381865afa158015613ac5573d6000803e3d6000fd5b505050506040513d601f19601f82011682018060405250810190613ae99190615682565b6040517fffffffff0000000000000000000000000000000000000000000000000000000060e084901b16815273ffffffffffffffffffffffffffffffffffffffff9091166004820152602401600060405180830381600087803b158015613b4f57600080fd5b505af1158015613b63573d6000803e3d6000fd5b50506040517f610b592500000000000000000000000000000000000000000000000000000000815273ffffffffffffffffffffffffffffffffffffffff84811660048301528616925063610b59259150602401600060405180830381600087803b158015613bd057600080fd5b505af1158015613be4573d6000803e3d6000fd5b50506040517ff08a032300000000000000000000000000000000000000000000000000000000815273ffffffffffffffffffffffffffffffffffffffff84811660048301528616925063f08a03239150602401600060405180830381600087803b158015613c5157600080fd5b505af1158015613c65573d6000803e3d6000fd5b50505050611d22838561185f565b613c7b613f97565b613ca3817f6c9a6c4a39284e37ed1cf53d337577d14212a4870fb976a4366c693b939918d555565b60405173ffffffffffffffffffffffffffffffffffffffff821681527f5ac6c46c93c8d0e53714ba3b53db3e7c046da994313d7ed0d192028bc7c228b0906020016120e2565b613cf1613f97565b806001600354613d019190615706565b1015613d69576040517f08c379a000000000000000000000000000000000000000000000000000000000815260206004820152600560248201527f47533230310000000000000000000000000000000000000000000000000000006044820152606401610c18565b73ffffffffffffffffffffffffffffffffffffffff821615801590613da5575073ffffffffffffffffffffffffffffffffffffffff8216600114155b613e0b576040517f08c379a000000000000000000000000000000000000000000000000000000000815260206004820152600560248201527f47533230330000000000000000000000000000000000000000000000000000006044820152606401610c18565b73ffffffffffffffffffffffffffffffffffffffff838116600090815260026020526040902054811690831614613e9e576040517f08c379a000000000000000000000000000000000000000000000000000000000815260206004820152600560248201527f47533230350000000000000000000000000000000000000000000000000000006044820152606401610c18565b73ffffffffffffffffffffffffffffffffffffffff828116600081815260026020526040808220805488861684529183208054929095167fffffffffffffffffffffffff00000000000000000000000000000000000000009283161790945591815282549091169091556003805491613f1683615e32565b909155505060405173ffffffffffffffffffffffffffffffffffffffff831681527ff8d49fc529812e9a7c5c50e69c20f0dccc0db8fa95c98bc58cc9a4f1c1299eaf9060200160405180910390a18060045414613f7657613f76816120ed565b505050565b6000806000613f8a85856147c1565b91509150611ef381614806565b333014614000576040517f08c379a000000000000000000000000000000000000000000000000000000000815260206004820152600560248201527f47533033310000000000000000000000000000000000000000000000000000006044820152606401610c18565b565b60008260000361401457506000611807565b60006140208385615aa1565b90508261402d8583615c76565b1461403757600080fd5b9392505050565b60008061404b8385615c5e565b90508381101561403757600080fd5b6000600183600181111561407057614070615ade565b03614088576000808551602087018986f49050614098565b600080855160208701888a87f190505b95945050505050565b6000818310156140b15781614037565b5090919050565b6000828211156140c757600080fd5b6000610f0a8385615706565b60008073ffffffffffffffffffffffffffffffffffffffff8316156140f857826140fa565b325b905073ffffffffffffffffffffffffffffffffffffffff84166141d9576141393a8610614127573a614129565b855b614133898961403e565b90614002565b60405190925073ffffffffffffffffffffffffffffffffffffffff82169083156108fc029084906000818181858888f193505050506141d4576040517f08c379a000000000000000000000000000000000000000000000000000000000815260206004820152600560248201527f47533031310000000000000000000000000000000000000000000000000000006044820152606401610c18565b61425a565b6141e785614133898961403e565b91506141f4848284614a5d565b61425a576040517f08c379a000000000000000000000000000000000000000000000000000000000815260206004820152600560248201527f47533031320000000000000000000000000000000000000000000000000000006044820152606401610c18565b5095945050505050565b600454156142ce576040517f08c379a000000000000000000000000000000000000000000000000000000000815260206004820152600560248201527f47533230300000000000000000000000000000000000000000000000000000006044820152606401610c18565b8151811115614339576040517f08c379a000000000000000000000000000000000000000000000000000000000815260206004820152600560248201527f47533230310000000000000000000000000000000000000000000000000000006044820152606401610c18565b60018110156143a4576040517f08c379a000000000000000000000000000000000000000000000000000000000815260206004820152600560248201527f47533230320000000000000000000000000000000000000000000000000000006044820152606401610c18565b600160005b83518110156145d95760008482815181106143c6576143c6615637565b60200260200101519050600073ffffffffffffffffffffffffffffffffffffffff168173ffffffffffffffffffffffffffffffffffffffff1614158015614424575073ffffffffffffffffffffffffffffffffffffffff8116600114155b8015614446575073ffffffffffffffffffffffffffffffffffffffff81163014155b801561447e57508073ffffffffffffffffffffffffffffffffffffffff168373ffffffffffffffffffffffffffffffffffffffff1614155b6144e4576040517f08c379a000000000000000000000000000000000000000000000000000000000815260206004820152600560248201527f47533230330000000000000000000000000000000000000000000000000000006044820152606401610c18565b73ffffffffffffffffffffffffffffffffffffffff8181166000908152600260205260409020541615614573576040517f08c379a000000000000000000000000000000000000000000000000000000000815260206004820152600560248201527f47533230340000000000000000000000000000000000000000000000000000006044820152606401610c18565b73ffffffffffffffffffffffffffffffffffffffff928316600090815260026020526040902080547fffffffffffffffffffffffff00000000000000000000000000000000000000001693821693909317909255806145d1816156ce565b9150506143a9565b5073ffffffffffffffffffffffffffffffffffffffff16600090815260026020526040902080547fffffffffffffffffffffffff00000000000000000000000000000000000000001660011790559051600355600455565b600160008190526020527fcc69885fda6bcc1a4ace058b4a62bf5e179ea78fd58a1ccd71c22cc9b688792f5473ffffffffffffffffffffffffffffffffffffffff16156146da576040517f08c379a000000000000000000000000000000000000000000000000000000000815260206004820152600560248201527f47533130300000000000000000000000000000000000000000000000000000006044820152606401610c18565b6001600081905260208190527fcc69885fda6bcc1a4ace058b4a62bf5e179ea78fd58a1ccd71c22cc9b688792f80547fffffffffffffffffffffffff000000000000000000000000000000000000000016909117905573ffffffffffffffffffffffffffffffffffffffff82161561115f5761475b8260008360015a61405a565b61115f576040517f08c379a000000000000000000000000000000000000000000000000000000000815260206004820152600560248201527f47533030300000000000000000000000000000000000000000000000000000006044820152606401610c18565b60008082516041036147f75760208301516040840151606085015160001a6147eb87828585614b27565b945094505050506147ff565b506000905060025b9250929050565b600081600481111561481a5761481a615ade565b036148225750565b600181600481111561483657614836615ade565b0361489d576040517f08c379a000000000000000000000000000000000000000000000000000000000815260206004820152601860248201527f45434453413a20696e76616c6964207369676e617475726500000000000000006044820152606401610c18565b60028160048111156148b1576148b1615ade565b03614918576040517f08c379a000000000000000000000000000000000000000000000000000000000815260206004820152601f60248201527f45434453413a20696e76616c6964207369676e6174757265206c656e677468006044820152606401610c18565b600381600481111561492c5761492c615ade565b036149b9576040517f08c379a000000000000000000000000000000000000000000000000000000000815260206004820152602260248201527f45434453413a20696e76616c6964207369676e6174757265202773272076616c60448201527f75650000000000000000000000000000000000000000000000000000000000006064820152608401610c18565b60048160048111156149cd576149cd615ade565b03614a5a576040517f08c379a000000000000000000000000000000000000000000000000000000000815260206004820152602260248201527f45434453413a20696e76616c6964207369676e6174757265202776272076616c60448201527f75650000000000000000000000000000000000000000000000000000000000006064820152608401610c18565b50565b6040805173ffffffffffffffffffffffffffffffffffffffff841660248201526044808201849052825180830390910181526064909101909152602080820180517bffffffffffffffffffffffffffffffffffffffffffffffffffffffff167fa9059cbb000000000000000000000000000000000000000000000000000000001781528251600093929184919082896127105a03f13d8015614b0a5760208114614b125760009350614b1d565b819350614b1d565b600051158215171593505b5050509392505050565b6000807f7fffffffffffffffffffffffffffffff5d576e7357a4501ddfe92f46681b20a0831115614b5e5750600090506003614c36565b8460ff16601b14158015614b7657508460ff16601c14155b15614b875750600090506004614c36565b6040805160008082526020820180845289905260ff881692820192909252606081018690526080810185905260019060a0016020604051602081039080840390855afa158015614bdb573d6000803e3d6000fd5b50506040517fffffffffffffffffffffffffffffffffffffffffffffffffffffffffffffffe0015191505073ffffffffffffffffffffffffffffffffffffffff8116614c2f57600060019250925050614c36565b9150600090505b94509492505050565b73ffffffffffffffffffffffffffffffffffffffff81168114614a5a57600080fd5b600060208284031215614c7357600080fd5b813561403781614c3f565b8035614c8981614c3f565b919050565b60008060008060808587031215614ca457600080fd5b843567ffffffffffffffff811115614cbb57600080fd5b85016101608188031215614cce57600080fd5b9350602085013592506040850135614ce581614c3f565b9396929550929360600135925050565b60008060408385031215614d0857600080fd5b8235614d1381614c3f565b946020939093013593505050565b7f4e487b7100000000000000000000000000000000000000000000000000000000600052604160045260246000fd5b604051601f82017fffffffffffffffffffffffffffffffffffffffffffffffffffffffffffffffe016810167ffffffffffffffff81118282101715614d9757614d97614d21565b604052919050565b600067ffffffffffffffff821115614db957614db9614d21565b50601f017fffffffffffffffffffffffffffffffffffffffffffffffffffffffffffffffe01660200190565b600082601f830112614df657600080fd5b8135614e09614e0482614d9f565b614d50565b818152846020838601011115614e1e57600080fd5b816020850160208301376000918101602001919091529392505050565b60008060008060808587031215614e5157600080fd5b84359350602085013567ffffffffffffffff80821115614e7057600080fd5b614e7c88838901614de5565b94506040870135915080821115614e9257600080fd5b50614e9f87828801614de5565b949793965093946060013593505050565b60008060408385031215614ec357600080fd5b8235614ece81614c3f565b91506020830135614ede81614c3f565b809150509250929050565b803560028110614c8957600080fd5b60008060008060808587031215614f0e57600080fd5b8435614f1981614c3f565b935060208501359250604085013567ffffffffffffffff811115614f3c57600080fd5b614f4887828801614de5565b925050614f5760608601614ee9565b905092959194509250565b60005b83811015614f7d578181015183820152602001614f65565b838111156126715750506000910152565b60008151808452614fa6816020860160208601614f62565b601f017fffffffffffffffffffffffffffffffffffffffffffffffffffffffffffffffe0169290920160200192915050565b8215158152604060208201526000610f0a6040830184614f8e565b6000806040838503121561500657600080fd5b50508035926020909101359150565b6020815260006140376020830184614f8e565b60006020828403121561503a57600080fd5b5035919050565b60008083601f84011261505357600080fd5b50813567ffffffffffffffff81111561506b57600080fd5b6020830191508360208285010111156147ff57600080fd5b60008060008060008060008060008060006101408c8e0312156150a557600080fd5b6150ae8c614c7e565b9a5060208c0135995067ffffffffffffffff8060408e013511156150d157600080fd5b6150e18e60408f01358f01615041565b909a5098506150f260608e01614ee9565b975060808d0135965060a08d0135955060c08d0135945061511560e08e01614c7e565b93506151246101008e01614c7e565b9250806101208e0135111561513857600080fd5b5061514a8d6101208e01358e01614de5565b90509295989b509295989b9093969950565b60008060006060848603121561517157600080fd5b83359250602084013567ffffffffffffffff8082111561519057600080fd5b61519c87838801614de5565b935060408601359150808211156151b257600080fd5b506151bf86828701614de5565b9150509250925092565b600081518084526020808501945080840160005b8381101561520f57815173ffffffffffffffffffffffffffffffffffffffff16875295820195908201906001016151dd565b509495945050505050565b60208152600061403760208301846151c9565b6000806040838503121561524057600080fd5b823561524b81614c3f565b9150602083013567ffffffffffffffff81111561526757600080fd5b61527385828601614de5565b9150509250929050565b6000806000806000806000806000806101008b8d03121561529d57600080fd5b8a3567ffffffffffffffff808211156152b557600080fd5b818d0191508d601f8301126152c957600080fd5b8135818111156152d857600080fd5b8e60208260051b85010111156152ed57600080fd5b60208381019d50909b508d0135995061530860408e01614c7e565b985060608d013591508082111561531e57600080fd5b5061532b8d828e01615041565b909750955061533e905060808c01614c7e565b935061534c60a08c01614c7e565b925060c08b0135915061536160e08c01614c7e565b90509295989b9194979a5092959850565b60008060008060006080868803121561538a57600080fd5b853561539581614c3f565b945060208601359350604086013567ffffffffffffffff8111156153b857600080fd5b6153c488828901615041565b90945092506153d7905060608701614ee9565b90509295509295909350565b6040815260006153f660408301856151c9565b905073ffffffffffffffffffffffffffffffffffffffff831660208301529392505050565b60008060008060008060008060008060006101408c8e03121561543d57600080fd5b8b3561544881614c3f565b9a5060208c0135995060408c013567ffffffffffffffff81111561546b57600080fd5b6154778e828f01615041565b909a50985061548a905060608d01614ee9565b965060808c0135955060a08c0135945060c08c0135935060e08c01356154af81614c3f565b92506101008c01356154c081614c3f565b809250506101208c013590509295989b509295989b9093969950565b6000806000606084860312156154f157600080fd5b83356154fc81614c3f565b9250602084013561550c81614c3f565b9150604084013561551c81614c3f565b809150509250925092565b60008060006060848603121561553c57600080fd5b833561554781614c3f565b9250602084013561555781614c3f565b929592945050506040919091013590565b8051614c8981614c3f565b6000806040838503121561558657600080fd5b825167ffffffffffffffff8082111561559e57600080fd5b818501915085601f8301126155b257600080fd5b81516020828211156155c6576155c6614d21565b8160051b92506155d7818401614d50565b82815292840181019281810190898511156155f157600080fd5b948201945b8486101561561b578551935061560b84614c3f565b83825294820194908201906155f6565b965061562a9050878201615568565b9450505050509250929050565b7f4e487b7100000000000000000000000000000000000000000000000000000000600052603260045260246000fd5b60008251615678818460208701614f62565b9190910192915050565b60006020828403121561569457600080fd5b815161403781614c3f565b7f4e487b7100000000000000000000000000000000000000000000000000000000600052601160045260246000fd5b60007fffffffffffffffffffffffffffffffffffffffffffffffffffffffffffffffff82036156ff576156ff61569f565b5060010190565b6000828210156157185761571861569f565b500390565b6000808585111561572d57600080fd5b8386111561573a57600080fd5b5050820193919092039150565b7fffffffffffffffffffffffffffffffffffffffff00000000000000000000000081358181169160148510156157875780818660140360031b1b83161692505b505092915050565b60008083357fffffffffffffffffffffffffffffffffffffffffffffffffffffffffffffffe18436030181126157c457600080fd5b83018035915067ffffffffffffffff8211156157df57600080fd5b6020019150368190038213156147ff57600080fd5b60006020828403121561580657600080fd5b8151801515811461403757600080fd5b60208152600061180760208301601881527f6163636f756e743a2077726f6e67207369676e61747572650000000000000000602082015260400190565b6040815260006158666040830185614f8e565b82810360208401526140988185614f8e565b60006020828403121561588a57600080fd5b81517fffffffff000000000000000000000000000000000000000000000000000000008116811461403757600080fd5b600060ff821660ff8416808210156158d4576158d461569f565b90039392505050565b60006040808301818452808651808352606092508286019150828160051b8701016020808a0160005b84811015615a0c578984037fffffffffffffffffffffffffffffffffffffffffffffffffffffffffffffffa00186528151805173ffffffffffffffffffffffffffffffffffffffff168552610160848201518587015289820151818b88015261597182880182614f8e565b915050888201518682038a8801526159898282614f8e565b6080848101519089015260a0808501519089015260c0808501519089015260e08085015190890152610100808501519089015261012080850151898303828b015291935091506159d98382614f8e565b9250505061014080830151925086820381880152506159f88183614f8e565b978501979550505090820190600101615906565b5050819650615a328189018a73ffffffffffffffffffffffffffffffffffffffff169052565b5050505050509392505050565b60ff8316815273ffffffffffffffffffffffffffffffffffffffff82166020820152606060408201526000610f0a60608301601881527f6163636f756e743a2077726f6e67207369676e61747572650000000000000000602082015260400190565b6000817fffffffffffffffffffffffffffffffffffffffffffffffffffffffffffffffff0483118215151615615ad957615ad961569f565b500290565b7f4e487b7100000000000000000000000000000000000000000000000000000000600052602160045260246000fd5b60028110615b44577f4e487b7100000000000000000000000000000000000000000000000000000000600052602160045260246000fd5b9052565b600061016073ffffffffffffffffffffffffffffffffffffffff8f1683528d60208401528060408401528b81840152506101808b8d828501376000818d850101527fffffffffffffffffffffffffffffffffffffffffffffffffffffffffffffffe0601f8d01168301615bbe606085018d615b0d565b8a60808501528960a08501528860c0850152615bf260e085018973ffffffffffffffffffffffffffffffffffffffff169052565b73ffffffffffffffffffffffffffffffffffffffff87166101008501528184820301610120850152615c2682820187614f8e565b92505050615c4d61014083018473ffffffffffffffffffffffffffffffffffffffff169052565b9d9c50505050505050505050505050565b60008219821115615c7157615c7161569f565b500190565b600082615cac577f4e487b7100000000000000000000000000000000000000000000000000000000600052601260045260246000fd5b500490565b600060208284031215615cc357600080fd5b815167ffffffffffffffff811115615cda57600080fd5b8201601f81018413615ceb57600080fd5b8051615cf9614e0482614d9f565b818152856020838501011115615d0e57600080fd5b614098826020830160208601614f62565b6080808252810185905260008660a08301825b88811015615d6f578235615d4581614c3f565b73ffffffffffffffffffffffffffffffffffffffff16825260209283019290910190600101615d32565b506020840196909652505073ffffffffffffffffffffffffffffffffffffffff9283166040820152911660609091015292915050565b8183823760009101908152919050565b6000610160820190508c825273ffffffffffffffffffffffffffffffffffffffff808d1660208401528b60408401528a6060840152615df7608084018b615b0d565b60a083019890985260c082019690965260e0810194909452918516610100840152909316610120820152610140019190915295945050505050565b600081615e4157615e4161569f565b507fffffffffffffffffffffffffffffffffffffffffffffffffffffffffffffffff019056fea264697066735822122015f8c803c75293f76ca32171557216d189dce64edf23309a5567c666b82d30d364736f6c634300080f003360a060405234801561001057600080fd5b50604051610c64380380610c6483398101604081905261002f91610040565b6001600160a01b0316608052610070565b60006020828403121561005257600080fd5b81516001600160a01b038116811461006957600080fd5b9392505050565b608051610bd26100926000396000818161019301526104290152610bd26000f3fe608060405234801561001057600080fd5b50600436106100bd5760003560e01c8063940d3c6011610076578063bc197c811161005b578063bc197c8114610236578063f23a6e6114610271578063ffa1ad74146102aa57600080fd5b8063940d3c60146101da578063a3f4df7e146101ed57600080fd5b80630825d1fc116100a75780630825d1fc14610104578063150b7a02146101255780632bcadc241461018e57600080fd5b806223de29146100c257806301ffc9a7146100dc575b600080fd5b6100da6100d0366004610547565b5050505050505050565b005b6100ef6100ea3660046105f2565b6102e6565b60405190151581526020015b60405180910390f35b61011761011236600461063b565b6103cb565b6040519081526020016100fb565b61015d6101333660046106a0565b7f150b7a020000000000000000000000000000000000000000000000000000000095945050505050565b6040517fffffffff0000000000000000000000000000000000000000000000000000000090911681526020016100fb565b6101b57f000000000000000000000000000000000000000000000000000000000000000081565b60405173ffffffffffffffffffffffffffffffffffffffff90911681526020016100fb565b6100da6101e83660046107d3565b6103e0565b6102296040518060400160405280601881526020017f44656661756c742043616c6c6261636b2048616e646c6572000000000000000081525081565b6040516100fb91906108b0565b61015d610244366004610946565b7fbc197c810000000000000000000000000000000000000000000000000000000098975050505050505050565b61015d61027f3660046109e0565b7ff23a6e61000000000000000000000000000000000000000000000000000000009695505050505050565b6102296040518060400160405280600581526020017f312e302e3000000000000000000000000000000000000000000000000000000081525081565b60007fffffffff0000000000000000000000000000000000000000000000000000000082167f4e2312e000000000000000000000000000000000000000000000000000000000148061037957507fffffffff0000000000000000000000000000000000000000000000000000000082167f150b7a0200000000000000000000000000000000000000000000000000000000145b806103c557507fffffffff0000000000000000000000000000000000000000000000000000000082167f01ffc9a700000000000000000000000000000000000000000000000000000000145b92915050565b60006103d56103ee565b506000949350505050565b6103e86103ee565b50505050565b6040517f5229073f000000000000000000000000000000000000000000000000000000008152339060009081908390635229073f9061045a907f000000000000000000000000000000000000000000000000000000000000000090859081903690600190600401610a58565b6000604051808303816000875af1158015610479573d6000803e3d6000fd5b505050506040513d6000823e601f3d9081017fffffffffffffffffffffffffffffffffffffffffffffffffffffffffffffffe01682016040526104bf9190810190610b0a565b91509150816104d057805160208201fd5b505050565b803573ffffffffffffffffffffffffffffffffffffffff811681146104f957600080fd5b919050565b60008083601f84011261051057600080fd5b50813567ffffffffffffffff81111561052857600080fd5b60208301915083602082850101111561054057600080fd5b9250929050565b60008060008060008060008060c0898b03121561056357600080fd5b61056c896104d5565b975061057a60208a016104d5565b965061058860408a016104d5565b955060608901359450608089013567ffffffffffffffff808211156105ac57600080fd5b6105b88c838d016104fe565b909650945060a08b01359150808211156105d157600080fd5b506105de8b828c016104fe565b999c989b5096995094979396929594505050565b60006020828403121561060457600080fd5b81357fffffffff000000000000000000000000000000000000000000000000000000008116811461063457600080fd5b9392505050565b6000806000806080858703121561065157600080fd5b843567ffffffffffffffff81111561066857600080fd5b8501610160818803121561067b57600080fd5b935060208501359250610690604086016104d5565b9396929550929360600135925050565b6000806000806000608086880312156106b857600080fd5b6106c1866104d5565b94506106cf602087016104d5565b935060408601359250606086013567ffffffffffffffff8111156106f257600080fd5b6106fe888289016104fe565b969995985093965092949392505050565b7f4e487b7100000000000000000000000000000000000000000000000000000000600052604160045260246000fd5b604051601f82017fffffffffffffffffffffffffffffffffffffffffffffffffffffffffffffffe016810167ffffffffffffffff811182821017156107855761078561070f565b604052919050565b600067ffffffffffffffff8211156107a7576107a761070f565b50601f017fffffffffffffffffffffffffffffffffffffffffffffffffffffffffffffffe01660200190565b600080600080608085870312156107e957600080fd5b6107f2856104d5565b935060208501359250604085013567ffffffffffffffff81111561081557600080fd5b8501601f8101871361082657600080fd5b80356108396108348261078d565b61073e565b81815288602083850101111561084e57600080fd5b8160208401602083013760006020838301015280945050505060608501356002811061087957600080fd5b939692955090935050565b60005b8381101561089f578181015183820152602001610887565b838111156103e85750506000910152565b60208152600082518060208401526108cf816040850160208701610884565b601f017fffffffffffffffffffffffffffffffffffffffffffffffffffffffffffffffe0169190910160400192915050565b60008083601f84011261091357600080fd5b50813567ffffffffffffffff81111561092b57600080fd5b6020830191508360208260051b850101111561054057600080fd5b60008060008060008060008060a0898b03121561096257600080fd5b61096b896104d5565b975061097960208a016104d5565b9650604089013567ffffffffffffffff8082111561099657600080fd5b6109a28c838d01610901565b909850965060608b01359150808211156109bb57600080fd5b6109c78c838d01610901565b909650945060808b01359150808211156105d157600080fd5b60008060008060008060a087890312156109f957600080fd5b610a02876104d5565b9550610a10602088016104d5565b94506040870135935060608701359250608087013567ffffffffffffffff811115610a3a57600080fd5b610a4689828a016104fe565b979a9699509497509295939492505050565b73ffffffffffffffffffffffffffffffffffffffff8616815284602082015260806040820152826080820152828460a0830137600060a08483010152600060a07fffffffffffffffffffffffffffffffffffffffffffffffffffffffffffffffe0601f860116830101905060028310610afa577f4e487b7100000000000000000000000000000000000000000000000000000000600052602160045260246000fd5b8260608301529695505050505050565b60008060408385031215610b1d57600080fd5b82518015158114610b2d57600080fd5b602084015190925067ffffffffffffffff811115610b4a57600080fd5b8301601f81018513610b5b57600080fd5b8051610b696108348261078d565b818152866020838501011115610b7e57600080fd5b610b8f826020830160208601610884565b809350505050925092905056fea2646970667358221220dd31f1cd3840257374a37f75fa786fb046e6f9956fe99241d3b0038220bd990964736f6c634300080f0033",
  "devdoc": {
    "kind": "dev",
    "methods": {
      "addOwnerWithThreshold(address,uint256)": {
        "details": "Allows to add a new owner to the Safe and update the threshold at the same time.      This can only be done via a Safe transaction.",
        "params": {
          "_threshold": "New threshold.",
          "owner": "New owner address."
        }
      },
      "approveHash(bytes32)": {
        "details": "Marks a hash as approved. This can be used to validate a hash that is used by a signature.",
        "params": {
          "hashToApprove": "The hash that should be marked as approved for signatures that are verified by this contract."
        }
      },
      "changeThreshold(uint256)": {
        "details": "Allows to update the number of required confirmations by Safe owners.      This can only be done via a Safe transaction.",
        "params": {
          "_threshold": "New threshold."
        }
      },
      "checkNSignatures(bytes32,bytes,bytes,uint256)": {
        "details": "Checks whether the signature provided is valid for the provided data, hash. Will revert otherwise.",
        "params": {
          "data": "That should be signed (this is passed to an external validator contract)",
          "dataHash": "Hash of the data (could be either a message hash or transaction hash)",
          "requiredSignatures": "Amount of required valid signatures.",
          "signatures": "Signature data that should be verified. Can be ECDSA signature, contract signature (EIP-1271) or approved hash."
        }
      },
      "checkSignatures(bytes32,bytes,bytes)": {
        "details": "Checks whether the signature provided is valid for the provided data, hash. Will revert otherwise.",
        "params": {
          "data": "That should be signed (this is passed to an external validator contract)",
          "dataHash": "Hash of the data (could be either a message hash or transaction hash)",
          "signatures": "Signature data that should be verified. Can be ECDSA signature, contract signature (EIP-1271) or approved hash."
        }
      },
      "disableModule(address,address)": {
        "details": "Allows to remove a module from the whitelist.      This can only be done via a Safe transaction.",
        "params": {
          "module": "Module to be removed.",
          "prevModule": "Module that pointed to the module to be removed in the linked list"
        }
      },
      "enableModule(address)": {
        "details": "Allows to add a module to the whitelist.      This can only be done via a Safe transaction.",
        "params": {
          "module": "Module to be whitelisted."
        }
      },
      "encodeTransactionData(address,uint256,bytes,uint8,uint256,uint256,uint256,address,address,uint256)": {
        "details": "Returns the bytes that are hashed to be signed by owners.",
        "params": {
          "_nonce": "Transaction nonce.",
          "baseGas": "Gas costs for that are independent of the transaction execution(e.g. base transaction fee, signature check, payment of the refund)",
          "data": "Data payload.",
          "gasPrice": "Maximum gas price that should be used for this transaction.",
          "gasToken": "Token address (or 0 if ETH) that is used for the payment.",
          "operation": "Operation type.",
          "refundReceiver": "Address of receiver of gas payment (or 0 if tx.origin).",
          "safeTxGas": "Gas that should be used for the safe transaction.",
          "to": "Destination address.",
          "value": "Ether value."
        },
        "returns": {
          "_0": "Transaction hash bytes."
        }
      },
      "execTransaction(address,uint256,bytes,uint8,uint256,uint256,uint256,address,address,bytes)": {
        "details": "Allows to execute a Safe transaction confirmed by required number of owners and then pays the account that submitted the transaction.      Note: The fees are always transferred, even if the user transaction fails.",
        "params": {
          "baseGas": "Gas costs that are independent of the transaction execution(e.g. base transaction fee, signature check, payment of the refund)",
          "data": "Data payload of Safe transaction.",
          "gasPrice": "Gas price that should be used for the payment calculation.",
          "gasToken": "Token address (or 0 if ETH) that is used for the payment.",
          "operation": "Operation type of Safe transaction.",
          "refundReceiver": "Address of receiver of gas payment (or 0 if tx.origin).",
          "safeTxGas": "Gas that should be used for the Safe transaction.",
          "signatures": "Packed signature data ({bytes32 r}{bytes32 s}{uint8 v})",
          "to": "Destination address of Safe transaction.",
          "value": "Ether value of Safe transaction."
        }
      },
      "execTransactionFromModule(address,uint256,bytes,uint8)": {
        "details": "Allows a Module to execute a Safe transaction without any further confirmations.",
        "params": {
          "data": "Data payload of module transaction.",
          "operation": "Operation type of module transaction.",
          "to": "Destination address of module transaction.",
          "value": "Ether value of module transaction."
        }
      },
      "execTransactionFromModuleReturnData(address,uint256,bytes,uint8)": {
        "details": "Allows a Module to execute a Safe transaction without any further confirmations and return data",
        "params": {
          "data": "Data payload of module transaction.",
          "operation": "Operation type of module transaction.",
          "to": "Destination address of module transaction.",
          "value": "Ether value of module transaction."
        }
      },
      "getChainId()": {
        "details": "Returns the chain id used by this contract."
      },
      "getCurrentEIP4337Manager(address)": {
        "returns": {
          "manager": "the current active EIP4337Manager",
          "prev": "prev module, needed by replaceEIP4337Manager"
        }
      },
      "getModulesPaginated(address,uint256)": {
        "details": "Returns array of modules.",
        "params": {
          "pageSize": "Maximum number of modules that should be returned.",
          "start": "Start of the page."
        },
        "returns": {
          "array": "Array of modules.",
          "next": "Start of the next page."
        }
      },
      "getOwners()": {
        "details": "Returns array of owners.",
        "returns": {
          "_0": "Array of Safe owners."
        }
      },
      "getStorageAt(uint256,uint256)": {
        "details": "Reads `length` bytes of storage in the currents contract",
        "params": {
          "length": "- the number of words (32 bytes) of data to read",
          "offset": "- the offset in the current contract's storage in words to start reading from"
        },
        "returns": {
          "_0": "the bytes that were read."
        }
      },
      "getTransactionHash(address,uint256,bytes,uint8,uint256,uint256,uint256,address,address,uint256)": {
        "details": "Returns hash to be signed by owners.",
        "params": {
          "_nonce": "Transaction nonce.",
          "baseGas": "Gas costs for data used to trigger the safe transaction.",
          "data": "Data payload.",
          "gasPrice": "Maximum gas price that should be used for this transaction.",
          "gasToken": "Token address (or 0 if ETH) that is used for the payment.",
          "operation": "Operation type.",
          "refundReceiver": "Address of receiver of gas payment (or 0 if tx.origin).",
          "safeTxGas": "Fas that should be used for the safe transaction.",
          "to": "Destination address.",
          "value": "Ether value."
        },
        "returns": {
          "_0": "Transaction hash."
        }
      },
      "isModuleEnabled(address)": {
        "details": "Returns if an module is enabled",
        "returns": {
          "_0": "True if the module is enabled"
        }
      },
      "removeOwner(address,address,uint256)": {
        "details": "Allows to remove an owner from the Safe and update the threshold at the same time.      This can only be done via a Safe transaction.",
        "params": {
          "_threshold": "New threshold.",
          "owner": "Owner address to be removed.",
          "prevOwner": "Owner that pointed to the owner to be removed in the linked list"
        }
      },
      "replaceEIP4337Manager(address,address,address)": {
        "params": {
          "newManager": "the new EIP4337Manager, usually with a new EntryPoint",
          "oldManager": "the old EIP4337 manager to remove, returned by getCurrentEIP4337Manager",
          "prevModule": "returned by getCurrentEIP4337Manager"
        }
      },
      "requiredTxGas(address,uint256,bytes,uint8)": {
        "details": "Allows to estimate a Safe transaction.      This method is only meant for estimation purpose, therefore the call will always revert and encode the result in the revert data.      Since the `estimateGas` function includes refunds, call this method to get an estimated of the costs that are deducted from the safe with `execTransaction`",
        "params": {
          "data": "Data payload of Safe transaction.",
          "operation": "Operation type of Safe transaction.",
          "to": "Destination address of Safe transaction.",
          "value": "Ether value of Safe transaction."
        },
        "returns": {
          "_0": "Estimate without refunds and overhead fees (base transaction and payload data gas costs)."
        }
      },
      "setFallbackHandler(address)": {
        "details": "Allows to add a contract to handle fallback calls.      Only fallback calls without value and with data will be forwarded.      This can only be done via a Safe transaction.",
        "params": {
          "handler": "contract to handle fallbacks calls."
        }
      },
      "setGuard(address)": {
        "details": "Set a guard that checks transactions before execution",
        "params": {
          "guard": "The address of the guard to be used or the 0 address to disable the guard"
        }
      },
      "setup(address[],uint256,address,bytes,address,address,uint256,address)": {
        "details": "Setup function sets initial storage of contract.",
        "params": {
          "_owners": "List of Safe owners.",
          "_threshold": "Number of required confirmations for a Safe transaction.",
          "data": "Data payload for optional delegate call.",
          "fallbackHandler": "Handler for fallback calls to this contract",
          "payment": "Value that should be paid",
          "paymentReceiver": "Adddress that should receive the payment (or 0 if tx.origin)",
          "paymentToken": "Token that should be used for the payment (0 is ETH)",
          "to": "Contract address for optional delegate call."
        }
      },
      "simulateAndRevert(address,bytes)": {
        "details": "Performs a delegetecall on a targetContract in the context of self. Internally reverts execution to avoid side effects (making it static). This method reverts with data equal to `abi.encode(bool(success), bytes(response))`. Specifically, the `returndata` after a call to this method will be: `success:bool || response.length:uint256 || response:bytes`.",
        "params": {
          "calldataPayload": "Calldata that should be sent to the target contract (encoded method name and arguments).",
          "targetContract": "Address of the contract containing the code to execute."
        }
      },
      "swapOwner(address,address,address)": {
        "details": "Allows to swap/replace an owner from the Safe with another address.      This can only be done via a Safe transaction.",
        "params": {
          "newOwner": "New owner address.",
          "oldOwner": "Owner address to be replaced.",
          "prevOwner": "Owner that pointed to the owner to be replaced in the linked list"
        }
      }
    },
    "version": 1
  },
  "userdoc": {
    "kind": "user",
    "methods": {
      "addOwnerWithThreshold(address,uint256)": {
        "notice": "Adds the owner `owner` to the Safe and updates the threshold to `_threshold`."
      },
      "changeThreshold(uint256)": {
        "notice": "Changes the threshold of the Safe to `_threshold`."
      },
      "disableModule(address,address)": {
        "notice": "Disables the module `module` for the Safe."
      },
      "enableModule(address)": {
        "notice": "Enables the module `module` for the Safe."
      },
      "executeAndRevert(address,uint256,bytes,uint8)": {
        "notice": "Execute a call but also revert if the execution fails. The default behavior of the Safe is to not revert if the call fails, which is challenging for integrating with ERC4337 because then the EntryPoint wouldn't know to emit the UserOperationRevertReason event, which the frontend/client uses to capture the reason for the failure."
      },
      "getCurrentEIP4337Manager(address)": {
        "notice": "enumerate modules, and find the currently active EIP4337 manager (and previous module)"
      },
      "removeOwner(address,address,uint256)": {
        "notice": "Removes the owner `owner` from the Safe and updates the threshold to `_threshold`."
      },
      "replaceEIP4337Manager(address,address,address)": {
        "notice": "replace EIP4337 module, to support a new EntryPoint. must be called using execTransaction and Enum.Operation.DelegateCall"
      },
      "requiredTxGas(address,uint256,bytes,uint8)": {
        "notice": "Deprecated in favor of common/StorageAccessible.sol and will be removed in next version."
      },
      "setup4337Modules(address)": {
        "notice": "set up a safe as EIP-4337 enabled. called from the GnosisSafeAccountFactory during construction time - enable 3 modules (this module, fallback and the entrypoint) - this method is called with delegateCall, so the module (usually itself) is passed as parameter, and \"this\" is the safe itself"
      },
      "swapOwner(address,address,address)": {
        "notice": "Replaces the owner `oldOwner` in the Safe with `newOwner`."
      },
      "validateEip4337(address,address)": {
        "notice": "Validate this gnosisSafe is callable through the EntryPoint. the test is might be incomplete: we check that we reach our validateUserOp and fail on signature.  we don't test full transaction"
      },
      "validateUserOp((address,uint256,bytes,bytes,uint256,uint256,uint256,uint256,uint256,bytes,bytes),bytes32,address,uint256)": {
        "notice": "delegate-called (using execFromModule) through the fallback, so \"real\" msg.sender is attached as last 20 bytes"
      }
    },
    "notice": "Main EIP4337 module. Called (through the fallback module) using \"delegate\" from the GnosisSafe as an \"IAccount\", so must implement validateUserOp holds an immutable reference to the EntryPoint Inherits GnosisSafeStorage so that it can reference the memory storage",
    "version": 1
  },
  "storageLayout": {
    "storage": [
      {
        "astId": 2098,
        "contract": "contracts/gnosis/EIP4337Manager.sol:EIP4337Manager",
        "label": "singleton",
        "offset": 0,
        "slot": "0",
        "type": "t_address"
      },
      {
        "astId": 1149,
        "contract": "contracts/gnosis/EIP4337Manager.sol:EIP4337Manager",
        "label": "modules",
        "offset": 0,
        "slot": "1",
        "type": "t_mapping(t_address,t_address)"
      },
      {
        "astId": 1508,
        "contract": "contracts/gnosis/EIP4337Manager.sol:EIP4337Manager",
        "label": "owners",
        "offset": 0,
        "slot": "2",
        "type": "t_mapping(t_address,t_address)"
      },
      {
        "astId": 1510,
        "contract": "contracts/gnosis/EIP4337Manager.sol:EIP4337Manager",
        "label": "ownerCount",
        "offset": 0,
        "slot": "3",
        "type": "t_uint256"
      },
      {
        "astId": 1512,
        "contract": "contracts/gnosis/EIP4337Manager.sol:EIP4337Manager",
        "label": "threshold",
        "offset": 0,
        "slot": "4",
        "type": "t_uint256"
      },
      {
        "astId": 82,
        "contract": "contracts/gnosis/EIP4337Manager.sol:EIP4337Manager",
        "label": "nonce",
        "offset": 0,
        "slot": "5",
        "type": "t_uint256"
      },
      {
        "astId": 84,
        "contract": "contracts/gnosis/EIP4337Manager.sol:EIP4337Manager",
        "label": "_deprecatedDomainSeparator",
        "offset": 0,
        "slot": "6",
        "type": "t_bytes32"
      },
      {
        "astId": 88,
        "contract": "contracts/gnosis/EIP4337Manager.sol:EIP4337Manager",
        "label": "signedMessages",
        "offset": 0,
        "slot": "7",
        "type": "t_mapping(t_bytes32,t_uint256)"
      },
      {
        "astId": 94,
        "contract": "contracts/gnosis/EIP4337Manager.sol:EIP4337Manager",
        "label": "approvedHashes",
        "offset": 0,
        "slot": "8",
        "type": "t_mapping(t_address,t_mapping(t_bytes32,t_uint256))"
      }
    ],
    "types": {
      "t_address": {
        "encoding": "inplace",
        "label": "address",
        "numberOfBytes": "20"
      },
      "t_bytes32": {
        "encoding": "inplace",
        "label": "bytes32",
        "numberOfBytes": "32"
      },
      "t_mapping(t_address,t_address)": {
        "encoding": "mapping",
        "key": "t_address",
        "label": "mapping(address => address)",
        "numberOfBytes": "32",
        "value": "t_address"
      },
      "t_mapping(t_address,t_mapping(t_bytes32,t_uint256))": {
        "encoding": "mapping",
        "key": "t_address",
        "label": "mapping(address => mapping(bytes32 => uint256))",
        "numberOfBytes": "32",
        "value": "t_mapping(t_bytes32,t_uint256)"
      },
      "t_mapping(t_bytes32,t_uint256)": {
        "encoding": "mapping",
        "key": "t_bytes32",
        "label": "mapping(bytes32 => uint256)",
        "numberOfBytes": "32",
        "value": "t_uint256"
      },
      "t_uint256": {
        "encoding": "inplace",
        "label": "uint256",
        "numberOfBytes": "32"
      }
    }
  }
}