{
  "address": "0xF6dBBc0543950C5Ceda3e86fcdC3Babb0E51E624",
  "abi": [
    {
      "inputs": [
        {
          "internalType": "address",
          "name": "_owner",
          "type": "address"
        },
        {
          "internalType": "address",
          "name": "_erc721collection",
          "type": "address"
        },
        {
          "internalType": "address",
          "name": "_sender",
          "type": "address"
        },
        {
          "internalType": "uint256",
          "name": "_price",
          "type": "uint256"
        },
        {
          "internalType": "uint256",
          "name": "_period",
          "type": "uint256"
        }
      ],
      "stateMutability": "nonpayable",
      "type": "constructor"
    },
    {
      "inputs": [
        {
          "internalType": "address",
          "name": "guard_",
          "type": "address"
        }
      ],
      "name": "NotIERC165Compliant",
      "type": "error"
    },
    {
      "anonymous": false,
      "inputs": [
        {
          "indexed": true,
          "internalType": "address",
          "name": "previousAvatar",
          "type": "address"
        },
        {
          "indexed": true,
          "internalType": "address",
          "name": "newAvatar",
          "type": "address"
        }
      ],
      "name": "AvatarSet",
      "type": "event"
    },
    {
      "anonymous": false,
      "inputs": [
        {
          "indexed": false,
          "internalType": "address",
          "name": "guard",
          "type": "address"
        }
      ],
      "name": "ChangedGuard",
      "type": "event"
    },
    {
      "anonymous": false,
      "inputs": [
        {
          "indexed": false,
          "internalType": "uint8",
          "name": "version",
          "type": "uint8"
        }
      ],
      "name": "Initialized",
      "type": "event"
    },
    {
      "anonymous": false,
      "inputs": [
        {
          "indexed": true,
          "internalType": "address",
          "name": "previousOwner",
          "type": "address"
        },
        {
          "indexed": true,
          "internalType": "address",
          "name": "newOwner",
          "type": "address"
        }
      ],
      "name": "OwnershipTransferred",
      "type": "event"
    },
    {
      "anonymous": false,
      "inputs": [
        {
          "indexed": true,
          "internalType": "address",
          "name": "previousTarget",
          "type": "address"
        },
        {
          "indexed": true,
          "internalType": "address",
          "name": "newTarget",
          "type": "address"
        }
      ],
      "name": "TargetSet",
      "type": "event"
    },
    {
      "inputs": [],
      "name": "avatar",
      "outputs": [
        {
          "internalType": "address",
          "name": "",
          "type": "address"
        }
      ],
      "stateMutability": "view",
      "type": "function"
    },
    {
      "inputs": [],
      "name": "erc721collection",
      "outputs": [
        {
          "internalType": "contract IERC721",
          "name": "",
          "type": "address"
        }
      ],
      "stateMutability": "view",
      "type": "function"
    },
    {
      "inputs": [],
      "name": "getGuard",
      "outputs": [
        {
          "internalType": "address",
          "name": "_guard",
          "type": "address"
        }
      ],
      "stateMutability": "view",
      "type": "function"
    },
    {
      "inputs": [],
      "name": "guard",
      "outputs": [
        {
          "internalType": "address",
          "name": "",
          "type": "address"
        }
      ],
      "stateMutability": "view",
      "type": "function"
    },
    {
      "inputs": [],
      "name": "owner",
      "outputs": [
        {
          "internalType": "address",
          "name": "",
          "type": "address"
        }
      ],
      "stateMutability": "view",
      "type": "function"
    },
    {
      "inputs": [],
      "name": "period",
      "outputs": [
        {
          "internalType": "uint256",
          "name": "",
          "type": "uint256"
        }
      ],
      "stateMutability": "view",
      "type": "function"
    },
    {
      "inputs": [],
      "name": "price",
      "outputs": [
        {
          "internalType": "uint256",
          "name": "",
          "type": "uint256"
        }
      ],
      "stateMutability": "view",
      "type": "function"
    },
    {
      "inputs": [],
      "name": "renounceOwnership",
      "outputs": [],
      "stateMutability": "nonpayable",
      "type": "function"
    },
    {
      "inputs": [],
      "name": "sender",
      "outputs": [
        {
          "internalType": "address",
          "name": "",
          "type": "address"
        }
      ],
      "stateMutability": "view",
      "type": "function"
    },
    {
      "inputs": [
        {
          "internalType": "address",
          "name": "_avatar",
          "type": "address"
        }
      ],
      "name": "setAvatar",
      "outputs": [],
      "stateMutability": "nonpayable",
      "type": "function"
    },
    {
      "inputs": [
        {
          "internalType": "address",
          "name": "_guard",
          "type": "address"
        }
      ],
      "name": "setGuard",
      "outputs": [],
      "stateMutability": "nonpayable",
      "type": "function"
    },
    {
      "inputs": [
        {
          "internalType": "address",
          "name": "_target",
          "type": "address"
        }
      ],
      "name": "setTarget",
      "outputs": [],
      "stateMutability": "nonpayable",
      "type": "function"
    },
    {
      "inputs": [
        {
          "internalType": "bytes",
          "name": "initializeParams",
          "type": "bytes"
        }
      ],
      "name": "setUp",
      "outputs": [],
      "stateMutability": "nonpayable",
      "type": "function"
    },
    {
      "inputs": [],
      "name": "target",
      "outputs": [
        {
          "internalType": "address",
          "name": "",
          "type": "address"
        }
      ],
      "stateMutability": "view",
      "type": "function"
    },
    {
      "inputs": [],
      "name": "transferETH",
      "outputs": [],
      "stateMutability": "payable",
      "type": "function"
    },
    {
      "inputs": [
        {
          "internalType": "address",
          "name": "newOwner",
          "type": "address"
        }
      ],
      "name": "transferOwnership",
      "outputs": [],
      "stateMutability": "nonpayable",
      "type": "function"
    },
    {
      "inputs": [
        {
          "internalType": "uint256",
          "name": "tokenId",
          "type": "uint256"
        }
      ],
      "name": "triggerPayment",
      "outputs": [],
      "stateMutability": "nonpayable",
      "type": "function"
    }
  ],
  "transactionHash": "0xcdae725436054e8685edf76a11c0bcc0a0c0b3b14d1bcb1d8a070d517afb0698",
  "args": [
    "0x56860862E9d391aAa53Cff0F6A2f952452c3748a",
    "0xCeEA97CB9A44e5f459E53Bba8E7A30500E225988",
    "0xE7B7516Af57DD645DeCb52ec10b0Ce92315d8404",
    "10000000000000000",
    60
  ],
  "numDeployments": 1,
  "solcInputHash": "c3990ca4de81805e3de8934e1a6d7d19",
  "bytecode": "0x60806040523480156200001157600080fd5b5060405162001a5238038062001a52833981016040819052620000349162000528565b604080516001600160a01b03878116602083015286811682840152851660608201526080810184905260a08082018490528251808303909101815260c090910190915262000082816200008e565b5050505050506200058d565b600054610100900460ff1615808015620000af5750600054600160ff909116105b80620000df5750620000cc306200024f60201b62000c051760201c565b158015620000df575060005460ff166001145b620001485760405162461bcd60e51b815260206004820152602e60248201527f496e697469616c697a61626c653a20636f6e747261637420697320616c72656160448201526d191e481a5b9a5d1a585b1a5e995960921b60648201526084015b60405180910390fd5b6000805460ff1916600117905580156200016c576000805461ff0019166101001790555b620001766200025e565b60008060008060008680602001905181019062000194919062000528565b94509450945094509450620001af85620002c660201b60201c565b620001ba8562000322565b606880546001600160a01b038087166001600160a01b0319928316179092556069805492861692909116919091179055606a829055606b819055620001ff856200037e565b505050505080156200024b576000805461ff0019169055604051600181527f7f26b83ff96e1f2b6a682f133852f6798a09c465da95921460cefb38474024989060200160405180910390a15b5050565b6001600160a01b03163b151590565b600054610100900460ff16620002ba5760405162461bcd60e51b815260206004820152602b602482015260008051602062001a3283398151915260448201526a6e697469616c697a696e6760a81b60648201526084016200013f565b620002c4620003fd565b565b620002d062000464565b606680546001600160a01b038381166001600160a01b0319831681179093556040519116919082907f52ae88b092de36f87fb43fe794eb1381023b9c1bce563a871154022c63dce34290600090a35050565b6200032c62000464565b606780546001600160a01b038381166001600160a01b0319831681179093556040519116919082907f90cc2f570a6eb594b1580ea3e41247d2d73a55281889e86bd4ec2fc29c7e62d690600090a35050565b6200038862000464565b6001600160a01b038116620003ef5760405162461bcd60e51b815260206004820152602660248201527f4f776e61626c653a206e6577206f776e657220697320746865207a65726f206160448201526564647265737360d01b60648201526084016200013f565b620003fa81620004c0565b50565b600054610100900460ff16620004595760405162461bcd60e51b815260206004820152602b602482015260008051602062001a3283398151915260448201526a6e697469616c697a696e6760a81b60648201526084016200013f565b620002c433620004c0565b6033546001600160a01b03163314620002c45760405162461bcd60e51b815260206004820181905260248201527f4f776e61626c653a2063616c6c6572206973206e6f7420746865206f776e657260448201526064016200013f565b603380546001600160a01b038381166001600160a01b0319831681179093556040519116919082907f8be0079c531659141344cd1fd0a4f28419497f9722a3daafe3b4186f6b6457e090600090a35050565b6001600160a01b0381168114620003fa57600080fd5b600080600080600060a086880312156200054157600080fd5b85516200054e8162000512565b6020870151909550620005618162000512565b6040870151909450620005748162000512565b6060870151608090970151959894975095949392505050565b611495806200059d6000396000f3fe60806040526004361061010e5760003560e01c80638da5cb5b116100a5578063d4b8399211610074578063e28d717b11610059578063e28d717b1461034f578063ef78d4fd14610357578063f2fde38b1461036d57600080fd5b8063d4b8399214610302578063e19a9dd91461032f57600080fd5b80638da5cb5b14610268578063a035b1fe14610293578063a4f9edbf146102b7578063c9106389146102d757600080fd5b8063715018a6116100e1578063715018a6146101e6578063776d1a01146101fb5780637ceab3b11461021b578063800fb83f1461024857600080fd5b8063086cfca8146101135780635aef7de61461013557806363a0ebc01461018c57806367e404ce146101b9575b600080fd5b34801561011f57600080fd5b5061013361012e3660046110d9565b61038d565b005b34801561014157600080fd5b506066546101629073ffffffffffffffffffffffffffffffffffffffff1681565b60405173ffffffffffffffffffffffffffffffffffffffff90911681526020015b60405180910390f35b34801561019857600080fd5b506068546101629073ffffffffffffffffffffffffffffffffffffffff1681565b3480156101c557600080fd5b506069546101629073ffffffffffffffffffffffffffffffffffffffff1681565b3480156101f257600080fd5b5061013361040c565b34801561020757600080fd5b506101336102163660046110d9565b610420565b34801561022757600080fd5b506065546101629073ffffffffffffffffffffffffffffffffffffffff1681565b34801561025457600080fd5b506101336102633660046110fd565b61049f565b34801561027457600080fd5b5060335473ffffffffffffffffffffffffffffffffffffffff16610162565b34801561029f57600080fd5b506102a9606a5481565b604051908152602001610183565b3480156102c357600080fd5b506101336102d2366004611145565b6106ae565b3480156102e357600080fd5b5060655473ffffffffffffffffffffffffffffffffffffffff16610162565b34801561030e57600080fd5b506067546101629073ffffffffffffffffffffffffffffffffffffffff1681565b34801561033b57600080fd5b5061013361034a3660046110d9565b6108e6565b610133610a7f565b34801561036357600080fd5b506102a9606b5481565b34801561037957600080fd5b506101336103883660046110d9565b610b4e565b610395610c21565b6066805473ffffffffffffffffffffffffffffffffffffffff8381167fffffffffffffffffffffffff0000000000000000000000000000000000000000831681179093556040519116919082907f52ae88b092de36f87fb43fe794eb1381023b9c1bce563a871154022c63dce34290600090a35050565b610414610c21565b61041e6000610ca2565b565b610428610c21565b6067805473ffffffffffffffffffffffffffffffffffffffff8381167fffffffffffffffffffffffff0000000000000000000000000000000000000000831681179093556040519116919082907f90cc2f570a6eb594b1580ea3e41247d2d73a55281889e86bd4ec2fc29c7e62d690600090a35050565b60685460695473ffffffffffffffffffffffffffffffffffffffff918216916323b872dd91166104e460335473ffffffffffffffffffffffffffffffffffffffff1690565b6040517fffffffff0000000000000000000000000000000000000000000000000000000060e085901b16815273ffffffffffffffffffffffffffffffffffffffff92831660048201529116602482015260448101849052606401600060405180830381600087803b15801561055857600080fd5b505af115801561056c573d6000803e3d6000fd5b50505050606b54606c546105809190611214565b4210156105ee576040517f08c379a000000000000000000000000000000000000000000000000000000000815260206004820152601e60248201527f5061796d656e7420706572696f6420686173206e6f7420656c6170736564000060448201526064015b60405180910390fd5b606a546040517fe28d717b00000000000000000000000000000000000000000000000000000000602082015260009161063d913091906024016040516020818303038152906040526000610d19565b9050806106a6576040517f08c379a000000000000000000000000000000000000000000000000000000000815260206004820152600e60248201527f5061796d656e74206661696c656400000000000000000000000000000000000060448201526064016105e5565b505042606c55565b600054610100900460ff16158080156106ce5750600054600160ff909116105b806106e85750303b1580156106e8575060005460ff166001145b610774576040517f08c379a000000000000000000000000000000000000000000000000000000000815260206004820152602e60248201527f496e697469616c697a61626c653a20636f6e747261637420697320616c72656160448201527f647920696e697469616c697a656400000000000000000000000000000000000060648201526084016105e5565b600080547fffffffffffffffffffffffffffffffffffffffffffffffffffffffffffffff0016600117905580156107d257600080547fffffffffffffffffffffffffffffffffffffffffffffffffffffffffffff00ff166101001790555b6107da610f7d565b6000806000806000868060200190518101906107f69190611253565b945094509450945094506108098561038d565b61081285610420565b6068805473ffffffffffffffffffffffffffffffffffffffff8087167fffffffffffffffffffffffff0000000000000000000000000000000000000000928316179092556069805492861692909116919091179055606a829055606b81905561087a85610b4e565b505050505080156108e257600080547fffffffffffffffffffffffffffffffffffffffffffffffffffffffffffff00ff169055604051600181527f7f26b83ff96e1f2b6a682f133852f6798a09c465da95921460cefb38474024989060200160405180910390a15b5050565b6108ee610c21565b73ffffffffffffffffffffffffffffffffffffffff811615610a06576040517f01ffc9a70000000000000000000000000000000000000000000000000000000081527fe6d7a83a00000000000000000000000000000000000000000000000000000000600482015273ffffffffffffffffffffffffffffffffffffffff8216906301ffc9a790602401602060405180830381865afa158015610994573d6000803e3d6000fd5b505050506040513d601f19601f820116820180604052508101906109b891906112b1565b610a06576040517fb16ea67e00000000000000000000000000000000000000000000000000000000815273ffffffffffffffffffffffffffffffffffffffff821660048201526024016105e5565b606580547fffffffffffffffffffffffff00000000000000000000000000000000000000001673ffffffffffffffffffffffffffffffffffffffff83169081179091556040519081527f1151116914515bc0891ff9047a6cb32cf902546f83066499bcf8ba33d2353fa29060200160405180910390a150565b606954604051600091829173ffffffffffffffffffffffffffffffffffffffff9091169034908381818185875af1925050503d8060008114610add576040519150601f19603f3d011682016040523d82523d6000602084013e610ae2565b606091505b5091509150816108e2576040517f08c379a000000000000000000000000000000000000000000000000000000000815260206004820152601460248201527f4661696c656420746f2073656e6420457468657200000000000000000000000060448201526064016105e5565b610b56610c21565b73ffffffffffffffffffffffffffffffffffffffff8116610bf9576040517f08c379a000000000000000000000000000000000000000000000000000000000815260206004820152602660248201527f4f776e61626c653a206e6577206f776e657220697320746865207a65726f206160448201527f646472657373000000000000000000000000000000000000000000000000000060648201526084016105e5565b610c0281610ca2565b50565b73ffffffffffffffffffffffffffffffffffffffff163b151590565b60335473ffffffffffffffffffffffffffffffffffffffff16331461041e576040517f08c379a000000000000000000000000000000000000000000000000000000000815260206004820181905260248201527f4f776e61626c653a2063616c6c6572206973206e6f7420746865206f776e657260448201526064016105e5565b6033805473ffffffffffffffffffffffffffffffffffffffff8381167fffffffffffffffffffffffff0000000000000000000000000000000000000000831681179093556040519116919082907f8be0079c531659141344cd1fd0a4f28419497f9722a3daafe3b4186f6b6457e090600090a35050565b60655460009073ffffffffffffffffffffffffffffffffffffffff1615610e0957606554604080518082018252600281527f3078000000000000000000000000000000000000000000000000000000000000602082015290517f75f0bb5200000000000000000000000000000000000000000000000000000000815273ffffffffffffffffffffffffffffffffffffffff909216916375f0bb5291610dd69189918991899189916000918291829182918291903390600401611379565b600060405180830381600087803b158015610df057600080fd5b505af1158015610e04573d6000803e3d6000fd5b505050505b6067546040517f468721a700000000000000000000000000000000000000000000000000000000815273ffffffffffffffffffffffffffffffffffffffff9091169063468721a790610e65908890889088908890600401611412565b6020604051808303816000875af1158015610e84573d6000803e3d6000fd5b505050506040513d601f19601f82011682018060405250810190610ea891906112b1565b60655490915073ffffffffffffffffffffffffffffffffffffffff1615610f75576065546040517f932713680000000000000000000000000000000000000000000000000000000081527f30780000000000000000000000000000000000000000000000000000000000006004820152821515602482015273ffffffffffffffffffffffffffffffffffffffff90911690639327136890604401600060405180830381600087803b158015610f5c57600080fd5b505af1158015610f70573d6000803e3d6000fd5b505050505b949350505050565b600054610100900460ff16611014576040517f08c379a000000000000000000000000000000000000000000000000000000000815260206004820152602b60248201527f496e697469616c697a61626c653a20636f6e7472616374206973206e6f74206960448201527f6e697469616c697a696e6700000000000000000000000000000000000000000060648201526084016105e5565b61041e600054610100900460ff166110ae576040517f08c379a000000000000000000000000000000000000000000000000000000000815260206004820152602b60248201527f496e697469616c697a61626c653a20636f6e7472616374206973206e6f74206960448201527f6e697469616c697a696e6700000000000000000000000000000000000000000060648201526084016105e5565b61041e33610ca2565b73ffffffffffffffffffffffffffffffffffffffff81168114610c0257600080fd5b6000602082840312156110eb57600080fd5b81356110f6816110b7565b9392505050565b60006020828403121561110f57600080fd5b5035919050565b7f4e487b7100000000000000000000000000000000000000000000000000000000600052604160045260246000fd5b60006020828403121561115757600080fd5b813567ffffffffffffffff8082111561116f57600080fd5b818401915084601f83011261118357600080fd5b81358181111561119557611195611116565b604051601f82017fffffffffffffffffffffffffffffffffffffffffffffffffffffffffffffffe0908116603f011681019083821181831017156111db576111db611116565b816040528281528760208487010111156111f457600080fd5b826020860160208301376000928101602001929092525095945050505050565b6000821982111561124e577f4e487b7100000000000000000000000000000000000000000000000000000000600052601160045260246000fd5b500190565b600080600080600060a0868803121561126b57600080fd5b8551611276816110b7565b6020870151909550611287816110b7565b6040870151909450611298816110b7565b6060870151608090970151959894975095949392505050565b6000602082840312156112c357600080fd5b815180151581146110f657600080fd5b6000815180845260005b818110156112f9576020818501810151868301820152016112dd565b8181111561130b576000602083870101525b50601f017fffffffffffffffffffffffffffffffffffffffffffffffffffffffffffffffe0169290920160200192915050565b60028110611375577f4e487b7100000000000000000000000000000000000000000000000000000000600052602160045260246000fd5b9052565b600061016073ffffffffffffffffffffffffffffffffffffffff808f1684528d60208501528160408501526113b08285018e6112d3565b91506113bf606085018d61133e565b8a60808501528960a08501528860c085015280881660e08501528087166101008501528382036101208501526113f582876112d3565b925080851661014085015250509c9b505050505050505050505050565b73ffffffffffffffffffffffffffffffffffffffff8516815283602082015260806040820152600061144760808301856112d3565b9050611456606083018461133e565b9594505050505056fea2646970667358221220bc801de15ff6143685d024a45bb5ee738f49c6fa34074828257316f507bcee9f64736f6c634300080f0033496e697469616c697a61626c653a20636f6e7472616374206973206e6f742069",
  "devdoc": {
    "kind": "dev",
    "methods": {
      "owner()": {
        "details": "Returns the address of the current owner."
      },
      "renounceOwnership()": {
        "details": "Leaves the contract without owner. It will not be possible to call `onlyOwner` functions anymore. Can only be called by the current owner. NOTE: Renouncing ownership will leave the contract without an owner, thereby removing any functionality that is only available to the owner."
      },
      "setAvatar(address)": {
        "details": "Sets the avatar to a new avatar (`newAvatar`)."
      },
      "setGuard(address)": {
        "details": "Set a guard that checks transactions before execution.",
        "params": {
          "_guard": "The address of the guard to be used or the 0 address to disable the guard."
        }
      },
      "setTarget(address)": {
        "details": "Sets the target to a new target (`newTarget`)."
      },
      "setUp(bytes)": {
        "details": "Initialize function, will be triggered when a new proxy is deployed",
        "params": {
          "initializeParams": "Parameters of initialization encoded"
        }
      },
      "transferOwnership(address)": {
        "details": "Transfers ownership of the contract to a new account (`newOwner`). Can only be called by the current owner."
      }
    },
    "version": 1
  },
  "userdoc": {
    "errors": {
      "NotIERC165Compliant(address)": [
        {
          "notice": "`guard_` does not implement IERC165."
        }
      ]
    },
    "kind": "user",
    "methods": {
      "setAvatar(address)": {
        "notice": "Can only be called by the current owner."
      },
      "setTarget(address)": {
        "notice": "Can only be called by the current owner."
      }
    },
    "version": 1
  },
  "storageLayout": {
    "storage": [
      {
        "astId": 3443,
        "contract": "contracts/samples/module/ERC721SubscriptionModule.sol:ERC721SubscriptionModule",
        "label": "_initialized",
        "offset": 0,
        "slot": "0",
        "type": "t_uint8"
      },
      {
        "astId": 3446,
        "contract": "contracts/samples/module/ERC721SubscriptionModule.sol:ERC721SubscriptionModule",
        "label": "_initializing",
        "offset": 1,
        "slot": "0",
        "type": "t_bool"
      },
      {
        "astId": 3930,
        "contract": "contracts/samples/module/ERC721SubscriptionModule.sol:ERC721SubscriptionModule",
        "label": "__gap",
        "offset": 0,
        "slot": "1",
        "type": "t_array(t_uint256)50_storage"
      },
      {
        "astId": 3315,
        "contract": "contracts/samples/module/ERC721SubscriptionModule.sol:ERC721SubscriptionModule",
        "label": "_owner",
        "offset": 0,
        "slot": "51",
        "type": "t_address"
      },
      {
        "astId": 3435,
        "contract": "contracts/samples/module/ERC721SubscriptionModule.sol:ERC721SubscriptionModule",
        "label": "__gap",
        "offset": 0,
        "slot": "52",
        "type": "t_array(t_uint256)49_storage"
      },
      {
        "astId": 3122,
        "contract": "contracts/samples/module/ERC721SubscriptionModule.sol:ERC721SubscriptionModule",
        "label": "guard",
        "offset": 0,
        "slot": "101",
        "type": "t_address"
      },
      {
        "astId": 2800,
        "contract": "contracts/samples/module/ERC721SubscriptionModule.sol:ERC721SubscriptionModule",
        "label": "avatar",
        "offset": 0,
        "slot": "102",
        "type": "t_address"
      },
      {
        "astId": 2803,
        "contract": "contracts/samples/module/ERC721SubscriptionModule.sol:ERC721SubscriptionModule",
        "label": "target",
        "offset": 0,
        "slot": "103",
        "type": "t_address"
      },
      {
        "astId": 15048,
        "contract": "contracts/samples/module/ERC721SubscriptionModule.sol:ERC721SubscriptionModule",
        "label": "erc721collection",
        "offset": 0,
        "slot": "104",
        "type": "t_contract(IERC721)6727"
      },
      {
        "astId": 15050,
        "contract": "contracts/samples/module/ERC721SubscriptionModule.sol:ERC721SubscriptionModule",
        "label": "sender",
        "offset": 0,
        "slot": "105",
        "type": "t_address"
      },
      {
        "astId": 15052,
        "contract": "contracts/samples/module/ERC721SubscriptionModule.sol:ERC721SubscriptionModule",
        "label": "price",
        "offset": 0,
        "slot": "106",
        "type": "t_uint256"
      },
      {
        "astId": 15054,
        "contract": "contracts/samples/module/ERC721SubscriptionModule.sol:ERC721SubscriptionModule",
        "label": "period",
        "offset": 0,
        "slot": "107",
        "type": "t_uint256"
      },
      {
        "astId": 15056,
        "contract": "contracts/samples/module/ERC721SubscriptionModule.sol:ERC721SubscriptionModule",
        "label": "lastPayment",
        "offset": 0,
        "slot": "108",
        "type": "t_uint256"
      }
    ],
    "types": {
      "t_address": {
        "encoding": "inplace",
        "label": "address",
        "numberOfBytes": "20"
      },
      "t_array(t_uint256)49_storage": {
        "base": "t_uint256",
        "encoding": "inplace",
        "label": "uint256[49]",
        "numberOfBytes": "1568"
      },
      "t_array(t_uint256)50_storage": {
        "base": "t_uint256",
        "encoding": "inplace",
        "label": "uint256[50]",
        "numberOfBytes": "1600"
      },
      "t_bool": {
        "encoding": "inplace",
        "label": "bool",
        "numberOfBytes": "1"
      },
      "t_contract(IERC721)6727": {
        "encoding": "inplace",
        "label": "contract IERC721",
        "numberOfBytes": "20"
      },
      "t_uint256": {
        "encoding": "inplace",
        "label": "uint256",
        "numberOfBytes": "32"
      },
      "t_uint8": {
        "encoding": "inplace",
        "label": "uint8",
        "numberOfBytes": "1"
      }
    }
  }
}