{
  "address": "0x2E59ebb954BF7B0e1FB63c3B2F583C35C31Cd604",
  "abi": [
    {
      "inputs": [
        {
          "internalType": "contract IEntryPoint",
          "name": "_entryPoint",
          "type": "address"
        },
        {
          "internalType": "address",
          "name": "_verifyingSigner",
          "type": "address"
        }
      ],
      "stateMutability": "nonpayable",
      "type": "constructor"
    },
    {
      "anonymous": false,
      "inputs": [
        {
          "indexed": true,
          "internalType": "address",
          "name": "previousOwner",
          "type": "address"
        },
        {
          "indexed": true,
          "internalType": "address",
          "name": "newOwner",
          "type": "address"
        }
      ],
      "name": "OwnershipTransferred",
      "type": "event"
    },
    {
      "inputs": [
        {
          "internalType": "uint32",
          "name": "unstakeDelaySec",
          "type": "uint32"
        }
      ],
      "name": "addStake",
      "outputs": [],
      "stateMutability": "payable",
      "type": "function"
    },
    {
      "inputs": [],
      "name": "deposit",
      "outputs": [],
      "stateMutability": "payable",
      "type": "function"
    },
    {
      "inputs": [],
      "name": "entryPoint",
      "outputs": [
        {
          "internalType": "contract IEntryPoint",
          "name": "",
          "type": "address"
        }
      ],
      "stateMutability": "view",
      "type": "function"
    },
    {
      "inputs": [],
      "name": "getDeposit",
      "outputs": [
        {
          "internalType": "uint256",
          "name": "",
          "type": "uint256"
        }
      ],
      "stateMutability": "view",
      "type": "function"
    },
    {
      "inputs": [
        {
          "components": [
            {
              "internalType": "address",
              "name": "sender",
              "type": "address"
            },
            {
              "internalType": "uint256",
              "name": "nonce",
              "type": "uint256"
            },
            {
              "internalType": "bytes",
              "name": "initCode",
              "type": "bytes"
            },
            {
              "internalType": "bytes",
              "name": "callData",
              "type": "bytes"
            },
            {
              "internalType": "uint256",
              "name": "callGasLimit",
              "type": "uint256"
            },
            {
              "internalType": "uint256",
              "name": "verificationGasLimit",
              "type": "uint256"
            },
            {
              "internalType": "uint256",
              "name": "preVerificationGas",
              "type": "uint256"
            },
            {
              "internalType": "uint256",
              "name": "maxFeePerGas",
              "type": "uint256"
            },
            {
              "internalType": "uint256",
              "name": "maxPriorityFeePerGas",
              "type": "uint256"
            },
            {
              "internalType": "bytes",
              "name": "paymasterAndData",
              "type": "bytes"
            },
            {
              "internalType": "bytes",
              "name": "signature",
              "type": "bytes"
            }
          ],
          "internalType": "struct UserOperation",
          "name": "userOp",
          "type": "tuple"
        }
      ],
      "name": "getHash",
      "outputs": [
        {
          "internalType": "bytes32",
          "name": "",
          "type": "bytes32"
        }
      ],
      "stateMutability": "pure",
      "type": "function"
    },
    {
      "inputs": [],
      "name": "owner",
      "outputs": [
        {
          "internalType": "address",
          "name": "",
          "type": "address"
        }
      ],
      "stateMutability": "view",
      "type": "function"
    },
    {
      "inputs": [
        {
          "internalType": "enum IPaymaster.PostOpMode",
          "name": "mode",
          "type": "uint8"
        },
        {
          "internalType": "bytes",
          "name": "context",
          "type": "bytes"
        },
        {
          "internalType": "uint256",
          "name": "actualGasCost",
          "type": "uint256"
        }
      ],
      "name": "postOp",
      "outputs": [],
      "stateMutability": "nonpayable",
      "type": "function"
    },
    {
      "inputs": [],
      "name": "renounceOwnership",
      "outputs": [],
      "stateMutability": "nonpayable",
      "type": "function"
    },
    {
      "inputs": [
        {
          "internalType": "contract IEntryPoint",
          "name": "_entryPoint",
          "type": "address"
        }
      ],
      "name": "setEntryPoint",
      "outputs": [],
      "stateMutability": "nonpayable",
      "type": "function"
    },
    {
      "inputs": [
        {
          "internalType": "address",
          "name": "newOwner",
          "type": "address"
        }
      ],
      "name": "transferOwnership",
      "outputs": [],
      "stateMutability": "nonpayable",
      "type": "function"
    },
    {
      "inputs": [],
      "name": "unlockStake",
      "outputs": [],
      "stateMutability": "nonpayable",
      "type": "function"
    },
    {
      "inputs": [
        {
          "components": [
            {
              "internalType": "address",
              "name": "sender",
              "type": "address"
            },
            {
              "internalType": "uint256",
              "name": "nonce",
              "type": "uint256"
            },
            {
              "internalType": "bytes",
              "name": "initCode",
              "type": "bytes"
            },
            {
              "internalType": "bytes",
              "name": "callData",
              "type": "bytes"
            },
            {
              "internalType": "uint256",
              "name": "callGasLimit",
              "type": "uint256"
            },
            {
              "internalType": "uint256",
              "name": "verificationGasLimit",
              "type": "uint256"
            },
            {
              "internalType": "uint256",
              "name": "preVerificationGas",
              "type": "uint256"
            },
            {
              "internalType": "uint256",
              "name": "maxFeePerGas",
              "type": "uint256"
            },
            {
              "internalType": "uint256",
              "name": "maxPriorityFeePerGas",
              "type": "uint256"
            },
            {
              "internalType": "bytes",
              "name": "paymasterAndData",
              "type": "bytes"
            },
            {
              "internalType": "bytes",
              "name": "signature",
              "type": "bytes"
            }
          ],
          "internalType": "struct UserOperation",
          "name": "userOp",
          "type": "tuple"
        },
        {
          "internalType": "bytes32",
          "name": "",
          "type": "bytes32"
        },
        {
          "internalType": "uint256",
          "name": "requiredPreFund",
          "type": "uint256"
        }
      ],
      "name": "validatePaymasterUserOp",
      "outputs": [
        {
          "internalType": "bytes",
          "name": "context",
          "type": "bytes"
        },
        {
          "internalType": "uint256",
          "name": "deadline",
          "type": "uint256"
        }
      ],
      "stateMutability": "view",
      "type": "function"
    },
    {
      "inputs": [],
      "name": "verifyingSigner",
      "outputs": [
        {
          "internalType": "address",
          "name": "",
          "type": "address"
        }
      ],
      "stateMutability": "view",
      "type": "function"
    },
    {
      "inputs": [
        {
          "internalType": "address payable",
          "name": "withdrawAddress",
          "type": "address"
        }
      ],
      "name": "withdrawStake",
      "outputs": [],
      "stateMutability": "nonpayable",
      "type": "function"
    },
    {
      "inputs": [
        {
          "internalType": "address payable",
          "name": "withdrawAddress",
          "type": "address"
        },
        {
          "internalType": "uint256",
          "name": "amount",
          "type": "uint256"
        }
      ],
      "name": "withdrawTo",
      "outputs": [],
      "stateMutability": "nonpayable",
      "type": "function"
    }
  ],
  "transactionHash": "0x33eae2510a6065bf20905fadf0f85e397cf58cbb7bf2f11ae3be9513357a3f12",
  "args": [
    "0x49bd26a61DABE4D9F5B8e2B4fD947B9b250D30B9",
    "0xE7B7516Af57DD645DeCb52ec10b0Ce92315d8404"
  ],
  "numDeployments": 1,
  "solcInputHash": "f65da13059a85ee84db99275b2bc787e",
  "bytecode": "0x60a06040523480156200001157600080fd5b506040516200153538038062001535833981016040819052620000349162000155565b8162000040336200005f565b6200004b81620000af565b506001600160a01b03166080525062000194565b600080546001600160a01b038381166001600160a01b0319831681178455604051919092169283917f8be0079c531659141344cd1fd0a4f28419497f9722a3daafe3b4186f6b6457e09190a35050565b620000b9620000db565b600180546001600160a01b0319166001600160a01b0392909216919091179055565b6000546001600160a01b031633146200013a5760405162461bcd60e51b815260206004820181905260248201527f4f776e61626c653a2063616c6c6572206973206e6f7420746865206f776e6572604482015260640160405180910390fd5b565b6001600160a01b03811681146200015257600080fd5b50565b600080604083850312156200016957600080fd5b825162000176816200013c565b602084015190925062000189816200013c565b809150509250929050565b60805161137e620001b760003960008181610134015261096f015261137e6000f3fe6080604052600436106100e85760003560e01c8063b0d691fe1161008a578063c399ec8811610059578063c399ec8814610290578063d0e30db0146102a5578063f2fde38b146102ad578063f465c77e146102cd57600080fd5b8063b0d691fe14610200578063bb9fe6bf1461022d578063c23a5cea14610242578063c266f2921461026257600080fd5b8063584465f2116100c6578063584465f214610180578063715018a6146101a05780638da5cb5b146101b5578063a9a23409146101e057600080fd5b80630396cb60146100ed578063205c28781461010257806323d9ac9b14610122575b600080fd5b6101006100fb366004610fdd565b6102fb565b005b34801561010e57600080fd5b5061010061011d36600461102c565b610391565b34801561012e57600080fd5b506101567f000000000000000000000000000000000000000000000000000000000000000081565b60405173ffffffffffffffffffffffffffffffffffffffff90911681526020015b60405180910390f35b34801561018c57600080fd5b5061010061019b366004611058565b61040d565b3480156101ac57600080fd5b5061010061045c565b3480156101c157600080fd5b5060005473ffffffffffffffffffffffffffffffffffffffff16610156565b3480156101ec57600080fd5b506101006101fb366004611075565b610470565b34801561020c57600080fd5b506001546101569073ffffffffffffffffffffffffffffffffffffffff1681565b34801561023957600080fd5b5061010061048a565b34801561024e57600080fd5b5061010061025d366004611058565b610510565b34801561026e57600080fd5b5061028261027d36600461111d565b6105a0565b604051908152602001610177565b34801561029c57600080fd5b5061028261066f565b610100610707565b3480156102b957600080fd5b506101006102c8366004611058565b610773565b3480156102d957600080fd5b506102ed6102e836600461115a565b61082f565b6040516101779291906111a8565b610303610a51565b6001546040517f0396cb6000000000000000000000000000000000000000000000000000000000815263ffffffff8316600482015273ffffffffffffffffffffffffffffffffffffffff90911690630396cb609034906024016000604051808303818588803b15801561037557600080fd5b505af1158015610389573d6000803e3d6000fd5b505050505050565b610399610a51565b6001546040517f205c287800000000000000000000000000000000000000000000000000000000815273ffffffffffffffffffffffffffffffffffffffff8481166004830152602482018490529091169063205c287890604401600060405180830381600087803b15801561037557600080fd5b610415610a51565b600180547fffffffffffffffffffffffff00000000000000000000000000000000000000001673ffffffffffffffffffffffffffffffffffffffff92909216919091179055565b610464610a51565b61046e6000610ad2565b565b610478610b47565b61048484848484610b6b565b50505050565b610492610a51565b600160009054906101000a900473ffffffffffffffffffffffffffffffffffffffff1673ffffffffffffffffffffffffffffffffffffffff1663bb9fe6bf6040518163ffffffff1660e01b8152600401600060405180830381600087803b1580156104fc57600080fd5b505af1158015610484573d6000803e3d6000fd5b610518610a51565b6001546040517fc23a5cea00000000000000000000000000000000000000000000000000000000815273ffffffffffffffffffffffffffffffffffffffff83811660048301529091169063c23a5cea90602401600060405180830381600087803b15801561058557600080fd5b505af1158015610599573d6000803e3d6000fd5b5050505050565b6000813560208301356105b66040850185611223565b6040516105c4929190611288565b6040519081900390206105da6060860186611223565b6040516105e8929190611288565b6040805191829003822073ffffffffffffffffffffffffffffffffffffffff909516602083015281019290925260608201526080808201929092529083013560a08083019190915283013560c082015260e080840135908201526101008084013590820152610120015b604051602081830303815290604052805190602001209050919050565b6001546040517f70a0823100000000000000000000000000000000000000000000000000000000815230600482015260009173ffffffffffffffffffffffffffffffffffffffff16906370a0823190602401602060405180830381865afa1580156106de573d6000803e3d6000fd5b505050506040513d601f19601f820116820180604052508101906107029190611298565b905090565b6001546040517fb760faf900000000000000000000000000000000000000000000000000000000815230600482015273ffffffffffffffffffffffffffffffffffffffff9091169063b760faf99034906024016000604051808303818588803b15801561058557600080fd5b61077b610a51565b73ffffffffffffffffffffffffffffffffffffffff8116610823576040517f08c379a000000000000000000000000000000000000000000000000000000000815260206004820152602660248201527f4f776e61626c653a206e6577206f776e657220697320746865207a65726f206160448201527f646472657373000000000000000000000000000000000000000000000000000060648201526084015b60405180910390fd5b61082c81610ad2565b50565b606060008061083d866105a0565b9050366000610850610120890189611223565b909250905060006108626014836112b1565b905080604014806108735750806041145b61090157604080517f08c379a00000000000000000000000000000000000000000000000000000000081526020600482015260248101919091527f566572696679696e675061796d61737465723a20696e76616c6964207369676e60448201527f6174757265206c656e67746820696e207061796d6173746572416e6444617461606482015260840161081a565b61095761091183601481876112ef565b8080601f0160208091040260200160405190810160405280939291908181526020018383808284376000920191909152506109519250889150610bcd9050565b90610c08565b73ffffffffffffffffffffffffffffffffffffffff167f000000000000000000000000000000000000000000000000000000000000000073ffffffffffffffffffffffffffffffffffffffff1614610a31576040517f08c379a000000000000000000000000000000000000000000000000000000000815260206004820152602360248201527f566572696679696e675061796d61737465723a2077726f6e67207369676e617460448201527f7572650000000000000000000000000000000000000000000000000000000000606482015260840161081a565b505060408051602081019091526000808252909890975095505050505050565b60005473ffffffffffffffffffffffffffffffffffffffff16331461046e576040517f08c379a000000000000000000000000000000000000000000000000000000000815260206004820181905260248201527f4f776e61626c653a2063616c6c6572206973206e6f7420746865206f776e6572604482015260640161081a565b6000805473ffffffffffffffffffffffffffffffffffffffff8381167fffffffffffffffffffffffff0000000000000000000000000000000000000000831681178455604051919092169283917f8be0079c531659141344cd1fd0a4f28419497f9722a3daafe3b4186f6b6457e09190a35050565b60015473ffffffffffffffffffffffffffffffffffffffff16331461046e57600080fd5b6040517f08c379a000000000000000000000000000000000000000000000000000000000815260206004820152600d60248201527f6d757374206f7665727269646500000000000000000000000000000000000000604482015260640161081a565b6040517f19457468657265756d205369676e6564204d6573736167653a0a3332000000006020820152603c8101829052600090605c01610652565b6000806000610c178585610c2c565b91509150610c2481610c71565b509392505050565b6000808251604103610c625760208301516040840151606085015160001a610c5687828585610ec5565b94509450505050610c6a565b506000905060025b9250929050565b6000816004811115610c8557610c85611319565b03610c8d5750565b6001816004811115610ca157610ca1611319565b03610d08576040517f08c379a000000000000000000000000000000000000000000000000000000000815260206004820152601860248201527f45434453413a20696e76616c6964207369676e61747572650000000000000000604482015260640161081a565b6002816004811115610d1c57610d1c611319565b03610d83576040517f08c379a000000000000000000000000000000000000000000000000000000000815260206004820152601f60248201527f45434453413a20696e76616c6964207369676e6174757265206c656e67746800604482015260640161081a565b6003816004811115610d9757610d97611319565b03610e24576040517f08c379a000000000000000000000000000000000000000000000000000000000815260206004820152602260248201527f45434453413a20696e76616c6964207369676e6174757265202773272076616c60448201527f7565000000000000000000000000000000000000000000000000000000000000606482015260840161081a565b6004816004811115610e3857610e38611319565b0361082c576040517f08c379a000000000000000000000000000000000000000000000000000000000815260206004820152602260248201527f45434453413a20696e76616c6964207369676e6174757265202776272076616c60448201527f7565000000000000000000000000000000000000000000000000000000000000606482015260840161081a565b6000807f7fffffffffffffffffffffffffffffff5d576e7357a4501ddfe92f46681b20a0831115610efc5750600090506003610fd4565b8460ff16601b14158015610f1457508460ff16601c14155b15610f255750600090506004610fd4565b6040805160008082526020820180845289905260ff881692820192909252606081018690526080810185905260019060a0016020604051602081039080840390855afa158015610f79573d6000803e3d6000fd5b50506040517fffffffffffffffffffffffffffffffffffffffffffffffffffffffffffffffe0015191505073ffffffffffffffffffffffffffffffffffffffff8116610fcd57600060019250925050610fd4565b9150600090505b94509492505050565b600060208284031215610fef57600080fd5b813563ffffffff8116811461100357600080fd5b9392505050565b73ffffffffffffffffffffffffffffffffffffffff8116811461082c57600080fd5b6000806040838503121561103f57600080fd5b823561104a8161100a565b946020939093013593505050565b60006020828403121561106a57600080fd5b81356110038161100a565b6000806000806060858703121561108b57600080fd5b84356003811061109a57600080fd5b9350602085013567ffffffffffffffff808211156110b757600080fd5b818701915087601f8301126110cb57600080fd5b8135818111156110da57600080fd5b8860208285010111156110ec57600080fd5b95986020929092019750949560400135945092505050565b6000610160828403121561111757600080fd5b50919050565b60006020828403121561112f57600080fd5b813567ffffffffffffffff81111561114657600080fd5b61115284828501611104565b949350505050565b60008060006060848603121561116f57600080fd5b833567ffffffffffffffff81111561118657600080fd5b61119286828701611104565b9660208601359650604090950135949350505050565b604081526000835180604084015260005b818110156111d657602081870181015160608684010152016111b9565b818111156111e8576000606083860101525b50602083019390935250601f919091017fffffffffffffffffffffffffffffffffffffffffffffffffffffffffffffffe01601606001919050565b60008083357fffffffffffffffffffffffffffffffffffffffffffffffffffffffffffffffe184360301811261125857600080fd5b83018035915067ffffffffffffffff82111561127357600080fd5b602001915036819003821315610c6a57600080fd5b8183823760009101908152919050565b6000602082840312156112aa57600080fd5b5051919050565b6000828210156112ea577f4e487b7100000000000000000000000000000000000000000000000000000000600052601160045260246000fd5b500390565b600080858511156112ff57600080fd5b8386111561130c57600080fd5b5050820193919092039150565b7f4e487b7100000000000000000000000000000000000000000000000000000000600052602160045260246000fdfea2646970667358221220491b9a76a56972479f5d9a65bad867a9726723f2bdfef642b0bfb89ba690850564736f6c634300080f0033",
  "devdoc": {
    "kind": "dev",
    "methods": {
      "addStake(uint32)": {
        "params": {
          "unstakeDelaySec": "- the unstake delay for this paymaster. Can only be increased."
        }
      },
      "owner()": {
        "details": "Returns the address of the current owner."
      },
      "postOp(uint8,bytes,uint256)": {
        "params": {
          "actualGasCost": "- actual gas used so far (without this postOp call).",
          "context": "- the context value returned by validatePaymasterUserOp",
          "mode": "enum with the following options:      opSucceeded - user operation succeeded.      opReverted  - user op reverted. still has to pay for gas.      postOpReverted - user op succeeded, but caused postOp (in mode=opSucceeded) to revert.                       Now this is the 2nd call, after user's op was deliberately reverted."
        }
      },
      "renounceOwnership()": {
        "details": "Leaves the contract without owner. It will not be possible to call `onlyOwner` functions anymore. Can only be called by the current owner. NOTE: Renouncing ownership will leave the contract without an owner, thereby removing any functionality that is only available to the owner."
      },
      "transferOwnership(address)": {
        "details": "Transfers ownership of the contract to a new account (`newOwner`). Can only be called by the current owner."
      },
      "withdrawStake(address)": {
        "params": {
          "withdrawAddress": "the address to send withdrawn value."
        }
      },
      "withdrawTo(address,uint256)": {
        "params": {
          "amount": "to withdraw",
          "withdrawAddress": "target to send to"
        }
      }
    },
    "version": 1
  },
  "userdoc": {
    "kind": "user",
    "methods": {
      "addStake(uint32)": {
        "notice": "add stake for this paymaster. This method can also carry eth value to add to the current stake."
      },
      "deposit()": {
        "notice": "add a deposit for this paymaster, used for paying for transaction fees"
      },
      "getDeposit()": {
        "notice": "return current paymaster's deposit on the entryPoint."
      },
      "getHash((address,uint256,bytes,bytes,uint256,uint256,uint256,uint256,uint256,bytes,bytes))": {
        "notice": "return the hash we're going to sign off-chain (and validate on-chain) this method is called by the off-chain service, to sign the request. it is called on-chain from the validatePaymasterUserOp, to validate the signature. note that this signature covers all fields of the UserOperation, except the \"paymasterAndData\", which will carry the signature itself."
      },
      "postOp(uint8,bytes,uint256)": {
        "notice": "post-operation handler. Must verify sender is the entryPoint"
      },
      "unlockStake()": {
        "notice": "unlock the stake, in order to withdraw it. The paymaster can't serve requests once unlocked, until it calls addStake again"
      },
      "validatePaymasterUserOp((address,uint256,bytes,bytes,uint256,uint256,uint256,uint256,uint256,bytes,bytes),bytes32,uint256)": {
        "notice": "verify our external signer signed this request. the \"paymasterAndData\" is expected to be the paymaster and a signature over the entire request params"
      },
      "withdrawStake(address)": {
        "notice": "withdraw the entire paymaster's stake. stake must be unlocked first (and then wait for the unstakeDelay to be over)"
      },
      "withdrawTo(address,uint256)": {
        "notice": "withdraw value from the deposit"
      }
    },
    "notice": "A sample paymaster that uses external service to decide whether to pay for the UserOp. The paymaster trusts an external signer to sign the transaction. The calling user must pass the UserOp to that external signer first, which performs whatever off-chain verification before signing the UserOp. Note that this signature is NOT a replacement for wallet signature: - the paymaster signs to agree to PAY for GAS. - the wallet signs to prove identity and wallet ownership.",
    "version": 1
  },
  "storageLayout": {
    "storage": [
      {
        "astId": 2533,
        "contract": "contracts/samples/VerifyingPaymaster.sol:VerifyingPaymaster",
        "label": "_owner",
        "offset": 0,
        "slot": "0",
        "type": "t_address"
      },
      {
        "astId": 7590,
        "contract": "contracts/samples/VerifyingPaymaster.sol:VerifyingPaymaster",
        "label": "entryPoint",
        "offset": 0,
        "slot": "1",
        "type": "t_contract(IEntryPoint)11172"
      }
    ],
    "types": {
      "t_address": {
        "encoding": "inplace",
        "label": "address",
        "numberOfBytes": "20"
      },
      "t_contract(IEntryPoint)11172": {
        "encoding": "inplace",
        "label": "contract IEntryPoint",
        "numberOfBytes": "20"
      }
    }
  }
}